{
  "address": "0xB7f8BC63BbcaD18155201308C8f3540b07f84F5e",
  "abi": [
    {
      "inputs": [
        {
          "internalType": "address",
          "name": "owner",
          "type": "address"
        }
      ],
      "stateMutability": "nonpayable",
      "type": "constructor"
    },
    {
      "anonymous": false,
      "inputs": [
        {
          "indexed": true,
          "internalType": "address",
          "name": "account",
          "type": "address"
        },
        {
          "indexed": true,
          "internalType": "address",
          "name": "operator",
          "type": "address"
        },
        {
          "indexed": false,
          "internalType": "bool",
          "name": "approved",
          "type": "bool"
        }
      ],
      "name": "ApprovalForAll",
      "type": "event"
    },
    {
      "anonymous": false,
      "inputs": [
        {
          "indexed": true,
          "internalType": "address",
          "name": "previousOwner",
          "type": "address"
        },
        {
          "indexed": true,
          "internalType": "address",
          "name": "newOwner",
          "type": "address"
        }
      ],
      "name": "OwnershipTransferred",
      "type": "event"
    },
    {
      "anonymous": false,
      "inputs": [
        {
          "indexed": false,
          "internalType": "address",
          "name": "account",
          "type": "address"
        }
      ],
      "name": "Paused",
      "type": "event"
    },
    {
      "anonymous": false,
      "inputs": [
        {
          "indexed": true,
          "internalType": "address",
          "name": "operator",
          "type": "address"
        },
        {
          "indexed": true,
          "internalType": "address",
          "name": "from",
          "type": "address"
        },
        {
          "indexed": true,
          "internalType": "address",
          "name": "to",
          "type": "address"
        },
        {
          "indexed": false,
          "internalType": "uint256[]",
          "name": "ids",
          "type": "uint256[]"
        },
        {
          "indexed": false,
          "internalType": "uint256[]",
          "name": "values",
          "type": "uint256[]"
        }
      ],
      "name": "TransferBatch",
      "type": "event"
    },
    {
      "anonymous": false,
      "inputs": [
        {
          "indexed": true,
          "internalType": "address",
          "name": "operator",
          "type": "address"
        },
        {
          "indexed": true,
          "internalType": "address",
          "name": "from",
          "type": "address"
        },
        {
          "indexed": true,
          "internalType": "address",
          "name": "to",
          "type": "address"
        },
        {
          "indexed": false,
          "internalType": "uint256",
          "name": "id",
          "type": "uint256"
        },
        {
          "indexed": false,
          "internalType": "uint256",
          "name": "value",
          "type": "uint256"
        }
      ],
      "name": "TransferSingle",
      "type": "event"
    },
    {
      "anonymous": false,
      "inputs": [
        {
          "indexed": false,
          "internalType": "string",
          "name": "value",
          "type": "string"
        },
        {
          "indexed": true,
          "internalType": "uint256",
          "name": "id",
          "type": "uint256"
        }
      ],
      "name": "URI",
      "type": "event"
    },
    {
      "anonymous": false,
      "inputs": [
        {
          "indexed": false,
          "internalType": "address",
          "name": "account",
          "type": "address"
        }
      ],
      "name": "Unpaused",
      "type": "event"
    },
    {
      "inputs": [
        {
          "internalType": "string",
          "name": "",
          "type": "string"
        }
      ],
      "name": "achievementTypes",
      "outputs": [
        {
          "internalType": "uint256",
          "name": "tokenId",
          "type": "uint256"
        },
        {
          "internalType": "string",
          "name": "name",
          "type": "string"
        },
        {
          "internalType": "string",
          "name": "uri",
          "type": "string"
        }
      ],
      "stateMutability": "view",
      "type": "function"
    },
    {
      "inputs": [
        {
          "internalType": "string",
          "name": "name",
          "type": "string"
        },
        {
          "internalType": "string",
          "name": "uri",
          "type": "string"
        }
      ],
      "name": "addAchievementType",
      "outputs": [],
      "stateMutability": "nonpayable",
      "type": "function"
    },
    {
      "inputs": [
        {
          "internalType": "address",
          "name": "account",
          "type": "address"
        },
        {
          "internalType": "uint256",
          "name": "id",
          "type": "uint256"
        }
      ],
      "name": "balanceOf",
      "outputs": [
        {
          "internalType": "uint256",
          "name": "",
          "type": "uint256"
        }
      ],
      "stateMutability": "view",
      "type": "function"
    },
    {
      "inputs": [
        {
          "internalType": "address[]",
          "name": "accounts",
          "type": "address[]"
        },
        {
          "internalType": "uint256[]",
          "name": "ids",
          "type": "uint256[]"
        }
      ],
      "name": "balanceOfBatch",
      "outputs": [
        {
          "internalType": "uint256[]",
          "name": "",
          "type": "uint256[]"
        }
      ],
      "stateMutability": "view",
      "type": "function"
    },
    {
      "inputs": [
        {
          "internalType": "uint256",
          "name": "id",
          "type": "uint256"
        }
      ],
      "name": "exists",
      "outputs": [
        {
          "internalType": "bool",
          "name": "",
          "type": "bool"
        }
      ],
      "stateMutability": "view",
      "type": "function"
    },
    {
      "inputs": [
        {
          "internalType": "string",
          "name": "name",
          "type": "string"
        }
      ],
      "name": "getAchievementType",
      "outputs": [
        {
          "components": [
            {
              "internalType": "uint256",
              "name": "tokenId",
              "type": "uint256"
            },
            {
              "internalType": "string",
              "name": "name",
              "type": "string"
            },
            {
              "internalType": "string",
              "name": "uri",
              "type": "string"
            }
          ],
          "internalType": "struct AchievementsToken.AchievementType",
          "name": "",
          "type": "tuple"
        }
      ],
      "stateMutability": "view",
      "type": "function"
    },
    {
      "inputs": [
        {
          "internalType": "address",
          "name": "account",
          "type": "address"
        },
        {
          "internalType": "address",
          "name": "operator",
          "type": "address"
        }
      ],
      "name": "isApprovedForAll",
      "outputs": [
        {
          "internalType": "bool",
          "name": "",
          "type": "bool"
        }
      ],
      "stateMutability": "view",
      "type": "function"
    },
    {
      "inputs": [
        {
          "internalType": "address",
          "name": "account",
          "type": "address"
        },
        {
          "internalType": "uint256",
          "name": "id",
          "type": "uint256"
        },
        {
          "internalType": "uint256",
          "name": "amount",
          "type": "uint256"
        },
        {
          "internalType": "bytes",
          "name": "data",
          "type": "bytes"
        }
      ],
      "name": "mint",
      "outputs": [],
      "stateMutability": "nonpayable",
      "type": "function"
    },
    {
      "inputs": [
        {
          "internalType": "address",
          "name": "to",
          "type": "address"
        },
        {
          "internalType": "uint256[]",
          "name": "ids",
          "type": "uint256[]"
        },
        {
          "internalType": "uint256[]",
          "name": "amounts",
          "type": "uint256[]"
        },
        {
          "internalType": "bytes",
          "name": "data",
          "type": "bytes"
        }
      ],
      "name": "mintBatch",
      "outputs": [],
      "stateMutability": "nonpayable",
      "type": "function"
    },
    {
      "inputs": [],
      "name": "owner",
      "outputs": [
        {
          "internalType": "address",
          "name": "",
          "type": "address"
        }
      ],
      "stateMutability": "view",
      "type": "function"
    },
    {
      "inputs": [],
      "name": "pause",
      "outputs": [],
      "stateMutability": "nonpayable",
      "type": "function"
    },
    {
      "inputs": [],
      "name": "paused",
      "outputs": [
        {
          "internalType": "bool",
          "name": "",
          "type": "bool"
        }
      ],
      "stateMutability": "view",
      "type": "function"
    },
    {
      "inputs": [],
      "name": "renounceOwnership",
      "outputs": [],
      "stateMutability": "nonpayable",
      "type": "function"
    },
    {
      "inputs": [
        {
          "internalType": "address",
          "name": "account",
          "type": "address"
        },
        {
          "internalType": "string",
          "name": "achievementType",
          "type": "string"
        },
        {
          "internalType": "uint256",
          "name": "amount",
          "type": "uint256"
        }
      ],
      "name": "rewardAchievement",
      "outputs": [],
      "stateMutability": "nonpayable",
      "type": "function"
    },
    {
      "inputs": [
        {
          "internalType": "address",
          "name": "from",
          "type": "address"
        },
        {
          "internalType": "address",
          "name": "to",
          "type": "address"
        },
        {
          "internalType": "uint256[]",
          "name": "ids",
          "type": "uint256[]"
        },
        {
          "internalType": "uint256[]",
          "name": "amounts",
          "type": "uint256[]"
        },
        {
          "internalType": "bytes",
          "name": "data",
          "type": "bytes"
        }
      ],
      "name": "safeBatchTransferFrom",
      "outputs": [],
      "stateMutability": "nonpayable",
      "type": "function"
    },
    {
      "inputs": [
        {
          "internalType": "address",
          "name": "from",
          "type": "address"
        },
        {
          "internalType": "address",
          "name": "to",
          "type": "address"
        },
        {
          "internalType": "uint256",
          "name": "id",
          "type": "uint256"
        },
        {
          "internalType": "uint256",
          "name": "amount",
          "type": "uint256"
        },
        {
          "internalType": "bytes",
          "name": "data",
          "type": "bytes"
        }
      ],
      "name": "safeTransferFrom",
      "outputs": [],
      "stateMutability": "nonpayable",
      "type": "function"
    },
    {
      "inputs": [
        {
          "internalType": "address",
          "name": "operator",
          "type": "address"
        },
        {
          "internalType": "bool",
          "name": "approved",
          "type": "bool"
        }
      ],
      "name": "setApprovalForAll",
      "outputs": [],
      "stateMutability": "nonpayable",
      "type": "function"
    },
    {
      "inputs": [
        {
          "internalType": "string",
          "name": "newuri",
          "type": "string"
        }
      ],
      "name": "setURI",
      "outputs": [],
      "stateMutability": "nonpayable",
      "type": "function"
    },
    {
      "inputs": [
        {
          "internalType": "bytes4",
          "name": "interfaceId",
          "type": "bytes4"
        }
      ],
      "name": "supportsInterface",
      "outputs": [
        {
          "internalType": "bool",
          "name": "",
          "type": "bool"
        }
      ],
      "stateMutability": "view",
      "type": "function"
    },
    {
      "inputs": [
        {
          "internalType": "uint256",
          "name": "id",
          "type": "uint256"
        }
      ],
      "name": "totalSupply",
      "outputs": [
        {
          "internalType": "uint256",
          "name": "",
          "type": "uint256"
        }
      ],
      "stateMutability": "view",
      "type": "function"
    },
    {
      "inputs": [
        {
          "internalType": "address",
          "name": "newOwner",
          "type": "address"
        }
      ],
      "name": "transferOwnership",
      "outputs": [],
      "stateMutability": "nonpayable",
      "type": "function"
    },
    {
      "inputs": [],
      "name": "unpause",
      "outputs": [],
      "stateMutability": "nonpayable",
      "type": "function"
    },
    {
      "inputs": [
        {
          "internalType": "uint256",
          "name": "",
          "type": "uint256"
        }
      ],
      "name": "uri",
      "outputs": [
        {
          "internalType": "string",
          "name": "",
          "type": "string"
        }
      ],
      "stateMutability": "view",
      "type": "function"
    }
  ],
  "transactionHash": "0x4dc66e99800b558b7fdb9f1a1ad10730e644367d0da9ea973bd4402e8d327842",
  "args": [
    "0x5FC8d32690cc91D4c39d9d3abcBD16989F875707"
  ],
  "numDeployments": 1,
  "solcInputHash": "c061e29a2ed9c1e4d71a51c3abc30f30",
  "bytecode": "0x60806040523480156200001157600080fd5b5060405162002c2038038062002c208339810160408190526200003491620000dd565b6040805160208101909152600081526200004e8162000079565b506200005a336200008b565b6003805460ff60a01b1916905562000072816200008b565b5062000280565b6002620000878282620001b4565b5050565b600380546001600160a01b038381166001600160a01b0319831681179093556040519116919082907f8be0079c531659141344cd1fd0a4f28419497f9722a3daafe3b4186f6b6457e090600090a35050565b600060208284031215620000f057600080fd5b81516001600160a01b03811681146200010857600080fd5b9392505050565b634e487b7160e01b600052604160045260246000fd5b600181811c908216806200013a57607f821691505b6020821081036200015b57634e487b7160e01b600052602260045260246000fd5b50919050565b601f821115620001af57600081815260208120601f850160051c810160208610156200018a5750805b601f850160051c820191505b81811015620001ab5782815560010162000196565b5050505b505050565b81516001600160401b03811115620001d057620001d06200010f565b620001e881620001e1845462000125565b8462000161565b602080601f831160018114620002205760008415620002075750858301515b600019600386901b1c1916600185901b178555620001ab565b600085815260208120601f198616915b82811015620002515788860151825594840194600190910190840162000230565b5085821015620002705787850151600019600388901b60f8161c191681555b5050505050600190811b01905550565b61299080620002906000396000f3fe608060405234801561001057600080fd5b506004361061018c5760003560e01c80635c975abb116100e3578063b1e703841161008c578063ebaad41211610066578063ebaad41214610393578063f242432a146103a6578063f2fde38b146103b957600080fd5b8063b1e7038414610317578063bd85b03914610337578063e985e9c51461035757600080fd5b80638456cb59116100bd5780638456cb59146102e15780638da5cb5b146102e9578063a22cb4651461030457600080fd5b80635c975abb146102b4578063715018a6146102c6578063731133e9146102ce57600080fd5b80631f7fdffa11610145578063432528a11161011f578063432528a11461025f5780634e1273f4146102725780634f558e791461029257600080fd5b80631f7fdffa146102315780632eb2c2d6146102445780633f4ba83a1461025757600080fd5b806302fe53051161017657806302fe5305146101da5780630e89341c146101ef5780630eef9c7c1461020f57600080fd5b8062fdd58e1461019157806301ffc9a7146101b7575b600080fd5b6101a461019f366004611ea6565b6103cc565b6040519081526020015b60405180910390f35b6101ca6101c5366004611efe565b610478565b60405190151581526020016101ae565b6101ed6101e8366004611fd9565b61055b565b005b6102026101fd366004612016565b61056f565b6040516101ae919061207f565b61022261021d366004611fd9565b610603565b6040516101ae93929190612092565b6101ed61023f36600461215c565b610741565b6101ed6102523660046121f5565b61075b565b6101ed6107fd565b6101ed61026d36600461229f565b61080f565b6102856102803660046122f6565b610844565b6040516101ae91906123fc565b6101ca6102a0366004612016565b600090815260046020526040902054151590565b600354600160a01b900460ff166101ca565b6101ed610982565b6101ed6102dc36600461240f565b610994565b6101ed6109a8565b6003546040516001600160a01b0390911681526020016101ae565b6101ed610312366004612464565b6109b8565b61032a610325366004611fd9565b6109c7565b6040516101ae91906124a0565b6101a4610345366004612016565b60009081526004602052604090205490565b6101ca6103653660046124ec565b6001600160a01b03918216600090815260016020908152604080832093909416825291909152205460ff1690565b6101ed6103a136600461251f565b6109f4565b6101ed6103b4366004612579565b610ae5565b6101ed6103c73660046125de565b610b80565b60006001600160a01b03831661044f5760405162461bcd60e51b815260206004820152602a60248201527f455243313135353a2061646472657373207a65726f206973206e6f742061207660448201527f616c6964206f776e65720000000000000000000000000000000000000000000060648201526084015b60405180910390fd5b506000818152602081815260408083206001600160a01b03861684529091529020545b92915050565b60007fffffffff0000000000000000000000000000000000000000000000000000000082167fd9b67a2600000000000000000000000000000000000000000000000000000000148061050b57507fffffffff0000000000000000000000000000000000000000000000000000000082167f0e89341c00000000000000000000000000000000000000000000000000000000145b8061047257507f01ffc9a7000000000000000000000000000000000000000000000000000000007fffffffff00000000000000000000000000000000000000000000000000000000831614610472565b610563610c0d565b61056c81610c67565b50565b60606002805461057e906125f9565b80601f01602080910402602001604051908101604052809291908181526020018280546105aa906125f9565b80156105f75780601f106105cc576101008083540402835291602001916105f7565b820191906000526020600020905b8154815290600101906020018083116105da57829003601f168201915b50505050509050919050565b805160208183018101805160058252928201919093012091528054600182018054919291610630906125f9565b80601f016020809104026020016040519081016040528092919081815260200182805461065c906125f9565b80156106a95780601f1061067e576101008083540402835291602001916106a9565b820191906000526020600020905b81548152906001019060200180831161068c57829003601f168201915b5050505050908060020180546106be906125f9565b80601f01602080910402602001604051908101604052809291908181526020018280546106ea906125f9565b80156107375780601f1061070c57610100808354040283529160200191610737565b820191906000526020600020905b81548152906001019060200180831161071a57829003601f168201915b5050505050905083565b610749610c0d565b61075584848484610c73565b50505050565b6001600160a01b03851633148061077757506107778533610365565b6107e95760405162461bcd60e51b815260206004820152602e60248201527f455243313135353a2063616c6c6572206973206e6f7420746f6b656e206f776e60448201527f6572206f7220617070726f7665640000000000000000000000000000000000006064820152608401610446565b6107f68585858585610e79565b5050505050565b610805610c0d565b61080d61111d565b565b610817610c0d565b60006108228361118d565b516040805160008152602081019091529091506107559085908390859061138c565b606081518351146108bd5760405162461bcd60e51b815260206004820152602960248201527f455243313135353a206163636f756e747320616e6420696473206c656e67746860448201527f206d69736d6174636800000000000000000000000000000000000000000000006064820152608401610446565b6000835167ffffffffffffffff8111156108d9576108d9611f22565b604051908082528060200260200182016040528015610902578160200160208202803683370190505b50905060005b845181101561097a5761094d85828151811061092657610926612633565b602002602001015185838151811061094057610940612633565b60200260200101516103cc565b82828151811061095f5761095f612633565b60209081029190910101526109738161265f565b9050610908565b509392505050565b61098a610c0d565b61080d60006114cb565b61099c610c0d565b6107558484848461138c565b6109b0610c0d565b61080d611535565b6109c3338383611593565b5050565b6109eb60405180606001604052806000815260200160608152602001606081525090565b6104728261118d565b6109fc610c0d565b600582604051610a0c9190612679565b9081526040519081900360200190205415610a695760405162461bcd60e51b815260206004820152601f60248201527f616368696576656d656e742d747970652d616c72656164792d657869737473006044820152606401610446565b6000610a7460065490565b9050604051806060016040528082815260200184815260200183815250600584604051610aa19190612679565b9081526040516020918190038201902082518155908201516001820190610ac890826126e0565b5060408201516002820190610add90826126e0565b505050505050565b6001600160a01b038516331480610b015750610b018533610365565b610b735760405162461bcd60e51b815260206004820152602e60248201527f455243313135353a2063616c6c6572206973206e6f7420746f6b656e206f776e60448201527f6572206f7220617070726f7665640000000000000000000000000000000000006064820152608401610446565b6107f685858585856116a5565b610b88610c0d565b6001600160a01b038116610c045760405162461bcd60e51b815260206004820152602660248201527f4f776e61626c653a206e6577206f776e657220697320746865207a65726f206160448201527f64647265737300000000000000000000000000000000000000000000000000006064820152608401610446565b61056c816114cb565b6003546001600160a01b0316331461080d5760405162461bcd60e51b815260206004820181905260248201527f4f776e61626c653a2063616c6c6572206973206e6f7420746865206f776e65726044820152606401610446565b60026109c382826126e0565b6001600160a01b038416610cef5760405162461bcd60e51b815260206004820152602160248201527f455243313135353a206d696e7420746f20746865207a65726f2061646472657360448201527f73000000000000000000000000000000000000000000000000000000000000006064820152608401610446565b8151835114610d665760405162461bcd60e51b815260206004820152602860248201527f455243313135353a2069647320616e6420616d6f756e7473206c656e6774682060448201527f6d69736d617463680000000000000000000000000000000000000000000000006064820152608401610446565b33610d7681600087878787611889565b60005b8451811015610e1157838181518110610d9457610d94612633565b6020026020010151600080878481518110610db157610db1612633565b602002602001015181526020019081526020016000206000886001600160a01b03166001600160a01b031681526020019081526020016000206000828254610df991906127a0565b90915550819050610e098161265f565b915050610d79565b50846001600160a01b031660006001600160a01b0316826001600160a01b03167f4a39dc06d4c0dbc64b70af90fd698a233a518aa5d07e595d983b8c0526c8f7fb8787604051610e629291906127b3565b60405180910390a46107f68160008787878761189f565b8151835114610ef05760405162461bcd60e51b815260206004820152602860248201527f455243313135353a2069647320616e6420616d6f756e7473206c656e6774682060448201527f6d69736d617463680000000000000000000000000000000000000000000000006064820152608401610446565b6001600160a01b038416610f6c5760405162461bcd60e51b815260206004820152602560248201527f455243313135353a207472616e7366657220746f20746865207a65726f20616460448201527f64726573730000000000000000000000000000000000000000000000000000006064820152608401610446565b33610f7b818787878787611889565b60005b84518110156110b7576000858281518110610f9b57610f9b612633565b602002602001015190506000858381518110610fb957610fb9612633565b602090810291909101810151600084815280835260408082206001600160a01b038e16835290935291909120549091508181101561105f5760405162461bcd60e51b815260206004820152602a60248201527f455243313135353a20696e73756666696369656e742062616c616e636520666f60448201527f72207472616e73666572000000000000000000000000000000000000000000006064820152608401610446565b6000838152602081815260408083206001600160a01b038e8116855292528083208585039055908b1682528120805484929061109c9084906127a0565b92505081905550505050806110b09061265f565b9050610f7e565b50846001600160a01b0316866001600160a01b0316826001600160a01b03167f4a39dc06d4c0dbc64b70af90fd698a233a518aa5d07e595d983b8c0526c8f7fb87876040516111079291906127b3565b60405180910390a4610add81878787878761189f565b611125611aa3565b600380547fffffffffffffffffffffff00ffffffffffffffffffffffffffffffffffffffff1690557f5db9ee0a495bf2e6ff9c91a7834c1ba4fdd244a5e8aa4e537bd38aeae4b073aa335b6040516001600160a01b03909116815260200160405180910390a1565b6111b160405180606001604052806000815260200160608152602001606081525090565b60006005836040516111c39190612679565b908152602001604051809103902060010180546111df906125f9565b90501161122e5760405162461bcd60e51b815260206004820152601f60248201527f616368696576656d656e742d747970652d646f65732d6e6f742d6578697374006044820152606401610446565b60058260405161123e9190612679565b908152602001604051809103902060405180606001604052908160008201548152602001600182018054611271906125f9565b80601f016020809104026020016040519081016040528092919081815260200182805461129d906125f9565b80156112ea5780601f106112bf576101008083540402835291602001916112ea565b820191906000526020600020905b8154815290600101906020018083116112cd57829003601f168201915b50505050508152602001600282018054611303906125f9565b80601f016020809104026020016040519081016040528092919081815260200182805461132f906125f9565b801561137c5780601f106113515761010080835404028352916020019161137c565b820191906000526020600020905b81548152906001019060200180831161135f57829003601f168201915b5050505050815250509050919050565b6001600160a01b0384166114085760405162461bcd60e51b815260206004820152602160248201527f455243313135353a206d696e7420746f20746865207a65726f2061646472657360448201527f73000000000000000000000000000000000000000000000000000000000000006064820152608401610446565b33600061141485611afc565b9050600061142185611afc565b905061143283600089858589611889565b6000868152602081815260408083206001600160a01b038b168452909152812080548792906114629084906127a0565b909155505060408051878152602081018790526001600160a01b03808a1692600092918716917fc3d58168c5ae7397731d063d5bbf3d657854427343f4c083240f7aacaa2d0f62910160405180910390a46114c283600089898989611b47565b50505050505050565b600380546001600160a01b038381167fffffffffffffffffffffffff0000000000000000000000000000000000000000831681179093556040519116919082907f8be0079c531659141344cd1fd0a4f28419497f9722a3daafe3b4186f6b6457e090600090a35050565b61153d611ca2565b600380547fffffffffffffffffffffff00ffffffffffffffffffffffffffffffffffffffff16600160a01b1790557f62e78cea01bee320cd4e420270b5ea74000d11b0c9f74754ebdbfc544b05a2586111703390565b816001600160a01b0316836001600160a01b03160361161a5760405162461bcd60e51b815260206004820152602960248201527f455243313135353a2073657474696e6720617070726f76616c2073746174757360448201527f20666f722073656c6600000000000000000000000000000000000000000000006064820152608401610446565b6001600160a01b0383811660008181526001602090815260408083209487168084529482529182902080547fffffffffffffffffffffffffffffffffffffffffffffffffffffffffffffff001686151590811790915591519182527f17307eab39ab6107e8899845ad3d59bd9653f200f220920489ca2b5937696c31910160405180910390a3505050565b6001600160a01b0384166117215760405162461bcd60e51b815260206004820152602560248201527f455243313135353a207472616e7366657220746f20746865207a65726f20616460448201527f64726573730000000000000000000000000000000000000000000000000000006064820152608401610446565b33600061172d85611afc565b9050600061173a85611afc565b905061174a838989858589611889565b6000868152602081815260408083206001600160a01b038c168452909152902054858110156117e15760405162461bcd60e51b815260206004820152602a60248201527f455243313135353a20696e73756666696369656e742062616c616e636520666f60448201527f72207472616e73666572000000000000000000000000000000000000000000006064820152608401610446565b6000878152602081815260408083206001600160a01b038d8116855292528083208985039055908a1682528120805488929061181e9084906127a0565b909155505060408051888152602081018890526001600160a01b03808b16928c821692918816917fc3d58168c5ae7397731d063d5bbf3d657854427343f4c083240f7aacaa2d0f62910160405180910390a461187e848a8a8a8a8a611b47565b505050505050505050565b611891611ca2565b610add868686868686611cfc565b6001600160a01b0384163b15610add576040517fbc197c810000000000000000000000000000000000000000000000000000000081526001600160a01b0385169063bc197c81906118fc90899089908890889088906004016127d8565b6020604051808303816000875af1925050508015611937575060408051601f3d908101601f1916820190925261193491810190612836565b60015b6119ec57611943612853565b806308c379a00361197c575061195761286f565b80611962575061197e565b8060405162461bcd60e51b8152600401610446919061207f565b505b60405162461bcd60e51b815260206004820152603460248201527f455243313135353a207472616e7366657220746f206e6f6e2d4552433131353560448201527f526563656976657220696d706c656d656e7465720000000000000000000000006064820152608401610446565b7fffffffff0000000000000000000000000000000000000000000000000000000081167fbc197c8100000000000000000000000000000000000000000000000000000000146114c25760405162461bcd60e51b815260206004820152602860248201527f455243313135353a204552433131353552656365697665722072656a6563746560448201527f6420746f6b656e730000000000000000000000000000000000000000000000006064820152608401610446565b600354600160a01b900460ff1661080d5760405162461bcd60e51b815260206004820152601460248201527f5061757361626c653a206e6f74207061757365640000000000000000000000006044820152606401610446565b60408051600180825281830190925260609160009190602080830190803683370190505090508281600081518110611b3657611b36612633565b602090810291909101015292915050565b6001600160a01b0384163b15610add576040517ff23a6e610000000000000000000000000000000000000000000000000000000081526001600160a01b0385169063f23a6e6190611ba49089908990889088908890600401612917565b6020604051808303816000875af1925050508015611bdf575060408051601f3d908101601f19168201909252611bdc91810190612836565b60015b611beb57611943612853565b7fffffffff0000000000000000000000000000000000000000000000000000000081167ff23a6e6100000000000000000000000000000000000000000000000000000000146114c25760405162461bcd60e51b815260206004820152602860248201527f455243313135353a204552433131353552656365697665722072656a6563746560448201527f6420746f6b656e730000000000000000000000000000000000000000000000006064820152608401610446565b600354600160a01b900460ff161561080d5760405162461bcd60e51b815260206004820152601060248201527f5061757361626c653a20706175736564000000000000000000000000000000006044820152606401610446565b6001600160a01b038516611d835760005b8351811015611d8157828181518110611d2857611d28612633565b602002602001015160046000868481518110611d4657611d46612633565b602002602001015181526020019081526020016000206000828254611d6b91906127a0565b90915550611d7a90508161265f565b9050611d0d565b505b6001600160a01b038416610add5760005b83518110156114c2576000848281518110611db157611db1612633565b602002602001015190506000848381518110611dcf57611dcf612633565b6020026020010151905060006004600084815260200190815260200160002054905081811015611e675760405162461bcd60e51b815260206004820152602860248201527f455243313135353a206275726e20616d6f756e74206578636565647320746f7460448201527f616c537570706c790000000000000000000000000000000000000000000000006064820152608401610446565b60009283526004602052604090922091039055611e838161265f565b9050611d94565b80356001600160a01b0381168114611ea157600080fd5b919050565b60008060408385031215611eb957600080fd5b611ec283611e8a565b946020939093013593505050565b7fffffffff000000000000000000000000000000000000000000000000000000008116811461056c57600080fd5b600060208284031215611f1057600080fd5b8135611f1b81611ed0565b9392505050565b634e487b7160e01b600052604160045260246000fd5b601f19601f830116810181811067ffffffffffffffff82111715611f5e57611f5e611f22565b6040525050565b600082601f830112611f7657600080fd5b813567ffffffffffffffff811115611f9057611f90611f22565b604051611fa76020601f19601f8501160182611f38565b818152846020838601011115611fbc57600080fd5b816020850160208301376000918101602001919091529392505050565b600060208284031215611feb57600080fd5b813567ffffffffffffffff81111561200257600080fd5b61200e84828501611f65565b949350505050565b60006020828403121561202857600080fd5b5035919050565b60005b8381101561204a578181015183820152602001612032565b50506000910152565b6000815180845261206b81602086016020860161202f565b601f01601f19169290920160200192915050565b602081526000611f1b6020830184612053565b8381526060602082015260006120ab6060830185612053565b82810360408401526120bd8185612053565b9695505050505050565b600067ffffffffffffffff8211156120e1576120e1611f22565b5060051b60200190565b600082601f8301126120fc57600080fd5b81356020612109826120c7565b6040516121168282611f38565b83815260059390931b850182019282810191508684111561213657600080fd5b8286015b84811015612151578035835291830191830161213a565b509695505050505050565b6000806000806080858703121561217257600080fd5b61217b85611e8a565b9350602085013567ffffffffffffffff8082111561219857600080fd5b6121a4888389016120eb565b945060408701359150808211156121ba57600080fd5b6121c6888389016120eb565b935060608701359150808211156121dc57600080fd5b506121e987828801611f65565b91505092959194509250565b600080600080600060a0868803121561220d57600080fd5b61221686611e8a565b945061222460208701611e8a565b9350604086013567ffffffffffffffff8082111561224157600080fd5b61224d89838a016120eb565b9450606088013591508082111561226357600080fd5b61226f89838a016120eb565b9350608088013591508082111561228557600080fd5b5061229288828901611f65565b9150509295509295909350565b6000806000606084860312156122b457600080fd5b6122bd84611e8a565b9250602084013567ffffffffffffffff8111156122d957600080fd5b6122e586828701611f65565b925050604084013590509250925092565b6000806040838503121561230957600080fd5b823567ffffffffffffffff8082111561232157600080fd5b818501915085601f83011261233557600080fd5b81356020612342826120c7565b60405161234f8282611f38565b83815260059390931b850182019282810191508984111561236f57600080fd5b948201945b838610156123945761238586611e8a565b82529482019490820190612374565b965050860135925050808211156123aa57600080fd5b506123b7858286016120eb565b9150509250929050565b600081518084526020808501945080840160005b838110156123f1578151875295820195908201906001016123d5565b509495945050505050565b602081526000611f1b60208301846123c1565b6000806000806080858703121561242557600080fd5b61242e85611e8a565b93506020850135925060408501359150606085013567ffffffffffffffff81111561245857600080fd5b6121e987828801611f65565b6000806040838503121561247757600080fd5b61248083611e8a565b91506020830135801515811461249557600080fd5b809150509250929050565b602081528151602082015260006020830151606060408401526124c66080840182612053565b90506040840151601f198483030160608501526124e38282612053565b95945050505050565b600080604083850312156124ff57600080fd5b61250883611e8a565b915061251660208401611e8a565b90509250929050565b6000806040838503121561253257600080fd5b823567ffffffffffffffff8082111561254a57600080fd5b61255686838701611f65565b9350602085013591508082111561256c57600080fd5b506123b785828601611f65565b600080600080600060a0868803121561259157600080fd5b61259a86611e8a565b94506125a860208701611e8a565b93506040860135925060608601359150608086013567ffffffffffffffff8111156125d257600080fd5b61229288828901611f65565b6000602082840312156125f057600080fd5b611f1b82611e8a565b600181811c9082168061260d57607f821691505b60208210810361262d57634e487b7160e01b600052602260045260246000fd5b50919050565b634e487b7160e01b600052603260045260246000fd5b634e487b7160e01b600052601160045260246000fd5b6000600019820361267257612672612649565b5060010190565b6000825161268b81846020870161202f565b9190910192915050565b601f8211156126db57600081815260208120601f850160051c810160208610156126bc5750805b601f850160051c820191505b81811015610add578281556001016126c8565b505050565b815167ffffffffffffffff8111156126fa576126fa611f22565b61270e8161270884546125f9565b84612695565b602080601f831160018114612743576000841561272b5750858301515b600019600386901b1c1916600185901b178555610add565b600085815260208120601f198616915b8281101561277257888601518255948401946001909101908401612753565b50858210156127905787850151600019600388901b60f8161c191681555b5050505050600190811b01905550565b8082018082111561047257610472612649565b6040815260006127c660408301856123c1565b82810360208401526124e381856123c1565b60006001600160a01b03808816835280871660208401525060a0604083015261280460a08301866123c1565b828103606084015261281681866123c1565b9050828103608084015261282a8185612053565b98975050505050505050565b60006020828403121561284857600080fd5b8151611f1b81611ed0565b600060033d111561286c5760046000803e5060005160e01c5b90565b600060443d101561287d5790565b6040517ffffffffffffffffffffffffffffffffffffffffffffffffffffffffffffffffc803d016004833e81513d67ffffffffffffffff81602484011181841117156128cb57505050505090565b82850191508151818111156128e35750505050505090565b843d87010160208285010111156128fd5750505050505090565b61290c60208286010187611f38565b509095945050505050565b60006001600160a01b03808816835280871660208401525084604083015283606083015260a0608083015261294f60a0830184612053565b97965050505050505056fea2646970667358221220e40c67a1493be6d6b230057ce28d63e3563cb0925f989ab41c619514e313445664736f6c63430008110033",
  "devdoc": {
    "kind": "dev",
    "methods": {
      "balanceOf(address,uint256)": {
        "details": "See {IERC1155-balanceOf}. Requirements: - `account` cannot be the zero address."
      },
      "balanceOfBatch(address[],uint256[])": {
        "details": "See {IERC1155-balanceOfBatch}. Requirements: - `accounts` and `ids` must have the same length."
      },
      "exists(uint256)": {
        "details": "Indicates whether any token exist with a given id, or not."
      },
      "isApprovedForAll(address,address)": {
        "details": "See {IERC1155-isApprovedForAll}."
      },
      "owner()": {
        "details": "Returns the address of the current owner."
      },
      "paused()": {
        "details": "Returns true if the contract is paused, and false otherwise."
      },
      "renounceOwnership()": {
        "details": "Leaves the contract without owner. It will not be possible to call `onlyOwner` functions anymore. Can only be called by the current owner. NOTE: Renouncing ownership will leave the contract without an owner, thereby removing any functionality that is only available to the owner."
      },
      "safeBatchTransferFrom(address,address,uint256[],uint256[],bytes)": {
        "details": "See {IERC1155-safeBatchTransferFrom}."
      },
      "safeTransferFrom(address,address,uint256,uint256,bytes)": {
        "details": "See {IERC1155-safeTransferFrom}."
      },
      "setApprovalForAll(address,bool)": {
        "details": "See {IERC1155-setApprovalForAll}."
      },
      "supportsInterface(bytes4)": {
        "details": "See {IERC165-supportsInterface}."
      },
      "totalSupply(uint256)": {
        "details": "Total amount of tokens in with a given id."
      },
      "transferOwnership(address)": {
        "details": "Transfers ownership of the contract to a new account (`newOwner`). Can only be called by the current owner."
      },
      "uri(uint256)": {
        "details": "See {IERC1155MetadataURI-uri}. This implementation returns the same URI for *all* token types. It relies on the token type ID substitution mechanism https://eips.ethereum.org/EIPS/eip-1155#metadata[defined in the EIP]. Clients calling this function must replace the `\\{id\\}` substring with the actual token type ID."
      }
    },
    "version": 1
  },
  "userdoc": {
    "kind": "user",
    "methods": {},
    "version": 1
  },
  "storageLayout": {
    "storage": [
      {
        "astId": 246,
        "contract": "contracts/AchievementsToken.sol:AchievementsToken",
        "label": "_balances",
        "offset": 0,
        "slot": "0",
        "type": "t_mapping(t_uint256,t_mapping(t_address,t_uint256))"
      },
      {
        "astId": 252,
        "contract": "contracts/AchievementsToken.sol:AchievementsToken",
        "label": "_operatorApprovals",
        "offset": 0,
        "slot": "1",
        "type": "t_mapping(t_address,t_mapping(t_address,t_bool))"
      },
      {
        "astId": 254,
        "contract": "contracts/AchievementsToken.sol:AchievementsToken",
        "label": "_uri",
        "offset": 0,
        "slot": "2",
        "type": "t_string_storage"
      },
      {
        "astId": 7,
        "contract": "contracts/AchievementsToken.sol:AchievementsToken",
        "label": "_owner",
        "offset": 0,
        "slot": "3",
        "type": "t_address"
      },
      {
        "astId": 130,
        "contract": "contracts/AchievementsToken.sol:AchievementsToken",
        "label": "_paused",
        "offset": 20,
        "slot": "3",
        "type": "t_bool"
      },
      {
        "astId": 1616,
        "contract": "contracts/AchievementsToken.sol:AchievementsToken",
        "label": "_totalSupply",
        "offset": 0,
        "slot": "4",
        "type": "t_mapping(t_uint256,t_uint256)"
      },
      {
        "astId": 2271,
        "contract": "contracts/AchievementsToken.sol:AchievementsToken",
        "label": "achievementTypes",
        "offset": 0,
        "slot": "5",
        "type": "t_mapping(t_string_memory_ptr,t_struct(AchievementType)2266_storage)"
      },
      {
        "astId": 2274,
        "contract": "contracts/AchievementsToken.sol:AchievementsToken",
        "label": "_tokenIds",
        "offset": 0,
        "slot": "6",
        "type": "t_struct(Counter)2136_storage"
      }
    ],
    "types": {
      "t_address": {
        "encoding": "inplace",
        "label": "address",
        "numberOfBytes": "20"
      },
      "t_bool": {
        "encoding": "inplace",
        "label": "bool",
        "numberOfBytes": "1"
      },
      "t_mapping(t_address,t_bool)": {
        "encoding": "mapping",
        "key": "t_address",
        "label": "mapping(address => bool)",
        "numberOfBytes": "32",
        "value": "t_bool"
      },
      "t_mapping(t_address,t_mapping(t_address,t_bool))": {
        "encoding": "mapping",
        "key": "t_address",
        "label": "mapping(address => mapping(address => bool))",
        "numberOfBytes": "32",
        "value": "t_mapping(t_address,t_bool)"
      },
      "t_mapping(t_address,t_uint256)": {
        "encoding": "mapping",
        "key": "t_address",
        "label": "mapping(address => uint256)",
        "numberOfBytes": "32",
        "value": "t_uint256"
      },
      "t_mapping(t_string_memory_ptr,t_struct(AchievementType)2266_storage)": {
        "encoding": "mapping",
        "key": "t_string_memory_ptr",
        "label": "mapping(string => struct AchievementsToken.AchievementType)",
        "numberOfBytes": "32",
        "value": "t_struct(AchievementType)2266_storage"
      },
      "t_mapping(t_uint256,t_mapping(t_address,t_uint256))": {
        "encoding": "mapping",
        "key": "t_uint256",
        "label": "mapping(uint256 => mapping(address => uint256))",
        "numberOfBytes": "32",
        "value": "t_mapping(t_address,t_uint256)"
      },
      "t_mapping(t_uint256,t_uint256)": {
        "encoding": "mapping",
        "key": "t_uint256",
        "label": "mapping(uint256 => uint256)",
        "numberOfBytes": "32",
        "value": "t_uint256"
      },
      "t_string_memory_ptr": {
        "encoding": "bytes",
        "label": "string",
        "numberOfBytes": "32"
      },
      "t_string_storage": {
        "encoding": "bytes",
        "label": "string",
        "numberOfBytes": "32"
      },
      "t_struct(AchievementType)2266_storage": {
        "encoding": "inplace",
        "label": "struct AchievementsToken.AchievementType",
        "members": [
          {
            "astId": 2261,
            "contract": "contracts/AchievementsToken.sol:AchievementsToken",
            "label": "tokenId",
            "offset": 0,
            "slot": "0",
            "type": "t_uint256"
          },
          {
            "astId": 2263,
            "contract": "contracts/AchievementsToken.sol:AchievementsToken",
            "label": "name",
            "offset": 0,
            "slot": "1",
            "type": "t_string_storage"
          },
          {
            "astId": 2265,
            "contract": "contracts/AchievementsToken.sol:AchievementsToken",
            "label": "uri",
            "offset": 0,
            "slot": "2",
            "type": "t_string_storage"
          }
        ],
        "numberOfBytes": "96"
      },
      "t_struct(Counter)2136_storage": {
        "encoding": "inplace",
        "label": "struct Counters.Counter",
        "members": [
          {
            "astId": 2135,
            "contract": "contracts/AchievementsToken.sol:AchievementsToken",
            "label": "_value",
            "offset": 0,
            "slot": "0",
            "type": "t_uint256"
          }
        ],
        "numberOfBytes": "32"
      },
      "t_uint256": {
        "encoding": "inplace",
        "label": "uint256",
        "numberOfBytes": "32"
      }
    }
  }
}