{
  "address": "0x0165878A594ca255338adfa4d48449f69242Eb8F",
  "abi": [
    {
      "inputs": [
        {
          "internalType": "contract IVotes",
          "name": "_token",
          "type": "address"
        },
        {
          "internalType": "contract SenateGovernor",
          "name": "_senateGovernor",
          "type": "address"
        },
        {
          "internalType": "uint256",
          "name": "_votingDelay",
          "type": "uint256"
        },
        {
          "internalType": "uint256",
          "name": "_votingPeriod",
          "type": "uint256"
        },
        {
          "internalType": "uint256",
          "name": "_quorumPercentage",
          "type": "uint256"
        }
      ],
      "stateMutability": "nonpayable",
      "type": "constructor"
    },
    {
      "inputs": [],
      "name": "Empty",
      "type": "error"
    },
    {
      "anonymous": false,
      "inputs": [
        {
          "indexed": false,
          "internalType": "uint256",
          "name": "proposalId",
          "type": "uint256"
        }
      ],
      "name": "ProposalCanceled",
      "type": "event"
    },
    {
      "anonymous": false,
      "inputs": [
        {
          "indexed": false,
          "internalType": "uint256",
          "name": "proposalId",
          "type": "uint256"
        },
        {
          "indexed": false,
          "internalType": "address",
          "name": "proposer",
          "type": "address"
        },
        {
          "indexed": false,
          "internalType": "address[]",
          "name": "targets",
          "type": "address[]"
        },
        {
          "indexed": false,
          "internalType": "uint256[]",
          "name": "values",
          "type": "uint256[]"
        },
        {
          "indexed": false,
          "internalType": "string[]",
          "name": "signatures",
          "type": "string[]"
        },
        {
          "indexed": false,
          "internalType": "bytes[]",
          "name": "calldatas",
          "type": "bytes[]"
        },
        {
          "indexed": false,
          "internalType": "uint256",
          "name": "startBlock",
          "type": "uint256"
        },
        {
          "indexed": false,
          "internalType": "uint256",
          "name": "endBlock",
          "type": "uint256"
        },
        {
          "indexed": false,
          "internalType": "string",
          "name": "description",
          "type": "string"
        }
      ],
      "name": "ProposalCreated",
      "type": "event"
    },
    {
      "anonymous": false,
      "inputs": [
        {
          "indexed": false,
          "internalType": "uint256",
          "name": "proposalId",
          "type": "uint256"
        }
      ],
      "name": "ProposalExecuted",
      "type": "event"
    },
    {
      "anonymous": false,
      "inputs": [
        {
          "indexed": true,
          "internalType": "uint256",
          "name": "proposalId",
          "type": "uint256"
        }
      ],
      "name": "ProposalForwardedToSenate",
      "type": "event"
    },
    {
      "anonymous": false,
      "inputs": [
        {
          "indexed": false,
          "internalType": "uint256",
          "name": "oldProposalThreshold",
          "type": "uint256"
        },
        {
          "indexed": false,
          "internalType": "uint256",
          "name": "newProposalThreshold",
          "type": "uint256"
        }
      ],
      "name": "ProposalThresholdSet",
      "type": "event"
    },
    {
      "anonymous": false,
      "inputs": [
        {
          "indexed": false,
          "internalType": "uint256",
          "name": "oldQuorumNumerator",
          "type": "uint256"
        },
        {
          "indexed": false,
          "internalType": "uint256",
          "name": "newQuorumNumerator",
          "type": "uint256"
        }
      ],
      "name": "QuorumNumeratorUpdated",
      "type": "event"
    },
    {
      "anonymous": false,
      "inputs": [
        {
          "indexed": true,
          "internalType": "address",
          "name": "voter",
          "type": "address"
        },
        {
          "indexed": false,
          "internalType": "uint256",
          "name": "proposalId",
          "type": "uint256"
        },
        {
          "indexed": false,
          "internalType": "uint8",
          "name": "support",
          "type": "uint8"
        },
        {
          "indexed": false,
          "internalType": "uint256",
          "name": "weight",
          "type": "uint256"
        },
        {
          "indexed": false,
          "internalType": "string",
          "name": "reason",
          "type": "string"
        }
      ],
      "name": "VoteCast",
      "type": "event"
    },
    {
      "anonymous": false,
      "inputs": [
        {
          "indexed": true,
          "internalType": "address",
          "name": "voter",
          "type": "address"
        },
        {
          "indexed": false,
          "internalType": "uint256",
          "name": "proposalId",
          "type": "uint256"
        },
        {
          "indexed": false,
          "internalType": "uint8",
          "name": "support",
          "type": "uint8"
        },
        {
          "indexed": false,
          "internalType": "uint256",
          "name": "weight",
          "type": "uint256"
        },
        {
          "indexed": false,
          "internalType": "string",
          "name": "reason",
          "type": "string"
        },
        {
          "indexed": false,
          "internalType": "bytes",
          "name": "params",
          "type": "bytes"
        }
      ],
      "name": "VoteCastWithParams",
      "type": "event"
    },
    {
      "anonymous": false,
      "inputs": [
        {
          "indexed": false,
          "internalType": "uint256",
          "name": "oldVotingDelay",
          "type": "uint256"
        },
        {
          "indexed": false,
          "internalType": "uint256",
          "name": "newVotingDelay",
          "type": "uint256"
        }
      ],
      "name": "VotingDelaySet",
      "type": "event"
    },
    {
      "anonymous": false,
      "inputs": [
        {
          "indexed": false,
          "internalType": "uint256",
          "name": "oldVotingPeriod",
          "type": "uint256"
        },
        {
          "indexed": false,
          "internalType": "uint256",
          "name": "newVotingPeriod",
          "type": "uint256"
        }
      ],
      "name": "VotingPeriodSet",
      "type": "event"
    },
    {
      "inputs": [],
      "name": "BALLOT_TYPEHASH",
      "outputs": [
        {
          "internalType": "bytes32",
          "name": "",
          "type": "bytes32"
        }
      ],
      "stateMutability": "view",
      "type": "function"
    },
    {
      "inputs": [],
      "name": "COUNTING_MODE",
      "outputs": [
        {
          "internalType": "string",
          "name": "",
          "type": "string"
        }
      ],
      "stateMutability": "pure",
      "type": "function"
    },
    {
      "inputs": [],
      "name": "EXTENDED_BALLOT_TYPEHASH",
      "outputs": [
        {
          "internalType": "bytes32",
          "name": "",
          "type": "bytes32"
        }
      ],
      "stateMutability": "view",
      "type": "function"
    },
    {
      "inputs": [
        {
          "internalType": "uint256",
          "name": "proposalId",
          "type": "uint256"
        },
        {
          "internalType": "uint8",
          "name": "support",
          "type": "uint8"
        }
      ],
      "name": "castVote",
      "outputs": [
        {
          "internalType": "uint256",
          "name": "",
          "type": "uint256"
        }
      ],
      "stateMutability": "nonpayable",
      "type": "function"
    },
    {
      "inputs": [
        {
          "internalType": "uint256",
          "name": "proposalId",
          "type": "uint256"
        },
        {
          "internalType": "uint8",
          "name": "support",
          "type": "uint8"
        },
        {
          "internalType": "uint8",
          "name": "v",
          "type": "uint8"
        },
        {
          "internalType": "bytes32",
          "name": "r",
          "type": "bytes32"
        },
        {
          "internalType": "bytes32",
          "name": "s",
          "type": "bytes32"
        }
      ],
      "name": "castVoteBySig",
      "outputs": [
        {
          "internalType": "uint256",
          "name": "",
          "type": "uint256"
        }
      ],
      "stateMutability": "nonpayable",
      "type": "function"
    },
    {
      "inputs": [
        {
          "internalType": "uint256",
          "name": "proposalId",
          "type": "uint256"
        },
        {
          "internalType": "uint8",
          "name": "support",
          "type": "uint8"
        },
        {
          "internalType": "string",
          "name": "reason",
          "type": "string"
        }
      ],
      "name": "castVoteWithReason",
      "outputs": [
        {
          "internalType": "uint256",
          "name": "",
          "type": "uint256"
        }
      ],
      "stateMutability": "nonpayable",
      "type": "function"
    },
    {
      "inputs": [
        {
          "internalType": "uint256",
          "name": "proposalId",
          "type": "uint256"
        },
        {
          "internalType": "uint8",
          "name": "support",
          "type": "uint8"
        },
        {
          "internalType": "string",
          "name": "reason",
          "type": "string"
        },
        {
          "internalType": "bytes",
          "name": "params",
          "type": "bytes"
        }
      ],
      "name": "castVoteWithReasonAndParams",
      "outputs": [
        {
          "internalType": "uint256",
          "name": "",
          "type": "uint256"
        }
      ],
      "stateMutability": "nonpayable",
      "type": "function"
    },
    {
      "inputs": [
        {
          "internalType": "uint256",
          "name": "proposalId",
          "type": "uint256"
        },
        {
          "internalType": "uint8",
          "name": "support",
          "type": "uint8"
        },
        {
          "internalType": "string",
          "name": "reason",
          "type": "string"
        },
        {
          "internalType": "bytes",
          "name": "params",
          "type": "bytes"
        },
        {
          "internalType": "uint8",
          "name": "v",
          "type": "uint8"
        },
        {
          "internalType": "bytes32",
          "name": "r",
          "type": "bytes32"
        },
        {
          "internalType": "bytes32",
          "name": "s",
          "type": "bytes32"
        }
      ],
      "name": "castVoteWithReasonAndParamsBySig",
      "outputs": [
        {
          "internalType": "uint256",
          "name": "",
          "type": "uint256"
        }
      ],
      "stateMutability": "nonpayable",
      "type": "function"
    },
    {
      "inputs": [
        {
          "internalType": "address[]",
          "name": "targets",
          "type": "address[]"
        },
        {
          "internalType": "uint256[]",
          "name": "values",
          "type": "uint256[]"
        },
        {
          "internalType": "bytes[]",
          "name": "calldatas",
          "type": "bytes[]"
        },
        {
          "internalType": "bytes32",
          "name": "descriptionHash",
          "type": "bytes32"
        }
      ],
      "name": "execute",
      "outputs": [
        {
          "internalType": "uint256",
          "name": "",
          "type": "uint256"
        }
      ],
      "stateMutability": "payable",
      "type": "function"
    },
    {
      "inputs": [
        {
          "internalType": "address",
          "name": "account",
          "type": "address"
        },
        {
          "internalType": "uint256",
          "name": "blockNumber",
          "type": "uint256"
        }
      ],
      "name": "getVotes",
      "outputs": [
        {
          "internalType": "uint256",
          "name": "",
          "type": "uint256"
        }
      ],
      "stateMutability": "view",
      "type": "function"
    },
    {
      "inputs": [
        {
          "internalType": "address",
          "name": "account",
          "type": "address"
        },
        {
          "internalType": "uint256",
          "name": "blockNumber",
          "type": "uint256"
        },
        {
          "internalType": "bytes",
          "name": "params",
          "type": "bytes"
        }
      ],
      "name": "getVotesWithParams",
      "outputs": [
        {
          "internalType": "uint256",
          "name": "",
          "type": "uint256"
        }
      ],
      "stateMutability": "view",
      "type": "function"
    },
    {
      "inputs": [
        {
          "internalType": "uint256",
          "name": "proposalId",
          "type": "uint256"
        },
        {
          "internalType": "address",
          "name": "account",
          "type": "address"
        }
      ],
      "name": "hasVoted",
      "outputs": [
        {
          "internalType": "bool",
          "name": "",
          "type": "bool"
        }
      ],
      "stateMutability": "view",
      "type": "function"
    },
    {
      "inputs": [
        {
          "internalType": "address[]",
          "name": "targets",
          "type": "address[]"
        },
        {
          "internalType": "uint256[]",
          "name": "values",
          "type": "uint256[]"
        },
        {
          "internalType": "bytes[]",
          "name": "calldatas",
          "type": "bytes[]"
        },
        {
          "internalType": "bytes32",
          "name": "descriptionHash",
          "type": "bytes32"
        }
      ],
      "name": "hashProposal",
      "outputs": [
        {
          "internalType": "uint256",
          "name": "",
          "type": "uint256"
        }
      ],
      "stateMutability": "pure",
      "type": "function"
    },
    {
      "inputs": [],
      "name": "name",
      "outputs": [
        {
          "internalType": "string",
          "name": "",
          "type": "string"
        }
      ],
      "stateMutability": "view",
      "type": "function"
    },
    {
      "inputs": [
        {
          "internalType": "address",
          "name": "",
          "type": "address"
        },
        {
          "internalType": "address",
          "name": "",
          "type": "address"
        },
        {
          "internalType": "uint256[]",
          "name": "",
          "type": "uint256[]"
        },
        {
          "internalType": "uint256[]",
          "name": "",
          "type": "uint256[]"
        },
        {
          "internalType": "bytes",
          "name": "",
          "type": "bytes"
        }
      ],
      "name": "onERC1155BatchReceived",
      "outputs": [
        {
          "internalType": "bytes4",
          "name": "",
          "type": "bytes4"
        }
      ],
      "stateMutability": "nonpayable",
      "type": "function"
    },
    {
      "inputs": [
        {
          "internalType": "address",
          "name": "",
          "type": "address"
        },
        {
          "internalType": "address",
          "name": "",
          "type": "address"
        },
        {
          "internalType": "uint256",
          "name": "",
          "type": "uint256"
        },
        {
          "internalType": "uint256",
          "name": "",
          "type": "uint256"
        },
        {
          "internalType": "bytes",
          "name": "",
          "type": "bytes"
        }
      ],
      "name": "onERC1155Received",
      "outputs": [
        {
          "internalType": "bytes4",
          "name": "",
          "type": "bytes4"
        }
      ],
      "stateMutability": "nonpayable",
      "type": "function"
    },
    {
      "inputs": [
        {
          "internalType": "address",
          "name": "",
          "type": "address"
        },
        {
          "internalType": "address",
          "name": "",
          "type": "address"
        },
        {
          "internalType": "uint256",
          "name": "",
          "type": "uint256"
        },
        {
          "internalType": "bytes",
          "name": "",
          "type": "bytes"
        }
      ],
      "name": "onERC721Received",
      "outputs": [
        {
          "internalType": "bytes4",
          "name": "",
          "type": "bytes4"
        }
      ],
      "stateMutability": "nonpayable",
      "type": "function"
    },
    {
      "inputs": [
        {
          "internalType": "uint256",
          "name": "proposalId",
          "type": "uint256"
        }
      ],
      "name": "proposalDeadline",
      "outputs": [
        {
          "internalType": "uint256",
          "name": "",
          "type": "uint256"
        }
      ],
      "stateMutability": "view",
      "type": "function"
    },
    {
      "inputs": [
        {
          "internalType": "uint256",
          "name": "proposalId",
          "type": "uint256"
        }
      ],
      "name": "proposalSnapshot",
      "outputs": [
        {
          "internalType": "uint256",
          "name": "",
          "type": "uint256"
        }
      ],
      "stateMutability": "view",
      "type": "function"
    },
    {
      "inputs": [],
      "name": "proposalThreshold",
      "outputs": [
        {
          "internalType": "uint256",
          "name": "",
          "type": "uint256"
        }
      ],
      "stateMutability": "view",
      "type": "function"
    },
    {
      "inputs": [
        {
          "internalType": "uint256",
          "name": "proposalId",
          "type": "uint256"
        }
      ],
      "name": "proposalVotes",
      "outputs": [
        {
          "internalType": "uint256",
          "name": "againstVotes",
          "type": "uint256"
        },
        {
          "internalType": "uint256",
          "name": "forVotes",
          "type": "uint256"
        },
        {
          "internalType": "uint256",
          "name": "abstainVotes",
          "type": "uint256"
        }
      ],
      "stateMutability": "view",
      "type": "function"
    },
    {
      "inputs": [
        {
          "internalType": "address[]",
          "name": "targets",
          "type": "address[]"
        },
        {
          "internalType": "uint256[]",
          "name": "values",
          "type": "uint256[]"
        },
        {
          "internalType": "bytes[]",
          "name": "calldatas",
          "type": "bytes[]"
        },
        {
          "internalType": "string",
          "name": "description",
          "type": "string"
        }
      ],
      "name": "propose",
      "outputs": [
        {
          "internalType": "uint256",
          "name": "",
          "type": "uint256"
        }
      ],
      "stateMutability": "nonpayable",
      "type": "function"
    },
    {
      "inputs": [
        {
          "internalType": "address[]",
          "name": "targets",
          "type": "address[]"
        },
        {
          "internalType": "uint256[]",
          "name": "values",
          "type": "uint256[]"
        },
        {
          "internalType": "bytes[]",
          "name": "calldatas",
          "type": "bytes[]"
        },
        {
          "internalType": "string",
          "name": "description",
          "type": "string"
        }
      ],
      "name": "queue",
      "outputs": [
        {
          "internalType": "uint256",
          "name": "",
          "type": "uint256"
        }
      ],
      "stateMutability": "nonpayable",
      "type": "function"
    },
    {
      "inputs": [
        {
          "internalType": "uint256",
          "name": "blockNumber",
          "type": "uint256"
        }
      ],
      "name": "quorum",
      "outputs": [
        {
          "internalType": "uint256",
          "name": "",
          "type": "uint256"
        }
      ],
      "stateMutability": "view",
      "type": "function"
    },
    {
      "inputs": [],
      "name": "quorumDenominator",
      "outputs": [
        {
          "internalType": "uint256",
          "name": "",
          "type": "uint256"
        }
      ],
      "stateMutability": "view",
      "type": "function"
    },
    {
      "inputs": [
        {
          "internalType": "uint256",
          "name": "blockNumber",
          "type": "uint256"
        }
      ],
      "name": "quorumNumerator",
      "outputs": [
        {
          "internalType": "uint256",
          "name": "",
          "type": "uint256"
        }
      ],
      "stateMutability": "view",
      "type": "function"
    },
    {
      "inputs": [],
      "name": "quorumNumerator",
      "outputs": [
        {
          "internalType": "uint256",
          "name": "",
          "type": "uint256"
        }
      ],
      "stateMutability": "view",
      "type": "function"
    },
    {
      "inputs": [
        {
          "internalType": "address",
          "name": "target",
          "type": "address"
        },
        {
          "internalType": "uint256",
          "name": "value",
          "type": "uint256"
        },
        {
          "internalType": "bytes",
          "name": "data",
          "type": "bytes"
        }
      ],
      "name": "relay",
      "outputs": [],
      "stateMutability": "payable",
      "type": "function"
    },
    {
      "inputs": [],
      "name": "senate",
      "outputs": [
        {
          "internalType": "address",
          "name": "",
          "type": "address"
        }
      ],
      "stateMutability": "view",
      "type": "function"
    },
    {
      "inputs": [
        {
          "internalType": "uint256",
          "name": "newProposalThreshold",
          "type": "uint256"
        }
      ],
      "name": "setProposalThreshold",
      "outputs": [],
      "stateMutability": "nonpayable",
      "type": "function"
    },
    {
      "inputs": [
        {
          "internalType": "uint256",
          "name": "newVotingDelay",
          "type": "uint256"
        }
      ],
      "name": "setVotingDelay",
      "outputs": [],
      "stateMutability": "nonpayable",
      "type": "function"
    },
    {
      "inputs": [
        {
          "internalType": "uint256",
          "name": "newVotingPeriod",
          "type": "uint256"
        }
      ],
      "name": "setVotingPeriod",
      "outputs": [],
      "stateMutability": "nonpayable",
      "type": "function"
    },
    {
      "inputs": [
        {
          "internalType": "uint256",
          "name": "proposalId",
          "type": "uint256"
        }
      ],
      "name": "state",
      "outputs": [
        {
          "internalType": "enum IGovernor.ProposalState",
          "name": "",
          "type": "uint8"
        }
      ],
      "stateMutability": "view",
      "type": "function"
    },
    {
      "inputs": [
        {
          "internalType": "bytes4",
          "name": "interfaceId",
          "type": "bytes4"
        }
      ],
      "name": "supportsInterface",
      "outputs": [
        {
          "internalType": "bool",
          "name": "",
          "type": "bool"
        }
      ],
      "stateMutability": "view",
      "type": "function"
    },
    {
      "inputs": [],
      "name": "token",
      "outputs": [
        {
          "internalType": "contract IVotes",
          "name": "",
          "type": "address"
        }
      ],
      "stateMutability": "view",
      "type": "function"
    },
    {
      "inputs": [
        {
          "internalType": "uint256",
          "name": "newQuorumNumerator",
          "type": "uint256"
        }
      ],
      "name": "updateQuorumNumerator",
      "outputs": [],
      "stateMutability": "nonpayable",
      "type": "function"
    },
    {
      "inputs": [],
      "name": "version",
      "outputs": [
        {
          "internalType": "string",
          "name": "",
          "type": "string"
        }
      ],
      "stateMutability": "view",
      "type": "function"
    },
    {
      "inputs": [],
      "name": "votingDelay",
      "outputs": [
        {
          "internalType": "uint256",
          "name": "",
          "type": "uint256"
        }
      ],
      "stateMutability": "view",
      "type": "function"
    },
    {
      "inputs": [],
      "name": "votingPeriod",
      "outputs": [
        {
          "internalType": "uint256",
          "name": "",
          "type": "uint256"
        }
      ],
      "stateMutability": "view",
      "type": "function"
    },
    {
      "stateMutability": "payable",
      "type": "receive"
    }
  ],
  "transactionHash": "0x79b8029e14376aabe64f4ddcaa06d85e35aae1bdab24cf25b11d66e9ab1732f0",
  "args": [
    "0x5FbDB2315678afecb367f032d93F642f64180aa3",
    "0xa513E6E4b8f2a923D98304ec87F64353C4D5C853",
    1,
    5,
    4
  ],
  "numDeployments": 1,
  "solcInputHash": "873bf81fa146d958d09c21e8802596ad",
  "bytecode": "0x6101606040523480156200001257600080fd5b5060405162004ed438038062004ed48339810160408190526200003591620007b5565b8085848460006040518060400160405280601081526020016f11dbdd995c9b9bdc90dbdb9d1c9858dd60821b81525080620000756200017e60201b60201c565b815160209283012081519183019190912060e08290526101008190524660a0818152604080517f8b73c3c69bb8fe3d512ecc4cf759cc79239f7b179b0ffacaa9a75d522b39400f818801819052818301969096526060810194909452608080850193909352308483018190528151808603909301835260c094850190915281519190950120905291909152610120526000620001128282620008b2565b506200012090508362000199565b6200012b82620001da565b620001368162000281565b5050506001600160a01b0316610140526200015181620002c2565b5050600a80546001600160a01b0319166001600160a01b03949094169390931790925550620009a6915050565b6040805180820190915260018152603160f81b602082015290565b60045460408051918252602082018390527fc565b045403dc03c2eea82b81a0465edad9e2e7fc4d97e11421c209da93d7a93910160405180910390a1600455565b60008111620002405760405162461bcd60e51b815260206004820152602760248201527f476f7665726e6f7253657474696e67733a20766f74696e6720706572696f6420604482015266746f6f206c6f7760c81b60648201526084015b60405180910390fd5b60055460408051918252602082018390527f7e3f7f0708a84de9203036abaa450dccc85ad5ff52f78c170f3edb55cf5e8828910160405180910390a1600555565b60065460408051918252602082018390527fccb45da8d5717e6c4544694297c4ba5cf151d455c9bb0ed4fc7a38411bc05461910160405180910390a1600655565b6064811115620003475760405162461bcd60e51b815260206004820152604360248201527f476f7665726e6f72566f74657351756f72756d4672616374696f6e3a2071756f60448201527f72756d4e756d657261746f72206f7665722071756f72756d44656e6f6d696e616064820152623a37b960e91b608482015260a40162000237565b6000620003536200043a565b90508015801590620003655750600954155b15620003e05760096000016040518060400160405280600063ffffffff1681526020016200039e846200047260201b620017c71760201c565b6001600160e01b0390811690915282546001810184556000938452602093849020835194909301519091166401000000000263ffffffff909316929092179101555b620003fb826009620004e160201b6200184a1790919060201c565b505060408051828152602081018490527f0553476bf02ef2726e8ce5ced78d63e26e602e4a2257b1f559418e24b4633997910160405180910390a15050565b600954600090156200046b576200045d60096200053460201b620018801760201c565b6001600160e01b0316905090565b5060085490565b60006001600160e01b03821115620004dd5760405162461bcd60e51b815260206004820152602760248201527f53616665436173743a2076616c756520646f65736e27742066697420696e20326044820152663234206269747360c81b606482015260840162000237565b5090565b6000806200051e8460000162000502436200058260201b620018c81760201c565b62000518866200047260201b620017c71760201c565b620005e9565b6001600160e01b03918216969116945092505050565b8054600090801562000578576200056083620005526001846200097e565b600091825260209091200190565b5464010000000090046001600160e01b03166200057b565b60005b9392505050565b600063ffffffff821115620004dd5760405162461bcd60e51b815260206004820152602660248201527f53616665436173743a2076616c756520646f65736e27742066697420696e203360448201526532206269747360d01b606482015260840162000237565b8254600090819080156200073e5760006200060b87620005526001856200097e565b60408051808201909152905463ffffffff8082168084526401000000009092046001600160e01b0316602084015291925090871610156200068f5760405162461bcd60e51b815260206004820152601760248201527f436865636b706f696e743a20696e76616c6964206b6579000000000000000000604482015260640162000237565b805163ffffffff808816911603620006dd5784620006b488620005526001866200097e565b80546001600160e01b03929092166401000000000263ffffffff9092169190911790556200072d565b6040805180820190915263ffffffff80881682526001600160e01b0380881660208085019182528b54600181018d5560008d81529190912094519151909216640100000000029216919091179101555b602001519250839150620007949050565b50506040805180820190915263ffffffff80851682526001600160e01b0380851660208085019182528854600181018a5560008a8152918220955192519093166401000000000291909316179201919091559050815b935093915050565b6001600160a01b0381168114620007b257600080fd5b50565b600080600080600060a08688031215620007ce57600080fd5b8551620007db816200079c565b6020870151909550620007ee816200079c565b6040870151606088015160809098015196999198509695945092505050565b634e487b7160e01b600052604160045260246000fd5b600181811c908216806200083857607f821691505b6020821081036200085957634e487b7160e01b600052602260045260246000fd5b50919050565b601f821115620008ad57600081815260208120601f850160051c81016020861015620008885750805b601f850160051c820191505b81811015620008a95782815560010162000894565b5050505b505050565b81516001600160401b03811115620008ce57620008ce6200080d565b620008e681620008df845462000823565b846200085f565b602080601f8311600181146200091e5760008415620009055750858301515b600019600386901b1c1916600185901b178555620008a9565b600085815260208120601f198616915b828110156200094f578886015182559484019460019091019084016200092e565b50858210156200096e5787850151600019600388901b60f8161c191681555b5050505050600190811b01905550565b81810381811115620009a057634e487b7160e01b600052601160045260246000fd5b92915050565b60805160a05160c05160e0516101005161012051610140516144c562000a0f6000396000818161090c01528181612a400152612bfa01526000612eb201526000612f0101526000612edc01526000612e3501526000612e5f01526000612e8901526144c56000f3fe6080604052600436106102a45760003560e01c80637b3c71d31161016e578063c28bc2fa116100cb578063eb9019d41161007f578063f23a6e6111610064578063f23a6e6114610895578063f8ce560a146108da578063fc0c546a146108fa57600080fd5b8063eb9019d414610855578063ece40cc11461087557600080fd5b8063dd4e2ba5116100b0578063dd4e2ba5146107bb578063deaaa7cc14610801578063ea0217cf1461083557600080fd5b8063c28bc2fa14610788578063c59057e41461079b57600080fd5b8063a6e5b8e611610122578063b58131b011610107578063b58131b01461070e578063bc197c8114610723578063c01f9e371461076857600080fd5b8063a6e5b8e6146106c7578063a7713a70146106f957600080fd5b806397c3d3341161015357806397c3d334146106735780639a802a6d146106875780639fa722f6146106a757600080fd5b80637b3c71d3146106335780637d5e81e21461065357600080fd5b80633932abb11161021c57806354fd4d50116101d05780635f398a14116101b55780635f398a14146105d357806360c4247f146105f357806370b0f6601461061357600080fd5b806354fd4d501461056d57806356781388146105b357600080fd5b80633e4f49e6116102015780633e4f49e6146104a157806343859632146104ce578063544ffc9c1461051857600080fd5b80633932abb11461046c5780633bccf4fd1461048157600080fd5b806306fdde03116102735780632656227d116102585780632656227d146104055780632d63f693146104185780632fe3e2611461043857600080fd5b806306fdde031461036e578063150b7a021461039057600080fd5b806301ffc9a7146102d657806302a251a31461030b578063034201811461032e57806306f3f9e61461034e57600080fd5b366102d157306102bc600a546001600160a01b031690565b6001600160a01b0316146102cf57600080fd5b005b600080fd5b3480156102e257600080fd5b506102f66102f136600461368e565b61092e565b60405190151581526020015b60405180910390f35b34801561031757600080fd5b5061032061093f565b604051908152602001610302565b34801561033a57600080fd5b506103206103493660046137e7565b61094f565b34801561035a57600080fd5b506102cf61036936600461388e565b610a47565b34801561037a57600080fd5b50610383610b02565b60405161030291906138ed565b34801561039c57600080fd5b506103d46103ab366004613917565b7f150b7a0200000000000000000000000000000000000000000000000000000000949350505050565b6040517fffffffff000000000000000000000000000000000000000000000000000000009091168152602001610302565b610320610413366004613af0565b610b94565b34801561042457600080fd5b5061032061043336600461388e565b610cd7565b34801561044457600080fd5b506103207fb3b3f3b703cd84ce352197dcff232b1b5d3cfb2025ce47cf04742d0651f1af8881565b34801561047857600080fd5b50610320610d10565b34801561048d57600080fd5b5061032061049c366004613b80565b610d1b565b3480156104ad57600080fd5b506104c16104bc36600461388e565b610d91565b6040516103029190613be4565b3480156104da57600080fd5b506102f66104e9366004613c0c565b60008281526007602090815260408083206001600160a01b038516845260030190915290205460ff1692915050565b34801561052457600080fd5b5061055261053336600461388e565b6000908152600760205260409020805460018201546002909201549092565b60408051938452602084019290925290820152606001610302565b34801561057957600080fd5b5060408051808201909152600181527f31000000000000000000000000000000000000000000000000000000000000006020820152610383565b3480156105bf57600080fd5b506103206105ce366004613c38565b610f1b565b3480156105df57600080fd5b506103206105ee366004613c5b565b610f3c565b3480156105ff57600080fd5b5061032061060e36600461388e565b610f86565b34801561061f57600080fd5b506102cf61062e36600461388e565b61101e565b34801561063f57600080fd5b5061032061064e366004613cdf565b6110d1565b34801561065f57600080fd5b5061032061066e366004613d39565b611123565b34801561067f57600080fd5b506064610320565b34801561069357600080fd5b506103206106a2366004613dee565b61113a565b3480156106b357600080fd5b506103206106c2366004613d39565b611151565b3480156106d357600080fd5b50600a546001600160a01b03165b6040516001600160a01b039091168152602001610302565b34801561070557600080fd5b5061032061145b565b34801561071a57600080fd5b50610320611485565b34801561072f57600080fd5b506103d461073e366004613e45565b7fbc197c810000000000000000000000000000000000000000000000000000000095945050505050565b34801561077457600080fd5b5061032061078336600461388e565b611490565b6102cf610796366004613ed5565b6114c0565b3480156107a757600080fd5b506103206107b6366004613af0565b6115fb565b3480156107c757600080fd5b506040805180820190915260208082527f737570706f72743d627261766f2671756f72756d3d666f722c6162737461696e90820152610383565b34801561080d57600080fd5b506103207f150214d74d59b7d1e90c73fc22ef3d991dd0a76b046543d4d80ab92d2a50328f81565b34801561084157600080fd5b506102cf61085036600461388e565b611635565b34801561086157600080fd5b50610320610870366004613f17565b6116e8565b34801561088157600080fd5b506102cf61089036600461388e565b611709565b3480156108a157600080fd5b506103d46108b0366004613f41565b7ff23a6e610000000000000000000000000000000000000000000000000000000095945050505050565b3480156108e657600080fd5b506103206108f536600461388e565b6117bc565b34801561090657600080fd5b506106e17f000000000000000000000000000000000000000000000000000000000000000081565b600061093982611944565b92915050565b600061094a60055490565b905090565b6000806109f36109eb7fb3b3f3b703cd84ce352197dcff232b1b5d3cfb2025ce47cf04742d0651f1af888c8c8c8c60405161098b929190613fa6565b60405180910390208b805190602001206040516020016109d0959493929190948552602085019390935260ff9190911660408401526060830152608082015260a00190565b60405160208183030381529060405280519060200120611a73565b868686611adc565b9050610a398a828b8b8b8080601f0160208091040260200160405190810160405280939291908181526020018383808284376000920191909152508d9250611afa915050565b9a9950505050505050505050565b600a546001600160a01b03163314610aa65760405162461bcd60e51b815260206004820152601860248201527f476f7665726e6f723a206f6e6c79476f7665726e616e6365000000000000000060448201526064015b60405180910390fd5b30610ab9600a546001600160a01b031690565b6001600160a01b031614610af65760008036604051610ad9929190613fa6565b604051809103902090505b80610aef6002611cd0565b03610ae457505b610aff81611d8d565b50565b606060008054610b1190613fb6565b80601f0160208091040260200160405190810160405280929190818152602001828054610b3d90613fb6565b8015610b8a5780601f10610b5f57610100808354040283529160200191610b8a565b820191906000526020600020905b815481529060010190602001808311610b6d57829003601f168201915b5050505050905090565b600080610ba3868686866115fb565b90506000610bb082610d91565b90506004816007811115610bc657610bc6613bce565b1480610be357506005816007811115610be157610be1613bce565b145b610c555760405162461bcd60e51b815260206004820152602160248201527f476f7665726e6f723a2070726f706f73616c206e6f742073756363657373667560448201527f6c000000000000000000000000000000000000000000000000000000000000006064820152608401610a9d565b600082815260016020818152604092839020600201805460ff191690921790915590518381527f712ae1383f79ac853f8d882153778e0260ef8f03b504e2866e0593e04d2b291f910160405180910390a1610cb38288888888611ef4565b610cc08288888888611fa0565b610ccd8288888888612032565b5095945050505050565b600081815260016020908152604080832081519283019091525467ffffffffffffffff16908190525b67ffffffffffffffff1692915050565b600061094a60045490565b604080517f150214d74d59b7d1e90c73fc22ef3d991dd0a76b046543d4d80ab92d2a50328f602082015290810186905260ff851660608201526000908190610d69906109eb906080016109d0565b9050610d8687828860405180602001604052806000815250612082565b979650505050505050565b6000610dd26040518060400160405280600c81526020017f73746174652063616c6c65640000000000000000000000000000000000000000815250836120a5565b6000610ddd83612107565b6000848152600b602052604090205490915060ff168015610ec457610e366040518060400160405280601981526020017f71756575656420736f2063616c6c696e672073656e6174746500000000000000815250612513565b600a546040517f3e4f49e6000000000000000000000000000000000000000000000000000000008152600481018690526001600160a01b0390911690633e4f49e690602401602060405180830381865afa158015610e98573d6000803e3d6000fd5b505050506040513d601f19601f82011682018060405250810190610ebc9190613ff0565b949350505050565b610f146040518060400160405280601681526020017f6e6f74207175657565642c2072657475726e696e672000000000000000000000815250836007811115610f0f57610f0f613bce565b6120a5565b5092915050565b600080339050610ebc84828560405180602001604052806000815250612082565b600080339050610d8687828888888080601f0160208091040260200160405190810160405280939291908181526020018383808284376000920191909152508a9250611afa915050565b600954600090808203610f9d575050600854919050565b60006009610fac600184614027565b81548110610fbc57610fbc61403a565b60009182526020918290206040805180820190915291015463ffffffff81168083526401000000009091046001600160e01b0316928201929092529150841061101357602001516001600160e01b03169392505050565b610ebc60098561256f565b600a546001600160a01b031633146110785760405162461bcd60e51b815260206004820152601860248201527f476f7665726e6f723a206f6e6c79476f7665726e616e636500000000000000006044820152606401610a9d565b3061108b600a546001600160a01b031690565b6001600160a01b0316146110c857600080366040516110ab929190613fa6565b604051809103902090505b806110c16002611cd0565b036110b657505b610aff81612622565b60008033905061111986828787878080601f01602080910402602001604051908101604052809392919081815260200183838082843760009201919091525061208292505050565b9695505050505050565b600061113185858585612663565b95945050505050565b60006111478484846129fe565b90505b9392505050565b60006111916040518060400160405280600c81526020017f71756575652063616c6c65640000000000000000000000000000000000000000815250612513565b8151602083012060006111a6878787856115fb565b90506111e76040518060400160405280600281526020017f6964000000000000000000000000000000000000000000000000000000000000815250826120a5565b6112256040518060400160405280600e81526020017f636865636b696e67207374617465000000000000000000000000000000000000815250612513565b600061123082610d91565b9050600581600781111561124657611246613bce565b036112935760405162461bcd60e51b815260206004820152601d60248201527f686f7573652d676f7665726e6f723a616c72656164792d7175657565640000006044820152606401610a9d565b60048160078111156112a7576112a7613bce565b1461131a5760405162461bcd60e51b815260206004820152602960248201527f686f7573652d676f7665726e6f723a70726f706f73616c2d6861732d6e6f742d60448201527f73756363656564656400000000000000000000000000000000000000000000006064820152608401610a9d565b61133b60405180606001604052806026815260200161446a60269139612513565b600a546040517f7d5e81e20000000000000000000000000000000000000000000000000000000081526001600160a01b0390911690637d5e81e29061138a908b908b908b908b90600401614119565b6020604051808303816000875af11580156113a9573d6000803e3d6000fd5b505050506040513d601f19601f820116820180604052508101906113cd9190614166565b506000828152600b6020908152604091829020805460ff191660011790558151808301909252601782527f646f6e652070726f70736f696e6720746f2073656e61650000000000000000009082015261142590612513565b60405182907fa77e52cd545726a93fa2476fd3e0f64f3c292ccc0f67eda851f0ae13fca837e790600090a2509695505050505050565b6009546000901561147e576114706009611880565b6001600160e01b0316905090565b5060085490565b600061094a60065490565b600081815260016020818152604080842081519283019091529091015467ffffffffffffffff1690819052610d00565b600a546001600160a01b0316331461151a5760405162461bcd60e51b815260206004820152601860248201527f476f7665726e6f723a206f6e6c79476f7665726e616e636500000000000000006044820152606401610a9d565b3061152d600a546001600160a01b031690565b6001600160a01b03161461156a576000803660405161154d929190613fa6565b604051809103902090505b806115636002611cd0565b0361155857505b600080856001600160a01b0316858585604051611588929190613fa6565b60006040518083038185875af1925050503d80600081146115c5576040519150601f19603f3d011682016040523d82523d6000602084013e6115ca565b606091505b50915091506115f2828260405180606001604052806028815260200161444260289139612aad565b50505050505050565b600084848484604051602001611614949392919061417f565b60408051601f19818403018152919052805160209091012095945050505050565b600a546001600160a01b0316331461168f5760405162461bcd60e51b815260206004820152601860248201527f476f7665726e6f723a206f6e6c79476f7665726e616e636500000000000000006044820152606401610a9d565b306116a2600a546001600160a01b031690565b6001600160a01b0316146116df57600080366040516116c2929190613fa6565b604051809103902090505b806116d86002611cd0565b036116cd57505b610aff81612ac6565b600061114a838361170460408051602081019091526000815290565b6129fe565b600a546001600160a01b031633146117635760405162461bcd60e51b815260206004820152601860248201527f476f7665726e6f723a206f6e6c79476f7665726e616e636500000000000000006044820152606401610a9d565b30611776600a546001600160a01b031690565b6001600160a01b0316146117b35760008036604051611796929190613fa6565b604051809103902090505b806117ac6002611cd0565b036117a157505b610aff81612b7d565b600061093982612bbe565b60006001600160e01b038211156118465760405162461bcd60e51b815260206004820152602760248201527f53616665436173743a2076616c756520646f65736e27742066697420696e203260448201527f32342062697473000000000000000000000000000000000000000000000000006064820152608401610a9d565b5090565b6000806118688461185a436118c8565b611863866117c7565b612c81565b6001600160e01b0391821693501690505b9250929050565b805460009080156118bf576118a88361189a600184614027565b600091825260209091200190565b5464010000000090046001600160e01b031661114a565b60009392505050565b600063ffffffff8211156118465760405162461bcd60e51b815260206004820152602660248201527f53616665436173743a2076616c756520646f65736e27742066697420696e203360448201527f32206269747300000000000000000000000000000000000000000000000000006064820152608401610a9d565b60007fffffffff0000000000000000000000000000000000000000000000000000000082167fbf26d8970000000000000000000000000000000000000000000000000000000014806119d757507fffffffff0000000000000000000000000000000000000000000000000000000082167f79dd796f00000000000000000000000000000000000000000000000000000000145b80611a2357507fffffffff0000000000000000000000000000000000000000000000000000000082167f4e2312e000000000000000000000000000000000000000000000000000000000145b8061093957507f01ffc9a7000000000000000000000000000000000000000000000000000000007fffffffff00000000000000000000000000000000000000000000000000000000831614610939565b6000610939611a80612e28565b836040517f19010000000000000000000000000000000000000000000000000000000000006020820152602281018390526042810182905260009060620160405160208183030381529060405280519060200120905092915050565b6000806000611aed87878787612f4f565b91509150610ccd81613013565b600085815260016020526040812081611b1288610d91565b9050611b656040518060400160405280600d81526020017f676f7665726e6f7220636173740000000000000000000000000000000000000081525089836007811115611b6057611b60613bce565b613178565b6001816007811115611b7957611b79613bce565b14611bec5760405162461bcd60e51b815260206004820152602360248201527f476f7665726e6f723a20766f7465206e6f742063757272656e746c792061637460448201527f69766500000000000000000000000000000000000000000000000000000000006064820152608401610a9d565b6040805160208101909152825467ffffffffffffffff1690819052600090611c16908990876129fe565b9050611c2589898984896131dd565b8451600003611c7a57876001600160a01b03167fb8e138887d0aa13bab447e82de9d5c1777041ecd21ca36ba824ff1e6c07ddda48a89848a604051611c6d94939291906141ca565b60405180910390a2611cc4565b876001600160a01b03167fe2babfbac5889a709b63bb7f598b324e08bc5a4fb9ec647fb3cbc9ec07eb87128a89848a8a604051611cbb9594939291906141f2565b60405180910390a25b98975050505050505050565b6000611cf88254600f81810b700100000000000000000000000000000000909204900b131590565b15611d2f576040517f3db2a12a00000000000000000000000000000000000000000000000000000000815260040160405180910390fd5b508054600f0b6000818152600180840160205260408220805492905583547fffffffffffffffffffffffffffffffff000000000000000000000000000000001692016fffffffffffffffffffffffffffffffff169190911790915590565b6064811115611e2a5760405162461bcd60e51b815260206004820152604360248201527f476f7665726e6f72566f74657351756f72756d4672616374696f6e3a2071756f60448201527f72756d4e756d657261746f72206f7665722071756f72756d44656e6f6d696e6160648201527f746f720000000000000000000000000000000000000000000000000000000000608482015260a401610a9d565b6000611e3461145b565b90508015801590611e455750600954155b15611eaa57604080518082019091526000815260099060208101611e68846117c7565b6001600160e01b0390811690915282546001810184556000938452602093849020835194909301519091166401000000000263ffffffff909316929092179101555b611eb560098361184a565b505060408051828152602081018490527f0553476bf02ef2726e8ce5ced78d63e26e602e4a2257b1f559418e24b4633997910160405180910390a15050565b30611f07600a546001600160a01b031690565b6001600160a01b031614611f995760005b8451811015611f9757306001600160a01b0316858281518110611f3d57611f3d61403a565b60200260200101516001600160a01b031603611f8757611f87838281518110611f6857611f6861403a565b602002602001015180519060200120600261339390919063ffffffff16565b611f908161422c565b9050611f18565b505b5050505050565b600a546040517f2656227d0000000000000000000000000000000000000000000000000000000081526001600160a01b0390911690632656227d90611fef90879087908790879060040161417f565b6020604051808303816000875af115801561200e573d6000803e3d6000fd5b505050506040513d601f19601f82011682018060405250810190611f979190614166565b30612045600a546001600160a01b031690565b6001600160a01b031614611f9957600254600f81810b700100000000000000000000000000000000909204900b1315611f99576000600255611f99565b6000611131858585856120a060408051602081019091526000815290565b611afa565b61210382826040516024016120bb929190614246565b60408051601f198184030181529190526020810180516001600160e01b03167fb60e72cc000000000000000000000000000000000000000000000000000000001790526133e5565b5050565b60006121476040518060400160405280600981526020017f676f762073746174650000000000000000000000000000000000000000000000815250612513565b6000828152600160209081526040918290208251808401909352600a83527f657865632c2063616e630000000000000000000000000000000000000000000091830191909152600281015490916121a99160ff80821691610100900416613406565b600281015460ff16156121fd576121f46040518060400160405280600881526020017f7265742065786563000000000000000000000000000000000000000000000000815250612513565b50600792915050565b6002810154610100900460ff16156122565761224d6040518060400160405280600c81526020017f7265742063616e63656c65640000000000000000000000000000000000000000815250612513565b50600292915050565b600061226184610cd7565b9050806000036122f1576122a96040518060400160405280600a81526020017f7265742072657665727400000000000000000000000000000000000000000000815250612513565b60405162461bcd60e51b815260206004820152601d60248201527f476f7665726e6f723a20756e6b6e6f776e2070726f706f73616c2069640000006044820152606401610a9d565b438110612340576123366040518060400160405280600b81526020017f7265742070656e64696e67000000000000000000000000000000000000000000815250612513565b5060009392505050565b600061234b85611490565b90506123c36040518060400160405280600881526020017f646561646c696e65000000000000000000000000000000000000000000000000815250826040518060400160405280600581526020017f626c6f636b00000000000000000000000000000000000000000000000000000081525043613466565b438110612413576124086040518060400160405280600a81526020017f7265742061637469766500000000000000000000000000000000000000000000815250612513565b506001949350505050565b6124636040518060400160405280601081526020017f71756f72756d2c20766f65207375636300000000000000000000000000000000815250612455876134ce565b61245e88613505565b613406565b61246c856134ce565b801561247c575061247c85613505565b156124ca576124bf6040518060400160405280600881526020017f7265742073756363000000000000000000000000000000000000000000000000815250612513565b506004949350505050565b6125086040518060400160405280600a81526020017f7265742064656665617400000000000000000000000000000000000000000000815250612513565b506003949350505050565b610aff8160405160240161252791906138ed565b60408051601f198184030181529190526020810180516001600160e01b03167f41304fac000000000000000000000000000000000000000000000000000000001790526133e5565b60004382106125c05760405162461bcd60e51b815260206004820181905260248201527f436865636b706f696e74733a20626c6f636b206e6f7420796574206d696e65646044820152606401610a9d565b60006125cb836118c8565b845490915060006125de8684838561356b565b9050801561260c576125f58661189a600184614027565b5464010000000090046001600160e01b031661260f565b60005b6001600160e01b03169695505050505050565b60045460408051918252602082018390527fc565b045403dc03c2eea82b81a0465edad9e2e7fc4d97e11421c209da93d7a93910160405180910390a1600455565b600061266d611485565b61267c33610870600143614027565b10156126f05760405162461bcd60e51b815260206004820152603160248201527f476f7665726e6f723a2070726f706f73657220766f7465732062656c6f77207060448201527f726f706f73616c207468726573686f6c640000000000000000000000000000006064820152608401610a9d565b600061270586868686805190602001206115fb565b9050845186511461277e5760405162461bcd60e51b815260206004820152602160248201527f476f7665726e6f723a20696e76616c69642070726f706f73616c206c656e677460448201527f68000000000000000000000000000000000000000000000000000000000000006064820152608401610a9d565b83518651146127f55760405162461bcd60e51b815260206004820152602160248201527f476f7665726e6f723a20696e76616c69642070726f706f73616c206c656e677460448201527f68000000000000000000000000000000000000000000000000000000000000006064820152608401610a9d565b60008651116128465760405162461bcd60e51b815260206004820152601860248201527f476f7665726e6f723a20656d7074792070726f706f73616c00000000000000006044820152606401610a9d565b6000818152600160209081526040918290208251918201909252815467ffffffffffffffff1690819052156128e35760405162461bcd60e51b815260206004820152602160248201527f476f7665726e6f723a2070726f706f73616c20616c726561647920657869737460448201527f73000000000000000000000000000000000000000000000000000000000000006064820152608401610a9d565b60006128f56128f0610d10565b6135c9565b6128fe436135c9565b6129089190614268565b905060006129176128f061093f565b6129219083614268565b835467ffffffffffffffff191667ffffffffffffffff8416178455905060018301805467ffffffffffffffff191667ffffffffffffffff83161790557f7d84a6263ae0d98d3329bd7b46bb4e8d6f98cd35a7adb45c274c8b7fd5ebd5e084338b8b8d5167ffffffffffffffff81111561299c5761299c613728565b6040519080825280602002602001820160405280156129cf57816020015b60608152602001906001900390816129ba5790505b508c88888e6040516129e999989796959493929190614289565b60405180910390a15091979650505050505050565b6040517f3a46b1a80000000000000000000000000000000000000000000000000000000081526001600160a01b038481166004830152602482018490526000917f000000000000000000000000000000000000000000000000000000000000000090911690633a46b1a890604401602060405180830381865afa158015612a89573d6000803e3d6000fd5b505050506040513d601f19601f820116820180604052508101906111479190614166565b60608315612abc57508161114a565b61114a8383613649565b60008111612b3c5760405162461bcd60e51b815260206004820152602760248201527f476f7665726e6f7253657474696e67733a20766f74696e6720706572696f642060448201527f746f6f206c6f77000000000000000000000000000000000000000000000000006064820152608401610a9d565b60055460408051918252602082018390527f7e3f7f0708a84de9203036abaa450dccc85ad5ff52f78c170f3edb55cf5e8828910160405180910390a1600555565b60065460408051918252602082018390527fccb45da8d5717e6c4544694297c4ba5cf151d455c9bb0ed4fc7a38411bc05461910160405180910390a1600655565b60006064612bcb83610f86565b6040517f8e539e8c000000000000000000000000000000000000000000000000000000008152600481018590527f00000000000000000000000000000000000000000000000000000000000000006001600160a01b031690638e539e8c90602401602060405180830381865afa158015612c49573d6000803e3d6000fd5b505050506040513d601f19601f82011682018060405250810190612c6d9190614166565b612c77919061437b565b6109399190614392565b825460009081908015612dca576000612c9f8761189a600185614027565b60408051808201909152905463ffffffff8082168084526401000000009092046001600160e01b031660208401529192509087161015612d215760405162461bcd60e51b815260206004820152601760248201527f436865636b706f696e743a20696e76616c6964206b65790000000000000000006044820152606401610a9d565b805163ffffffff808816911603612d6a5784612d428861189a600186614027565b80546001600160e01b03929092166401000000000263ffffffff909216919091179055612dba565b6040805180820190915263ffffffff80881682526001600160e01b0380881660208085019182528b54600181018d5560008d81529190912094519151909216640100000000029216919091179101555b602001519250839150612e209050565b50506040805180820190915263ffffffff80851682526001600160e01b0380851660208085019182528854600181018a5560008a8152918220955192519093166401000000000291909316179201919091559050815b935093915050565b6000306001600160a01b037f000000000000000000000000000000000000000000000000000000000000000016148015612e8157507f000000000000000000000000000000000000000000000000000000000000000046145b15612eab57507f000000000000000000000000000000000000000000000000000000000000000090565b50604080517f00000000000000000000000000000000000000000000000000000000000000006020808301919091527f0000000000000000000000000000000000000000000000000000000000000000828401527f000000000000000000000000000000000000000000000000000000000000000060608301524660808301523060a0808401919091528351808403909101815260c0909201909252805191012090565b6000807f7fffffffffffffffffffffffffffffff5d576e7357a4501ddfe92f46681b20a0831115612f86575060009050600361300a565b6040805160008082526020820180845289905260ff881692820192909252606081018690526080810185905260019060a0016020604051602081039080840390855afa158015612fda573d6000803e3d6000fd5b5050604051601f1901519150506001600160a01b0381166130035760006001925092505061300a565b9150600090505b94509492505050565b600081600481111561302757613027613bce565b0361302f5750565b600181600481111561304357613043613bce565b036130905760405162461bcd60e51b815260206004820152601860248201527f45434453413a20696e76616c6964207369676e617475726500000000000000006044820152606401610a9d565b60028160048111156130a4576130a4613bce565b036130f15760405162461bcd60e51b815260206004820152601f60248201527f45434453413a20696e76616c6964207369676e6174757265206c656e677468006044820152606401610a9d565b600381600481111561310557613105613bce565b03610aff5760405162461bcd60e51b815260206004820152602260248201527f45434453413a20696e76616c6964207369676e6174757265202773272076616c60448201527f75650000000000000000000000000000000000000000000000000000000000006064820152608401610a9d565b6131d8838383604051602401613190939291906143b4565b60408051601f198184030181529190526020810180516001600160e01b03167fca47c4eb000000000000000000000000000000000000000000000000000000001790526133e5565b505050565b60008581526007602090815260408083206001600160a01b0388168452600381019092529091205460ff161561327b5760405162461bcd60e51b815260206004820152602760248201527f476f7665726e6f72566f74696e6753696d706c653a20766f746520616c72656160448201527f64792063617374000000000000000000000000000000000000000000000000006064820152608401610a9d565b6001600160a01b03851660009081526003820160205260409020805460ff1916600117905560ff84166132c757828160000160008282546132bc91906143d9565b90915550611f979050565b60001960ff8516016132e757828160010160008282546132bc91906143d9565b7ffffffffffffffffffffffffffffffffffffffffffffffffffffffffffffffffe60ff85160161332557828160020160008282546132bc91906143d9565b60405162461bcd60e51b815260206004820152603560248201527f476f7665726e6f72566f74696e6753696d706c653a20696e76616c696420766160448201527f6c756520666f7220656e756d20566f74655479706500000000000000000000006064820152608401610a9d565b815470010000000000000000000000000000000090819004600f0b6000818152600180860160205260409091209390935583546fffffffffffffffffffffffffffffffff908116939091011602179055565b80516a636f6e736f6c652e6c6f67602083016000808483855afa5050505050565b6131d883838360405160240161341e939291906143ec565b60408051601f198184030181529190526020810180516001600160e01b03167f850b7ad6000000000000000000000000000000000000000000000000000000001790526133e5565b6134c8848484846040516024016134809493929190614416565b60408051601f198184030181529190526020810180516001600160e01b03167fc67ea9d1000000000000000000000000000000000000000000000000000000001790526133e5565b50505050565b6000818152600760205260408120600281015460018201546134f091906143d9565b6134fc6108f585610cd7565b11159392505050565b60008181526007602090815260408083208151808301909252600982527f766f656520737563630000000000000000000000000000000000000000000000928201929092526001820154825461355c929190613178565b80546001909101541192915050565b60005b818310156135c15760006135828484613673565b60008781526020902090915063ffffffff86169082015463ffffffff1611156135ad578092506135bb565b6135b88160016143d9565b93505b5061356e565b509392505050565b600067ffffffffffffffff8211156118465760405162461bcd60e51b815260206004820152602660248201527f53616665436173743a2076616c756520646f65736e27742066697420696e203660448201527f34206269747300000000000000000000000000000000000000000000000000006064820152608401610a9d565b8151156136595781518083602001fd5b8060405162461bcd60e51b8152600401610a9d91906138ed565b60006136826002848418614392565b61114a908484166143d9565b6000602082840312156136a057600080fd5b81357fffffffff000000000000000000000000000000000000000000000000000000008116811461114a57600080fd5b803560ff811681146136e157600080fd5b919050565b60008083601f8401126136f857600080fd5b50813567ffffffffffffffff81111561371057600080fd5b60208301915083602082850101111561187957600080fd5b634e487b7160e01b600052604160045260246000fd5b604051601f8201601f1916810167ffffffffffffffff8111828210171561376757613767613728565b604052919050565b600067ffffffffffffffff83111561378957613789613728565b61379c6020601f19601f8601160161373e565b90508281528383830111156137b057600080fd5b828260208301376000602084830101529392505050565b600082601f8301126137d857600080fd5b61114a8383356020850161376f565b60008060008060008060008060e0898b03121561380357600080fd5b8835975061381360208a016136d0565b9650604089013567ffffffffffffffff8082111561383057600080fd5b61383c8c838d016136e6565b909850965060608b013591508082111561385557600080fd5b506138628b828c016137c7565b94505061387160808a016136d0565b925060a0890135915060c089013590509295985092959890939650565b6000602082840312156138a057600080fd5b5035919050565b6000815180845260005b818110156138cd576020818501810151868301820152016138b1565b506000602082860101526020601f19601f83011685010191505092915050565b60208152600061114a60208301846138a7565b80356001600160a01b03811681146136e157600080fd5b6000806000806080858703121561392d57600080fd5b61393685613900565b935061394460208601613900565b925060408501359150606085013567ffffffffffffffff81111561396757600080fd5b613973878288016137c7565b91505092959194509250565b600067ffffffffffffffff82111561399957613999613728565b5060051b60200190565b600082601f8301126139b457600080fd5b813560206139c96139c48361397f565b61373e565b82815260059290921b840181019181810190868411156139e857600080fd5b8286015b84811015613a0a576139fd81613900565b83529183019183016139ec565b509695505050505050565b600082601f830112613a2657600080fd5b81356020613a366139c48361397f565b82815260059290921b84018101918181019086841115613a5557600080fd5b8286015b84811015613a0a5780358352918301918301613a59565b600082601f830112613a8157600080fd5b81356020613a916139c48361397f565b82815260059290921b84018101918181019086841115613ab057600080fd5b8286015b84811015613a0a57803567ffffffffffffffff811115613ad45760008081fd5b613ae28986838b01016137c7565b845250918301918301613ab4565b60008060008060808587031215613b0657600080fd5b843567ffffffffffffffff80821115613b1e57600080fd5b613b2a888389016139a3565b95506020870135915080821115613b4057600080fd5b613b4c88838901613a15565b94506040870135915080821115613b6257600080fd5b50613b6f87828801613a70565b949793965093946060013593505050565b600080600080600060a08688031215613b9857600080fd5b85359450613ba8602087016136d0565b9350613bb6604087016136d0565b94979396509394606081013594506080013592915050565b634e487b7160e01b600052602160045260246000fd5b6020810160088310613c0657634e487b7160e01b600052602160045260246000fd5b91905290565b60008060408385031215613c1f57600080fd5b82359150613c2f60208401613900565b90509250929050565b60008060408385031215613c4b57600080fd5b82359150613c2f602084016136d0565b600080600080600060808688031215613c7357600080fd5b85359450613c83602087016136d0565b9350604086013567ffffffffffffffff80821115613ca057600080fd5b613cac89838a016136e6565b90955093506060880135915080821115613cc557600080fd5b50613cd2888289016137c7565b9150509295509295909350565b60008060008060608587031215613cf557600080fd5b84359350613d05602086016136d0565b9250604085013567ffffffffffffffff811115613d2157600080fd5b613d2d878288016136e6565b95989497509550505050565b60008060008060808587031215613d4f57600080fd5b843567ffffffffffffffff80821115613d6757600080fd5b613d73888389016139a3565b95506020870135915080821115613d8957600080fd5b613d9588838901613a15565b94506040870135915080821115613dab57600080fd5b613db788838901613a70565b93506060870135915080821115613dcd57600080fd5b508501601f81018713613ddf57600080fd5b6139738782356020840161376f565b600080600060608486031215613e0357600080fd5b613e0c84613900565b925060208401359150604084013567ffffffffffffffff811115613e2f57600080fd5b613e3b868287016137c7565b9150509250925092565b600080600080600060a08688031215613e5d57600080fd5b613e6686613900565b9450613e7460208701613900565b9350604086013567ffffffffffffffff80821115613e9157600080fd5b613e9d89838a01613a15565b94506060880135915080821115613eb357600080fd5b613ebf89838a01613a15565b93506080880135915080821115613cc557600080fd5b60008060008060608587031215613eeb57600080fd5b613ef485613900565b935060208501359250604085013567ffffffffffffffff811115613d2157600080fd5b60008060408385031215613f2a57600080fd5b613f3383613900565b946020939093013593505050565b600080600080600060a08688031215613f5957600080fd5b613f6286613900565b9450613f7060208701613900565b93506040860135925060608601359150608086013567ffffffffffffffff811115613f9a57600080fd5b613cd2888289016137c7565b8183823760009101908152919050565b600181811c90821680613fca57607f821691505b602082108103613fea57634e487b7160e01b600052602260045260246000fd5b50919050565b60006020828403121561400257600080fd5b81516008811061114a57600080fd5b634e487b7160e01b600052601160045260246000fd5b8181038181111561093957610939614011565b634e487b7160e01b600052603260045260246000fd5b600081518084526020808501945080840160005b838110156140895781516001600160a01b031687529582019590820190600101614064565b509495945050505050565b600081518084526020808501945080840160005b83811015614089578151875295820195908201906001016140a8565b600081518084526020808501808196508360051b8101915082860160005b8581101561410c5782840389526140fa8483516138a7565b988501989350908401906001016140e2565b5091979650505050505050565b60808152600061412c6080830187614050565b828103602084015261413e8187614094565b9050828103604084015261415281866140c4565b90508281036060840152610d8681856138a7565b60006020828403121561417857600080fd5b5051919050565b6080815260006141926080830187614050565b82810360208401526141a48187614094565b905082810360408401526141b881866140c4565b91505082606083015295945050505050565b84815260ff8416602082015282604082015260806060820152600061111960808301846138a7565b85815260ff8516602082015283604082015260a06060820152600061421a60a08301856138a7565b8281036080840152611cc481856138a7565b6000600019820361423f5761423f614011565b5060010190565b60408152600061425960408301856138a7565b90508260208301529392505050565b67ffffffffffffffff818116838216019080821115610f1457610f14614011565b60006101208b835260206001600160a01b038c16818501528160408501526142b38285018c614050565b915083820360608501526142c7828b614094565b915083820360808501528189518084528284019150828160051b850101838c0160005b8381101561431857601f198784030185526143068383516138a7565b948601949250908501906001016142ea565b505086810360a088015261432c818c6140c4565b94505050505061434860c084018767ffffffffffffffff169052565b67ffffffffffffffff851660e084015282810361010084015261436b81856138a7565b9c9b505050505050505050505050565b808202811582820484141761093957610939614011565b6000826143af57634e487b7160e01b600052601260045260246000fd5b500490565b6060815260006143c760608301866138a7565b60208301949094525060400152919050565b8082018082111561093957610939614011565b6060815260006143ff60608301866138a7565b931515602083015250901515604090910152919050565b60808152600061442960808301876138a7565b85602084015282810360408401526141b881866138a756fe476f7665726e6f723a2072656c617920726576657274656420776974686f7574206d65737361676572657175697265207061737365642c2063616c6c696e672073656e6174652070726f706f7365a2646970667358221220cb547bd0c387720cba28b0f5099a086771c1e717b785b9e68c877a56c8a22f5664736f6c63430008110033",
  "devdoc": {
    "errors": {
      "Empty()": [
        {
          "details": "An operation (e.g. {front}) couldn't be completed due to the queue being empty."
        }
      ]
    },
    "events": {
      "ProposalForwardedToSenate(uint256)": {
        "details": "Emitted when a proposal is forwarded to the senate"
      }
    },
    "kind": "dev",
    "methods": {
      "COUNTING_MODE()": {
        "details": "See {IGovernor-COUNTING_MODE}."
      },
      "castVote(uint256,uint8)": {
        "details": "See {IGovernor-castVote}."
      },
      "castVoteBySig(uint256,uint8,uint8,bytes32,bytes32)": {
        "details": "See {IGovernor-castVoteBySig}."
      },
      "castVoteWithReason(uint256,uint8,string)": {
        "details": "See {IGovernor-castVoteWithReason}."
      },
      "castVoteWithReasonAndParams(uint256,uint8,string,bytes)": {
        "details": "See {IGovernor-castVoteWithReasonAndParams}."
      },
      "castVoteWithReasonAndParamsBySig(uint256,uint8,string,bytes,uint8,bytes32,bytes32)": {
        "details": "See {IGovernor-castVoteWithReasonAndParamsBySig}."
      },
      "execute(address[],uint256[],bytes[],bytes32)": {
        "details": "See {IGovernor-execute}."
      },
      "getVotes(address,uint256)": {
        "details": "See {IGovernor-getVotes}."
      },
      "getVotesWithParams(address,uint256,bytes)": {
        "details": "See {IGovernor-getVotesWithParams}."
      },
      "hasVoted(uint256,address)": {
        "details": "See {IGovernor-hasVoted}."
      },
      "hashProposal(address[],uint256[],bytes[],bytes32)": {
        "details": "See {IGovernor-hashProposal}. The proposal id is produced by hashing the ABI encoded `targets` array, the `values` array, the `calldatas` array and the descriptionHash (bytes32 which itself is the keccak256 hash of the description string). This proposal id can be produced from the proposal data which is part of the {ProposalCreated} event. It can even be computed in advance, before the proposal is submitted. Note that the chainId and the governor address are not part of the proposal id computation. Consequently, the same proposal (with same operation and same description) will have the same id if submitted on multiple governors across multiple networks. This also means that in order to execute the same operation twice (on the same governor) the proposer will have to change the description in order to avoid proposal id conflicts."
      },
      "name()": {
        "details": "See {IGovernor-name}."
      },
      "onERC1155BatchReceived(address,address,uint256[],uint256[],bytes)": {
        "details": "See {IERC1155Receiver-onERC1155BatchReceived}."
      },
      "onERC1155Received(address,address,uint256,uint256,bytes)": {
        "details": "See {IERC1155Receiver-onERC1155Received}."
      },
      "onERC721Received(address,address,uint256,bytes)": {
        "details": "See {IERC721Receiver-onERC721Received}."
      },
      "proposalDeadline(uint256)": {
        "details": "See {IGovernor-proposalDeadline}."
      },
      "proposalSnapshot(uint256)": {
        "details": "See {IGovernor-proposalSnapshot}."
      },
      "proposalVotes(uint256)": {
        "details": "Accessor to the internal vote counts."
      },
      "propose(address[],uint256[],bytes[],string)": {
        "details": "See {IGovernor-propose}."
      },
      "queue(address[],uint256[],bytes[],string)": {
        "details": "Function to queue a proposal to the senate. Modification from GovernorTImelockControl: bytes32 descriptionHash => string memory description"
      },
      "quorumDenominator()": {
        "details": "Returns the quorum denominator. Defaults to 100, but may be overridden."
      },
      "quorumNumerator()": {
        "details": "Returns the current quorum numerator. See {quorumDenominator}."
      },
      "quorumNumerator(uint256)": {
        "details": "Returns the quorum numerator at a specific block number. See {quorumDenominator}."
      },
      "relay(address,uint256,bytes)": {
        "details": "Relays a transaction or function call to an arbitrary target. In cases where the governance executor is some contract other than the governor itself, like when using a timelock, this function can be invoked in a governance proposal to recover tokens or Ether that was sent to the governor contract by mistake. Note that if the executor is simply the governor itself, use of `relay` is redundant."
      },
      "senate()": {
        "details": "Public accessor to check the address of the senate"
      },
      "setProposalThreshold(uint256)": {
        "details": "Update the proposal threshold. This operation can only be performed through a governance proposal. Emits a {ProposalThresholdSet} event."
      },
      "setVotingDelay(uint256)": {
        "details": "Update the voting delay. This operation can only be performed through a governance proposal. Emits a {VotingDelaySet} event."
      },
      "setVotingPeriod(uint256)": {
        "details": "Update the voting period. This operation can only be performed through a governance proposal. Emits a {VotingPeriodSet} event."
      },
      "state(uint256)": {
        "details": "Overridden version of {Governor-state} function with added support for the `InSenate` and `Queued` status."
      },
      "supportsInterface(bytes4)": {
        "details": "See {IERC165-supportsInterface}."
      },
      "updateQuorumNumerator(uint256)": {
        "details": "Changes the quorum numerator. Emits a {QuorumNumeratorUpdated} event. Requirements: - Must be called through a governance proposal. - New numerator must be smaller or equal to the denominator."
      },
      "version()": {
        "details": "See {IGovernor-version}."
      }
    },
    "version": 1
  },
  "userdoc": {
    "kind": "user",
    "methods": {},
    "version": 1
  },
  "storageLayout": {
    "storage": [
      {
        "astId": 449,
        "contract": "contracts/parliament/HouseGovernor.sol:HouseGovernor",
        "label": "_name",
        "offset": 0,
        "slot": "0",
        "type": "t_string_storage"
      },
      {
        "astId": 454,
        "contract": "contracts/parliament/HouseGovernor.sol:HouseGovernor",
        "label": "_proposals",
        "offset": 0,
        "slot": "1",
        "type": "t_mapping(t_uint256,t_struct(ProposalCore)447_storage)"
      },
      {
        "astId": 457,
        "contract": "contracts/parliament/HouseGovernor.sol:HouseGovernor",
        "label": "_governanceCall",
        "offset": 0,
        "slot": "2",
        "type": "t_struct(Bytes32Deque)9363_storage"
      },
      {
        "astId": 3249,
        "contract": "contracts/parliament/HouseGovernor.sol:HouseGovernor",
        "label": "_votingDelay",
        "offset": 0,
        "slot": "4",
        "type": "t_uint256"
      },
      {
        "astId": 3251,
        "contract": "contracts/parliament/HouseGovernor.sol:HouseGovernor",
        "label": "_votingPeriod",
        "offset": 0,
        "slot": "5",
        "type": "t_uint256"
      },
      {
        "astId": 3253,
        "contract": "contracts/parliament/HouseGovernor.sol:HouseGovernor",
        "label": "_proposalThreshold",
        "offset": 0,
        "slot": "6",
        "type": "t_uint256"
      },
      {
        "astId": 3031,
        "contract": "contracts/parliament/HouseGovernor.sol:HouseGovernor",
        "label": "_proposalVotes",
        "offset": 0,
        "slot": "7",
        "type": "t_mapping(t_uint256,t_struct(ProposalVote)3026_storage)"
      },
      {
        "astId": 3911,
        "contract": "contracts/parliament/HouseGovernor.sol:HouseGovernor",
        "label": "_quorumNumerator",
        "offset": 0,
        "slot": "8",
        "type": "t_uint256"
      },
      {
        "astId": 3914,
        "contract": "contracts/parliament/HouseGovernor.sol:HouseGovernor",
        "label": "_quorumNumeratorHistory",
        "offset": 0,
        "slot": "9",
        "type": "t_struct(History)4618_storage"
      },
      {
        "astId": 9707,
        "contract": "contracts/parliament/HouseGovernor.sol:HouseGovernor",
        "label": "senateGovernor",
        "offset": 0,
        "slot": "10",
        "type": "t_contract(SenateGovernor)10538"
      },
      {
        "astId": 9711,
        "contract": "contracts/parliament/HouseGovernor.sol:HouseGovernor",
        "label": "forwardedProposalIds",
        "offset": 0,
        "slot": "11",
        "type": "t_mapping(t_uint256,t_bool)"
      }
    ],
    "types": {
      "t_address": {
        "encoding": "inplace",
        "label": "address",
        "numberOfBytes": "20"
      },
      "t_array(t_struct(Checkpoint)4623_storage)dyn_storage": {
        "base": "t_struct(Checkpoint)4623_storage",
        "encoding": "dynamic_array",
        "label": "struct Checkpoints.Checkpoint[]",
        "numberOfBytes": "32"
      },
      "t_bool": {
        "encoding": "inplace",
        "label": "bool",
        "numberOfBytes": "1"
      },
      "t_bytes32": {
        "encoding": "inplace",
        "label": "bytes32",
        "numberOfBytes": "32"
      },
      "t_contract(SenateGovernor)10538": {
        "encoding": "inplace",
        "label": "contract SenateGovernor",
        "numberOfBytes": "20"
      },
      "t_int128": {
        "encoding": "inplace",
        "label": "int128",
        "numberOfBytes": "16"
      },
      "t_mapping(t_address,t_bool)": {
        "encoding": "mapping",
        "key": "t_address",
        "label": "mapping(address => bool)",
        "numberOfBytes": "32",
        "value": "t_bool"
      },
      "t_mapping(t_int128,t_bytes32)": {
        "encoding": "mapping",
        "key": "t_int128",
        "label": "mapping(int128 => bytes32)",
        "numberOfBytes": "32",
        "value": "t_bytes32"
      },
      "t_mapping(t_uint256,t_bool)": {
        "encoding": "mapping",
        "key": "t_uint256",
        "label": "mapping(uint256 => bool)",
        "numberOfBytes": "32",
        "value": "t_bool"
      },
      "t_mapping(t_uint256,t_struct(ProposalCore)447_storage)": {
        "encoding": "mapping",
        "key": "t_uint256",
        "label": "mapping(uint256 => struct Governor.ProposalCore)",
        "numberOfBytes": "32",
        "value": "t_struct(ProposalCore)447_storage"
      },
      "t_mapping(t_uint256,t_struct(ProposalVote)3026_storage)": {
        "encoding": "mapping",
        "key": "t_uint256",
        "label": "mapping(uint256 => struct GovernorCountingSimple.ProposalVote)",
        "numberOfBytes": "32",
        "value": "t_struct(ProposalVote)3026_storage"
      },
      "t_string_storage": {
        "encoding": "bytes",
        "label": "string",
        "numberOfBytes": "32"
      },
      "t_struct(BlockNumber)6284_storage": {
        "encoding": "inplace",
        "label": "struct Timers.BlockNumber",
        "members": [
          {
            "astId": 6283,
            "contract": "contracts/parliament/HouseGovernor.sol:HouseGovernor",
            "label": "_deadline",
            "offset": 0,
            "slot": "0",
            "type": "t_uint64"
          }
        ],
        "numberOfBytes": "32"
      },
      "t_struct(Bytes32Deque)9363_storage": {
        "encoding": "inplace",
        "label": "struct DoubleEndedQueue.Bytes32Deque",
        "members": [
          {
            "astId": 9356,
            "contract": "contracts/parliament/HouseGovernor.sol:HouseGovernor",
            "label": "_begin",
            "offset": 0,
            "slot": "0",
            "type": "t_int128"
          },
          {
            "astId": 9358,
            "contract": "contracts/parliament/HouseGovernor.sol:HouseGovernor",
            "label": "_end",
            "offset": 16,
            "slot": "0",
            "type": "t_int128"
          },
          {
            "astId": 9362,
            "contract": "contracts/parliament/HouseGovernor.sol:HouseGovernor",
            "label": "_data",
            "offset": 0,
            "slot": "1",
            "type": "t_mapping(t_int128,t_bytes32)"
          }
        ],
        "numberOfBytes": "64"
      },
      "t_struct(Checkpoint)4623_storage": {
        "encoding": "inplace",
        "label": "struct Checkpoints.Checkpoint",
        "members": [
          {
            "astId": 4620,
            "contract": "contracts/parliament/HouseGovernor.sol:HouseGovernor",
            "label": "_blockNumber",
            "offset": 0,
            "slot": "0",
            "type": "t_uint32"
          },
          {
            "astId": 4622,
            "contract": "contracts/parliament/HouseGovernor.sol:HouseGovernor",
            "label": "_value",
            "offset": 4,
            "slot": "0",
            "type": "t_uint224"
          }
        ],
        "numberOfBytes": "32"
      },
      "t_struct(History)4618_storage": {
        "encoding": "inplace",
        "label": "struct Checkpoints.History",
        "members": [
          {
            "astId": 4617,
            "contract": "contracts/parliament/HouseGovernor.sol:HouseGovernor",
            "label": "_checkpoints",
            "offset": 0,
            "slot": "0",
            "type": "t_array(t_struct(Checkpoint)4623_storage)dyn_storage"
          }
        ],
        "numberOfBytes": "32"
      },
      "t_struct(ProposalCore)447_storage": {
        "encoding": "inplace",
        "label": "struct Governor.ProposalCore",
        "members": [
          {
            "astId": 439,
            "contract": "contracts/parliament/HouseGovernor.sol:HouseGovernor",
            "label": "voteStart",
            "offset": 0,
            "slot": "0",
            "type": "t_struct(BlockNumber)6284_storage"
          },
          {
            "astId": 442,
            "contract": "contracts/parliament/HouseGovernor.sol:HouseGovernor",
            "label": "voteEnd",
            "offset": 0,
            "slot": "1",
            "type": "t_struct(BlockNumber)6284_storage"
          },
          {
            "astId": 444,
            "contract": "contracts/parliament/HouseGovernor.sol:HouseGovernor",
            "label": "executed",
            "offset": 0,
            "slot": "2",
            "type": "t_bool"
          },
          {
            "astId": 446,
            "contract": "contracts/parliament/HouseGovernor.sol:HouseGovernor",
            "label": "canceled",
            "offset": 1,
            "slot": "2",
            "type": "t_bool"
          }
        ],
        "numberOfBytes": "96"
      },
      "t_struct(ProposalVote)3026_storage": {
        "encoding": "inplace",
        "label": "struct GovernorCountingSimple.ProposalVote",
        "members": [
          {
            "astId": 3017,
            "contract": "contracts/parliament/HouseGovernor.sol:HouseGovernor",
            "label": "againstVotes",
            "offset": 0,
            "slot": "0",
            "type": "t_uint256"
          },
          {
            "astId": 3019,
            "contract": "contracts/parliament/HouseGovernor.sol:HouseGovernor",
            "label": "forVotes",
            "offset": 0,
            "slot": "1",
            "type": "t_uint256"
          },
          {
            "astId": 3021,
            "contract": "contracts/parliament/HouseGovernor.sol:HouseGovernor",
            "label": "abstainVotes",
            "offset": 0,
            "slot": "2",
            "type": "t_uint256"
          },
          {
            "astId": 3025,
            "contract": "contracts/parliament/HouseGovernor.sol:HouseGovernor",
            "label": "hasVoted",
            "offset": 0,
            "slot": "3",
            "type": "t_mapping(t_address,t_bool)"
          }
        ],
        "numberOfBytes": "128"
      },
      "t_uint224": {
        "encoding": "inplace",
        "label": "uint224",
        "numberOfBytes": "28"
      },
      "t_uint256": {
        "encoding": "inplace",
        "label": "uint256",
        "numberOfBytes": "32"
      },
      "t_uint32": {
        "encoding": "inplace",
        "label": "uint32",
        "numberOfBytes": "4"
      },
      "t_uint64": {
        "encoding": "inplace",
        "label": "uint64",
        "numberOfBytes": "8"
      }
    }
  }
}