{
  "address": "0xa513E6E4b8f2a923D98304ec87F64353C4D5C853",
  "abi": [
    {
      "inputs": [
        {
          "internalType": "contract IVotes",
          "name": "_token",
          "type": "address"
        },
        {
          "internalType": "contract TimelockController",
          "name": "_timelock",
          "type": "address"
        },
        {
          "internalType": "uint256",
          "name": "_votingDelay",
          "type": "uint256"
        },
        {
          "internalType": "uint256",
          "name": "_votingPeriod",
          "type": "uint256"
        },
        {
          "internalType": "uint256",
          "name": "_quorumPercentage",
          "type": "uint256"
        },
        {
          "internalType": "contract HouseGovernor",
          "name": "_house",
          "type": "address"
        },
        {
          "internalType": "address",
          "name": "_president",
          "type": "address"
        },
        {
          "internalType": "bool",
          "name": "presidentDeposable",
          "type": "bool"
        }
      ],
      "stateMutability": "nonpayable",
      "type": "constructor"
    },
    {
      "inputs": [],
      "name": "Empty",
      "type": "error"
    },
    {
      "anonymous": false,
      "inputs": [
        {
          "indexed": false,
          "internalType": "uint256",
          "name": "proposalId",
          "type": "uint256"
        }
      ],
      "name": "ProposalCanceled",
      "type": "event"
    },
    {
      "anonymous": false,
      "inputs": [
        {
          "indexed": false,
          "internalType": "uint256",
          "name": "proposalId",
          "type": "uint256"
        },
        {
          "indexed": false,
          "internalType": "address",
          "name": "proposer",
          "type": "address"
        },
        {
          "indexed": false,
          "internalType": "address[]",
          "name": "targets",
          "type": "address[]"
        },
        {
          "indexed": false,
          "internalType": "uint256[]",
          "name": "values",
          "type": "uint256[]"
        },
        {
          "indexed": false,
          "internalType": "string[]",
          "name": "signatures",
          "type": "string[]"
        },
        {
          "indexed": false,
          "internalType": "bytes[]",
          "name": "calldatas",
          "type": "bytes[]"
        },
        {
          "indexed": false,
          "internalType": "uint256",
          "name": "startBlock",
          "type": "uint256"
        },
        {
          "indexed": false,
          "internalType": "uint256",
          "name": "endBlock",
          "type": "uint256"
        },
        {
          "indexed": false,
          "internalType": "string",
          "name": "description",
          "type": "string"
        }
      ],
      "name": "ProposalCreated",
      "type": "event"
    },
    {
      "anonymous": false,
      "inputs": [
        {
          "indexed": false,
          "internalType": "uint256",
          "name": "proposalId",
          "type": "uint256"
        }
      ],
      "name": "ProposalExecuted",
      "type": "event"
    },
    {
      "anonymous": false,
      "inputs": [
        {
          "indexed": false,
          "internalType": "uint256",
          "name": "proposalId",
          "type": "uint256"
        },
        {
          "indexed": false,
          "internalType": "uint256",
          "name": "eta",
          "type": "uint256"
        }
      ],
      "name": "ProposalQueued",
      "type": "event"
    },
    {
      "anonymous": false,
      "inputs": [
        {
          "indexed": false,
          "internalType": "uint256",
          "name": "oldProposalThreshold",
          "type": "uint256"
        },
        {
          "indexed": false,
          "internalType": "uint256",
          "name": "newProposalThreshold",
          "type": "uint256"
        }
      ],
      "name": "ProposalThresholdSet",
      "type": "event"
    },
    {
      "anonymous": false,
      "inputs": [
        {
          "indexed": true,
          "internalType": "uint256",
          "name": "proposalId",
          "type": "uint256"
        },
        {
          "indexed": false,
          "internalType": "string",
          "name": "reason",
          "type": "string"
        },
        {
          "indexed": false,
          "internalType": "address",
          "name": "president",
          "type": "address"
        }
      ],
      "name": "ProposalVetoed",
      "type": "event"
    },
    {
      "anonymous": false,
      "inputs": [
        {
          "indexed": false,
          "internalType": "uint256",
          "name": "oldQuorumNumerator",
          "type": "uint256"
        },
        {
          "indexed": false,
          "internalType": "uint256",
          "name": "newQuorumNumerator",
          "type": "uint256"
        }
      ],
      "name": "QuorumNumeratorUpdated",
      "type": "event"
    },
    {
      "anonymous": false,
      "inputs": [
        {
          "indexed": true,
          "internalType": "bytes32",
          "name": "role",
          "type": "bytes32"
        },
        {
          "indexed": true,
          "internalType": "bytes32",
          "name": "previousAdminRole",
          "type": "bytes32"
        },
        {
          "indexed": true,
          "internalType": "bytes32",
          "name": "newAdminRole",
          "type": "bytes32"
        }
      ],
      "name": "RoleAdminChanged",
      "type": "event"
    },
    {
      "anonymous": false,
      "inputs": [
        {
          "indexed": true,
          "internalType": "bytes32",
          "name": "role",
          "type": "bytes32"
        },
        {
          "indexed": true,
          "internalType": "address",
          "name": "account",
          "type": "address"
        },
        {
          "indexed": true,
          "internalType": "address",
          "name": "sender",
          "type": "address"
        }
      ],
      "name": "RoleGranted",
      "type": "event"
    },
    {
      "anonymous": false,
      "inputs": [
        {
          "indexed": true,
          "internalType": "bytes32",
          "name": "role",
          "type": "bytes32"
        },
        {
          "indexed": true,
          "internalType": "address",
          "name": "account",
          "type": "address"
        },
        {
          "indexed": true,
          "internalType": "address",
          "name": "sender",
          "type": "address"
        }
      ],
      "name": "RoleRevoked",
      "type": "event"
    },
    {
      "anonymous": false,
      "inputs": [
        {
          "indexed": false,
          "internalType": "address",
          "name": "oldTimelock",
          "type": "address"
        },
        {
          "indexed": false,
          "internalType": "address",
          "name": "newTimelock",
          "type": "address"
        }
      ],
      "name": "TimelockChange",
      "type": "event"
    },
    {
      "anonymous": false,
      "inputs": [
        {
          "indexed": true,
          "internalType": "address",
          "name": "voter",
          "type": "address"
        },
        {
          "indexed": false,
          "internalType": "uint256",
          "name": "proposalId",
          "type": "uint256"
        },
        {
          "indexed": false,
          "internalType": "uint8",
          "name": "support",
          "type": "uint8"
        },
        {
          "indexed": false,
          "internalType": "uint256",
          "name": "weight",
          "type": "uint256"
        },
        {
          "indexed": false,
          "internalType": "string",
          "name": "reason",
          "type": "string"
        }
      ],
      "name": "VoteCast",
      "type": "event"
    },
    {
      "anonymous": false,
      "inputs": [
        {
          "indexed": true,
          "internalType": "address",
          "name": "voter",
          "type": "address"
        },
        {
          "indexed": false,
          "internalType": "uint256",
          "name": "proposalId",
          "type": "uint256"
        },
        {
          "indexed": false,
          "internalType": "uint8",
          "name": "support",
          "type": "uint8"
        },
        {
          "indexed": false,
          "internalType": "uint256",
          "name": "weight",
          "type": "uint256"
        },
        {
          "indexed": false,
          "internalType": "string",
          "name": "reason",
          "type": "string"
        },
        {
          "indexed": false,
          "internalType": "bytes",
          "name": "params",
          "type": "bytes"
        }
      ],
      "name": "VoteCastWithParams",
      "type": "event"
    },
    {
      "anonymous": false,
      "inputs": [
        {
          "indexed": false,
          "internalType": "uint256",
          "name": "oldVotingDelay",
          "type": "uint256"
        },
        {
          "indexed": false,
          "internalType": "uint256",
          "name": "newVotingDelay",
          "type": "uint256"
        }
      ],
      "name": "VotingDelaySet",
      "type": "event"
    },
    {
      "anonymous": false,
      "inputs": [
        {
          "indexed": false,
          "internalType": "uint256",
          "name": "oldVotingPeriod",
          "type": "uint256"
        },
        {
          "indexed": false,
          "internalType": "uint256",
          "name": "newVotingPeriod",
          "type": "uint256"
        }
      ],
      "name": "VotingPeriodSet",
      "type": "event"
    },
    {
      "inputs": [],
      "name": "BALLOT_TYPEHASH",
      "outputs": [
        {
          "internalType": "bytes32",
          "name": "",
          "type": "bytes32"
        }
      ],
      "stateMutability": "view",
      "type": "function"
    },
    {
      "inputs": [],
      "name": "COUNTING_MODE",
      "outputs": [
        {
          "internalType": "string",
          "name": "",
          "type": "string"
        }
      ],
      "stateMutability": "pure",
      "type": "function"
    },
    {
      "inputs": [],
      "name": "DEFAULT_ADMIN_ROLE",
      "outputs": [
        {
          "internalType": "bytes32",
          "name": "",
          "type": "bytes32"
        }
      ],
      "stateMutability": "view",
      "type": "function"
    },
    {
      "inputs": [],
      "name": "EXTENDED_BALLOT_TYPEHASH",
      "outputs": [
        {
          "internalType": "bytes32",
          "name": "",
          "type": "bytes32"
        }
      ],
      "stateMutability": "view",
      "type": "function"
    },
    {
      "inputs": [],
      "name": "GOVERNANCE_ROLE",
      "outputs": [
        {
          "internalType": "bytes32",
          "name": "",
          "type": "bytes32"
        }
      ],
      "stateMutability": "view",
      "type": "function"
    },
    {
      "inputs": [],
      "name": "HOUSE_ROLE",
      "outputs": [
        {
          "internalType": "bytes32",
          "name": "",
          "type": "bytes32"
        }
      ],
      "stateMutability": "view",
      "type": "function"
    },
    {
      "inputs": [],
      "name": "PRESIDENT_ROLE",
      "outputs": [
        {
          "internalType": "bytes32",
          "name": "",
          "type": "bytes32"
        }
      ],
      "stateMutability": "view",
      "type": "function"
    },
    {
      "inputs": [
        {
          "internalType": "uint256",
          "name": "proposalId",
          "type": "uint256"
        },
        {
          "internalType": "uint8",
          "name": "support",
          "type": "uint8"
        }
      ],
      "name": "castVote",
      "outputs": [
        {
          "internalType": "uint256",
          "name": "",
          "type": "uint256"
        }
      ],
      "stateMutability": "nonpayable",
      "type": "function"
    },
    {
      "inputs": [
        {
          "internalType": "uint256",
          "name": "proposalId",
          "type": "uint256"
        },
        {
          "internalType": "uint8",
          "name": "support",
          "type": "uint8"
        },
        {
          "internalType": "uint8",
          "name": "v",
          "type": "uint8"
        },
        {
          "internalType": "bytes32",
          "name": "r",
          "type": "bytes32"
        },
        {
          "internalType": "bytes32",
          "name": "s",
          "type": "bytes32"
        }
      ],
      "name": "castVoteBySig",
      "outputs": [
        {
          "internalType": "uint256",
          "name": "",
          "type": "uint256"
        }
      ],
      "stateMutability": "nonpayable",
      "type": "function"
    },
    {
      "inputs": [
        {
          "internalType": "uint256",
          "name": "proposalId",
          "type": "uint256"
        },
        {
          "internalType": "uint8",
          "name": "support",
          "type": "uint8"
        },
        {
          "internalType": "string",
          "name": "reason",
          "type": "string"
        }
      ],
      "name": "castVoteWithReason",
      "outputs": [
        {
          "internalType": "uint256",
          "name": "",
          "type": "uint256"
        }
      ],
      "stateMutability": "nonpayable",
      "type": "function"
    },
    {
      "inputs": [
        {
          "internalType": "uint256",
          "name": "proposalId",
          "type": "uint256"
        },
        {
          "internalType": "uint8",
          "name": "support",
          "type": "uint8"
        },
        {
          "internalType": "string",
          "name": "reason",
          "type": "string"
        },
        {
          "internalType": "bytes",
          "name": "params",
          "type": "bytes"
        }
      ],
      "name": "castVoteWithReasonAndParams",
      "outputs": [
        {
          "internalType": "uint256",
          "name": "",
          "type": "uint256"
        }
      ],
      "stateMutability": "nonpayable",
      "type": "function"
    },
    {
      "inputs": [
        {
          "internalType": "uint256",
          "name": "proposalId",
          "type": "uint256"
        },
        {
          "internalType": "uint8",
          "name": "support",
          "type": "uint8"
        },
        {
          "internalType": "string",
          "name": "reason",
          "type": "string"
        },
        {
          "internalType": "bytes",
          "name": "params",
          "type": "bytes"
        },
        {
          "internalType": "uint8",
          "name": "v",
          "type": "uint8"
        },
        {
          "internalType": "bytes32",
          "name": "r",
          "type": "bytes32"
        },
        {
          "internalType": "bytes32",
          "name": "s",
          "type": "bytes32"
        }
      ],
      "name": "castVoteWithReasonAndParamsBySig",
      "outputs": [
        {
          "internalType": "uint256",
          "name": "",
          "type": "uint256"
        }
      ],
      "stateMutability": "nonpayable",
      "type": "function"
    },
    {
      "inputs": [
        {
          "internalType": "address[]",
          "name": "targets",
          "type": "address[]"
        },
        {
          "internalType": "uint256[]",
          "name": "values",
          "type": "uint256[]"
        },
        {
          "internalType": "bytes[]",
          "name": "calldatas",
          "type": "bytes[]"
        },
        {
          "internalType": "bytes32",
          "name": "descriptionHash",
          "type": "bytes32"
        }
      ],
      "name": "execute",
      "outputs": [
        {
          "internalType": "uint256",
          "name": "",
          "type": "uint256"
        }
      ],
      "stateMutability": "payable",
      "type": "function"
    },
    {
      "inputs": [],
      "name": "getPresident",
      "outputs": [
        {
          "internalType": "address",
          "name": "",
          "type": "address"
        }
      ],
      "stateMutability": "view",
      "type": "function"
    },
    {
      "inputs": [
        {
          "internalType": "bytes32",
          "name": "role",
          "type": "bytes32"
        }
      ],
      "name": "getRoleAdmin",
      "outputs": [
        {
          "internalType": "bytes32",
          "name": "",
          "type": "bytes32"
        }
      ],
      "stateMutability": "view",
      "type": "function"
    },
    {
      "inputs": [
        {
          "internalType": "address",
          "name": "account",
          "type": "address"
        },
        {
          "internalType": "uint256",
          "name": "blockNumber",
          "type": "uint256"
        }
      ],
      "name": "getVotes",
      "outputs": [
        {
          "internalType": "uint256",
          "name": "",
          "type": "uint256"
        }
      ],
      "stateMutability": "view",
      "type": "function"
    },
    {
      "inputs": [
        {
          "internalType": "address",
          "name": "account",
          "type": "address"
        },
        {
          "internalType": "uint256",
          "name": "blockNumber",
          "type": "uint256"
        },
        {
          "internalType": "bytes",
          "name": "params",
          "type": "bytes"
        }
      ],
      "name": "getVotesWithParams",
      "outputs": [
        {
          "internalType": "uint256",
          "name": "",
          "type": "uint256"
        }
      ],
      "stateMutability": "view",
      "type": "function"
    },
    {
      "inputs": [
        {
          "internalType": "bytes32",
          "name": "role",
          "type": "bytes32"
        },
        {
          "internalType": "address",
          "name": "account",
          "type": "address"
        }
      ],
      "name": "grantRole",
      "outputs": [],
      "stateMutability": "nonpayable",
      "type": "function"
    },
    {
      "inputs": [
        {
          "internalType": "bytes32",
          "name": "role",
          "type": "bytes32"
        },
        {
          "internalType": "address",
          "name": "account",
          "type": "address"
        }
      ],
      "name": "hasRole",
      "outputs": [
        {
          "internalType": "bool",
          "name": "",
          "type": "bool"
        }
      ],
      "stateMutability": "view",
      "type": "function"
    },
    {
      "inputs": [
        {
          "internalType": "uint256",
          "name": "proposalId",
          "type": "uint256"
        },
        {
          "internalType": "address",
          "name": "account",
          "type": "address"
        }
      ],
      "name": "hasVoted",
      "outputs": [
        {
          "internalType": "bool",
          "name": "",
          "type": "bool"
        }
      ],
      "stateMutability": "view",
      "type": "function"
    },
    {
      "inputs": [
        {
          "internalType": "address[]",
          "name": "targets",
          "type": "address[]"
        },
        {
          "internalType": "uint256[]",
          "name": "values",
          "type": "uint256[]"
        },
        {
          "internalType": "bytes[]",
          "name": "calldatas",
          "type": "bytes[]"
        },
        {
          "internalType": "bytes32",
          "name": "descriptionHash",
          "type": "bytes32"
        }
      ],
      "name": "hashProposal",
      "outputs": [
        {
          "internalType": "uint256",
          "name": "",
          "type": "uint256"
        }
      ],
      "stateMutability": "pure",
      "type": "function"
    },
    {
      "inputs": [],
      "name": "house",
      "outputs": [
        {
          "internalType": "contract HouseGovernor",
          "name": "",
          "type": "address"
        }
      ],
      "stateMutability": "view",
      "type": "function"
    },
    {
      "inputs": [],
      "name": "name",
      "outputs": [
        {
          "internalType": "string",
          "name": "",
          "type": "string"
        }
      ],
      "stateMutability": "view",
      "type": "function"
    },
    {
      "inputs": [
        {
          "internalType": "address",
          "name": "",
          "type": "address"
        },
        {
          "internalType": "address",
          "name": "",
          "type": "address"
        },
        {
          "internalType": "uint256[]",
          "name": "",
          "type": "uint256[]"
        },
        {
          "internalType": "uint256[]",
          "name": "",
          "type": "uint256[]"
        },
        {
          "internalType": "bytes",
          "name": "",
          "type": "bytes"
        }
      ],
      "name": "onERC1155BatchReceived",
      "outputs": [
        {
          "internalType": "bytes4",
          "name": "",
          "type": "bytes4"
        }
      ],
      "stateMutability": "nonpayable",
      "type": "function"
    },
    {
      "inputs": [
        {
          "internalType": "address",
          "name": "",
          "type": "address"
        },
        {
          "internalType": "address",
          "name": "",
          "type": "address"
        },
        {
          "internalType": "uint256",
          "name": "",
          "type": "uint256"
        },
        {
          "internalType": "uint256",
          "name": "",
          "type": "uint256"
        },
        {
          "internalType": "bytes",
          "name": "",
          "type": "bytes"
        }
      ],
      "name": "onERC1155Received",
      "outputs": [
        {
          "internalType": "bytes4",
          "name": "",
          "type": "bytes4"
        }
      ],
      "stateMutability": "nonpayable",
      "type": "function"
    },
    {
      "inputs": [
        {
          "internalType": "address",
          "name": "",
          "type": "address"
        },
        {
          "internalType": "address",
          "name": "",
          "type": "address"
        },
        {
          "internalType": "uint256",
          "name": "",
          "type": "uint256"
        },
        {
          "internalType": "bytes",
          "name": "",
          "type": "bytes"
        }
      ],
      "name": "onERC721Received",
      "outputs": [
        {
          "internalType": "bytes4",
          "name": "",
          "type": "bytes4"
        }
      ],
      "stateMutability": "nonpayable",
      "type": "function"
    },
    {
      "inputs": [],
      "name": "president",
      "outputs": [
        {
          "internalType": "address",
          "name": "",
          "type": "address"
        }
      ],
      "stateMutability": "view",
      "type": "function"
    },
    {
      "inputs": [
        {
          "internalType": "uint256",
          "name": "proposalId",
          "type": "uint256"
        }
      ],
      "name": "proposalDeadline",
      "outputs": [
        {
          "internalType": "uint256",
          "name": "",
          "type": "uint256"
        }
      ],
      "stateMutability": "view",
      "type": "function"
    },
    {
      "inputs": [
        {
          "internalType": "uint256",
          "name": "proposalId",
          "type": "uint256"
        }
      ],
      "name": "proposalEta",
      "outputs": [
        {
          "internalType": "uint256",
          "name": "",
          "type": "uint256"
        }
      ],
      "stateMutability": "view",
      "type": "function"
    },
    {
      "inputs": [
        {
          "internalType": "uint256",
          "name": "proposalId",
          "type": "uint256"
        }
      ],
      "name": "proposalSnapshot",
      "outputs": [
        {
          "internalType": "uint256",
          "name": "",
          "type": "uint256"
        }
      ],
      "stateMutability": "view",
      "type": "function"
    },
    {
      "inputs": [],
      "name": "proposalThreshold",
      "outputs": [
        {
          "internalType": "uint256",
          "name": "",
          "type": "uint256"
        }
      ],
      "stateMutability": "view",
      "type": "function"
    },
    {
      "inputs": [
        {
          "internalType": "uint256",
          "name": "proposalId",
          "type": "uint256"
        }
      ],
      "name": "proposalVotes",
      "outputs": [
        {
          "internalType": "uint256",
          "name": "againstVotes",
          "type": "uint256"
        },
        {
          "internalType": "uint256",
          "name": "forVotes",
          "type": "uint256"
        },
        {
          "internalType": "uint256",
          "name": "abstainVotes",
          "type": "uint256"
        }
      ],
      "stateMutability": "view",
      "type": "function"
    },
    {
      "inputs": [
        {
          "internalType": "address[]",
          "name": "targets",
          "type": "address[]"
        },
        {
          "internalType": "uint256[]",
          "name": "values",
          "type": "uint256[]"
        },
        {
          "internalType": "bytes[]",
          "name": "calldatas",
          "type": "bytes[]"
        },
        {
          "internalType": "string",
          "name": "description",
          "type": "string"
        }
      ],
      "name": "propose",
      "outputs": [
        {
          "internalType": "uint256",
          "name": "",
          "type": "uint256"
        }
      ],
      "stateMutability": "nonpayable",
      "type": "function"
    },
    {
      "inputs": [
        {
          "internalType": "address[]",
          "name": "targets",
          "type": "address[]"
        },
        {
          "internalType": "uint256[]",
          "name": "values",
          "type": "uint256[]"
        },
        {
          "internalType": "bytes[]",
          "name": "calldatas",
          "type": "bytes[]"
        },
        {
          "internalType": "bytes32",
          "name": "descriptionHash",
          "type": "bytes32"
        }
      ],
      "name": "queue",
      "outputs": [
        {
          "internalType": "uint256",
          "name": "",
          "type": "uint256"
        }
      ],
      "stateMutability": "nonpayable",
      "type": "function"
    },
    {
      "inputs": [
        {
          "internalType": "uint256",
          "name": "blockNumber",
          "type": "uint256"
        }
      ],
      "name": "quorum",
      "outputs": [
        {
          "internalType": "uint256",
          "name": "",
          "type": "uint256"
        }
      ],
      "stateMutability": "view",
      "type": "function"
    },
    {
      "inputs": [],
      "name": "quorumDenominator",
      "outputs": [
        {
          "internalType": "uint256",
          "name": "",
          "type": "uint256"
        }
      ],
      "stateMutability": "view",
      "type": "function"
    },
    {
      "inputs": [
        {
          "internalType": "uint256",
          "name": "blockNumber",
          "type": "uint256"
        }
      ],
      "name": "quorumNumerator",
      "outputs": [
        {
          "internalType": "uint256",
          "name": "",
          "type": "uint256"
        }
      ],
      "stateMutability": "view",
      "type": "function"
    },
    {
      "inputs": [],
      "name": "quorumNumerator",
      "outputs": [
        {
          "internalType": "uint256",
          "name": "",
          "type": "uint256"
        }
      ],
      "stateMutability": "view",
      "type": "function"
    },
    {
      "inputs": [
        {
          "internalType": "address",
          "name": "target",
          "type": "address"
        },
        {
          "internalType": "uint256",
          "name": "value",
          "type": "uint256"
        },
        {
          "internalType": "bytes",
          "name": "data",
          "type": "bytes"
        }
      ],
      "name": "relay",
      "outputs": [],
      "stateMutability": "payable",
      "type": "function"
    },
    {
      "inputs": [
        {
          "internalType": "bytes32",
          "name": "role",
          "type": "bytes32"
        },
        {
          "internalType": "address",
          "name": "account",
          "type": "address"
        }
      ],
      "name": "renounceRole",
      "outputs": [],
      "stateMutability": "nonpayable",
      "type": "function"
    },
    {
      "inputs": [
        {
          "internalType": "bytes32",
          "name": "role",
          "type": "bytes32"
        },
        {
          "internalType": "address",
          "name": "account",
          "type": "address"
        }
      ],
      "name": "revokeRole",
      "outputs": [],
      "stateMutability": "nonpayable",
      "type": "function"
    },
    {
      "inputs": [
        {
          "internalType": "address",
          "name": "newPresident",
          "type": "address"
        }
      ],
      "name": "setPresident",
      "outputs": [],
      "stateMutability": "nonpayable",
      "type": "function"
    },
    {
      "inputs": [
        {
          "internalType": "uint256",
          "name": "newProposalThreshold",
          "type": "uint256"
        }
      ],
      "name": "setProposalThreshold",
      "outputs": [],
      "stateMutability": "nonpayable",
      "type": "function"
    },
    {
      "inputs": [
        {
          "internalType": "uint256",
          "name": "newVotingDelay",
          "type": "uint256"
        }
      ],
      "name": "setVotingDelay",
      "outputs": [],
      "stateMutability": "nonpayable",
      "type": "function"
    },
    {
      "inputs": [
        {
          "internalType": "uint256",
          "name": "newVotingPeriod",
          "type": "uint256"
        }
      ],
      "name": "setVotingPeriod",
      "outputs": [],
      "stateMutability": "nonpayable",
      "type": "function"
    },
    {
      "inputs": [
        {
          "internalType": "uint256",
          "name": "proposalId",
          "type": "uint256"
        }
      ],
      "name": "state",
      "outputs": [
        {
          "internalType": "enum IGovernor.ProposalState",
          "name": "",
          "type": "uint8"
        }
      ],
      "stateMutability": "view",
      "type": "function"
    },
    {
      "inputs": [
        {
          "internalType": "bytes4",
          "name": "interfaceId",
          "type": "bytes4"
        }
      ],
      "name": "supportsInterface",
      "outputs": [
        {
          "internalType": "bool",
          "name": "",
          "type": "bool"
        }
      ],
      "stateMutability": "view",
      "type": "function"
    },
    {
      "inputs": [],
      "name": "timelock",
      "outputs": [
        {
          "internalType": "address",
          "name": "",
          "type": "address"
        }
      ],
      "stateMutability": "view",
      "type": "function"
    },
    {
      "inputs": [],
      "name": "token",
      "outputs": [
        {
          "internalType": "contract IVotes",
          "name": "",
          "type": "address"
        }
      ],
      "stateMutability": "view",
      "type": "function"
    },
    {
      "inputs": [
        {
          "internalType": "uint256",
          "name": "newQuorumNumerator",
          "type": "uint256"
        }
      ],
      "name": "updateQuorumNumerator",
      "outputs": [],
      "stateMutability": "nonpayable",
      "type": "function"
    },
    {
      "inputs": [
        {
          "internalType": "contract TimelockController",
          "name": "newTimelock",
          "type": "address"
        }
      ],
      "name": "updateTimelock",
      "outputs": [],
      "stateMutability": "nonpayable",
      "type": "function"
    },
    {
      "inputs": [],
      "name": "version",
      "outputs": [
        {
          "internalType": "string",
          "name": "",
          "type": "string"
        }
      ],
      "stateMutability": "view",
      "type": "function"
    },
    {
      "inputs": [
        {
          "internalType": "address[]",
          "name": "targets",
          "type": "address[]"
        },
        {
          "internalType": "uint256[]",
          "name": "values",
          "type": "uint256[]"
        },
        {
          "internalType": "bytes[]",
          "name": "calldatas",
          "type": "bytes[]"
        },
        {
          "internalType": "bytes32",
          "name": "descriptionHash",
          "type": "bytes32"
        },
        {
          "internalType": "string",
          "name": "reason",
          "type": "string"
        }
      ],
      "name": "veto",
      "outputs": [],
      "stateMutability": "nonpayable",
      "type": "function"
    },
    {
      "inputs": [],
      "name": "votingDelay",
      "outputs": [
        {
          "internalType": "uint256",
          "name": "",
          "type": "uint256"
        }
      ],
      "stateMutability": "view",
      "type": "function"
    },
    {
      "inputs": [],
      "name": "votingPeriod",
      "outputs": [
        {
          "internalType": "uint256",
          "name": "",
          "type": "uint256"
        }
      ],
      "stateMutability": "view",
      "type": "function"
    },
    {
      "stateMutability": "payable",
      "type": "receive"
    }
  ],
  "transactionHash": "0x58fd8a65a4ac1566e7e802c58b9a2e04525a334eca5f0f9f65a473043aeaf084",
  "args": [
    "0xCf7Ed3AccA5a467e9e704C703E8D87F634fB0Fc9",
    "0x5FC8d32690cc91D4c39d9d3abcBD16989F875707",
    1,
    5,
    4,
    "0x0165878A594ca255338adfa4d48449f69242Eb8F",
    "0xf39Fd6e51aad88F6F4ce6aB8827279cffFb92266",
    true
  ],
  "numDeployments": 1,
  "solcInputHash": "873bf81fa146d958d09c21e8802596ad",
  "bytecode": "0x6101606040523480156200001257600080fd5b50604051620064c9380380620064c98339810160408190526200003591620009da565b868489888860006040518060400160405280601081526020016f11dbdd995c9b9bdc90dbdb9d1c9858dd60821b81525080620000766200022c60201b60201c565b815160209283012081519183019190912060e08290526101008190524660a0818152604080517f8b73c3c69bb8fe3d512ecc4cf759cc79239f7b179b0ffacaa9a75d522b39400f818801819052818301969096526060810194909452608080850193909352308483018190528151808603909301835260c09485019091528151919095012090529190915261012052600162000113828262000b21565b506200012190508362000247565b6200012c8262000288565b62000137816200032f565b5050506001600160a01b031661014052620001528162000370565b506200015e81620004e8565b506200018b7f5169787e785f8d6006d744cab589ebbfdb07214989b67a7ad2c6b219bc285c6b8462000551565b600e80546001600160a01b0319166001600160a01b038516179055620001c1600080516020620064a98339815191528362000551565b600d80546001600160a01b0319166001600160a01b03841617905580156200021e576200021e600080516020620064a98339815191527f71840dc4906352362b0cdaf79870196c8e42acafade72d5d5a6d59291253ceb162000561565b505050505050505062000c0f565b6040805180820190915260018152603160f81b602082015290565b60055460408051918252602082018390527fc565b045403dc03c2eea82b81a0465edad9e2e7fc4d97e11421c209da93d7a93910160405180910390a1600555565b60008111620002ee5760405162461bcd60e51b815260206004820152602760248201527f476f7665726e6f7253657474696e67733a20766f74696e6720706572696f6420604482015266746f6f206c6f7760c81b60648201526084015b60405180910390fd5b60065460408051918252602082018390527f7e3f7f0708a84de9203036abaa450dccc85ad5ff52f78c170f3edb55cf5e8828910160405180910390a1600655565b60075460408051918252602082018390527fccb45da8d5717e6c4544694297c4ba5cf151d455c9bb0ed4fc7a38411bc05461910160405180910390a1600755565b6064811115620003f55760405162461bcd60e51b815260206004820152604360248201527f476f7665726e6f72566f74657351756f72756d4672616374696f6e3a2071756f60448201527f72756d4e756d657261746f72206f7665722071756f72756d44656e6f6d696e616064820152623a37b960e91b608482015260a401620002e5565b600062000401620005ac565b90508015801590620004135750600a54155b156200048e57600a6000016040518060400160405280600063ffffffff1681526020016200044c84620005e460201b62001fe71760201c565b6001600160e01b0390811690915282546001810184556000938452602093849020835194909301519091166401000000000263ffffffff909316929092179101555b620004a982600a6200065360201b6200206a1790919060201c565b505060408051828152602081018490527f0553476bf02ef2726e8ce5ced78d63e26e602e4a2257b1f559418e24b4633997910160405180910390a15050565b600b54604080516001600160a01b03928316815291831660208301527f08f74ea46ef7894f65eabfb5e6e695de773a000b47c529ab559178069b226401910160405180910390a1600b80546001600160a01b0319166001600160a01b0392909216919091179055565b6200055d8282620006a6565b5050565b600082815260208190526040808220600101805490849055905190918391839186917fbd79b86ffe0ab8e8776151514217cd7cacd52c909f66475c3af44e129f0b00ff9190a4505050565b600a5460009015620005dd57620005cf600a6200072e60201b620020a01760201c565b6001600160e01b0316905090565b5060095490565b60006001600160e01b038211156200064f5760405162461bcd60e51b815260206004820152602760248201527f53616665436173743a2076616c756520646f65736e27742066697420696e20326044820152663234206269747360c81b6064820152608401620002e5565b5090565b600080620006908460000162000674436200077c60201b620020df1760201c565b6200068a86620005e460201b62001fe71760201c565b620007e3565b6001600160e01b03918216969116945092505050565b620006b2828262000996565b6200055d576000828152602081815260408083206001600160a01b03851684529091529020805460ff19166001179055620006ea3390565b6001600160a01b0316816001600160a01b0316837f2f8788117e7eff1d82e926ec794901d17c78024a50270940304540a733656f0d60405160405180910390a45050565b8054600090801562000772576200075a836200074c60018462000bed565b600091825260209091200190565b5464010000000090046001600160e01b031662000775565b60005b9392505050565b600063ffffffff8211156200064f5760405162461bcd60e51b815260206004820152602660248201527f53616665436173743a2076616c756520646f65736e27742066697420696e203360448201526532206269747360d01b6064820152608401620002e5565b8254600090819080156200093857600062000805876200074c60018562000bed565b60408051808201909152905463ffffffff8082168084526401000000009092046001600160e01b031660208401529192509087161015620008895760405162461bcd60e51b815260206004820152601760248201527f436865636b706f696e743a20696e76616c6964206b65790000000000000000006044820152606401620002e5565b805163ffffffff808816911603620008d75784620008ae886200074c60018662000bed565b80546001600160e01b03929092166401000000000263ffffffff90921691909117905562000927565b6040805180820190915263ffffffff80881682526001600160e01b0380881660208085019182528b54600181018d5560008d81529190912094519151909216640100000000029216919091179101555b6020015192508391506200098e9050565b50506040805180820190915263ffffffff80851682526001600160e01b0380851660208085019182528854600181018a5560008a8152918220955192519093166401000000000291909316179201919091559050815b935093915050565b6000828152602081815260408083206001600160a01b038516845290915290205460ff165b92915050565b6001600160a01b0381168114620009d757600080fd5b50565b600080600080600080600080610100898b031215620009f857600080fd5b885162000a0581620009c1565b60208a015190985062000a1881620009c1565b8097505060408901519550606089015194506080890151935060a089015162000a4181620009c1565b60c08a015190935062000a5481620009c1565b60e08a0151909250801515811462000a6b57600080fd5b809150509295985092959890939650565b634e487b7160e01b600052604160045260246000fd5b600181811c9082168062000aa757607f821691505b60208210810362000ac857634e487b7160e01b600052602260045260246000fd5b50919050565b601f82111562000b1c57600081815260208120601f850160051c8101602086101562000af75750805b601f850160051c820191505b8181101562000b185782815560010162000b03565b5050505b505050565b81516001600160401b0381111562000b3d5762000b3d62000a7c565b62000b558162000b4e845462000a92565b8462000ace565b602080601f83116001811462000b8d576000841562000b745750858301515b600019600386901b1c1916600185901b17855562000b18565b600085815260208120601f198616915b8281101562000bbe5788860151825594840194600190910190840162000b9d565b508582101562000bdd5787850151600019600388901b60f8161c191681555b5050505050600190811b01905550565b81810381811115620009bb57634e487b7160e01b600052601160045260246000fd5b60805160a05160c05160e05161010051610120516101405161583162000c7860003960008181610bec015281816130ed015261332801526000613751015260006137a00152600061377b015260006136d4015260006136fe0152600061372801526158316000f3fe6080604052600436106103635760003560e01c806370b0f660116101c6578063c28bc2fa116100f7578063eb9019d411610095578063f36c8f5c1161006f578063f36c8f5c14610b86578063f8ce560a14610bba578063fc0c546a14610bda578063ff9b3acf14610c0e57600080fd5b8063eb9019d414610b01578063ece40cc114610b21578063f23a6e6114610b4157600080fd5b8063d547741f116100d1578063d547741f14610a47578063dd4e2ba514610a67578063deaaa7cc14610aad578063ea0217cf14610ae157600080fd5b8063c28bc2fa146109f6578063c59057e414610a09578063d33219b414610a2957600080fd5b8063a7713a7011610164578063b58131b01161013e578063b58131b01461095c578063b9424b4314610971578063bc197c8114610991578063c01f9e37146109d657600080fd5b8063a7713a7014610907578063a890c9101461091c578063ab58fb8e1461093c57600080fd5b806391d14854116101a057806391d148541461087a57806397c3d334146108be5780639a802a6d146108d2578063a217fddf146108f257600080fd5b806370b0f6601461081a5780637b3c71d31461083a5780637d5e81e21461085a57600080fd5b80632f2ff15d116102a0578063438596321161023e578063567813881161021857806356781388146107865780635f398a14146107a657806360c4247f146107c657806362475b77146107e657600080fd5b806343859632146106a1578063544ffc9c146106eb57806354fd4d501461074057600080fd5b806336568abe1161027a57806336568abe1461061f5780633932abb11461063f5780633bccf4fd146106545780633e4f49e61461067457600080fd5b80632f2ff15d146105ab5780632fe3e261146105cb578063324a1376146105ff57600080fd5b806306fdde031161030d578063160cbed7116102e7578063160cbed714610528578063248a9ca3146105485780632656227d146105785780632d63f6931461058b57600080fd5b806306fdde0314610475578063113a2d7b14610497578063150b7a02146104cb57600080fd5b806302a251a31161033e57806302a251a314610412578063034201811461043557806306f3f9e61461045557600080fd5b8062738d221461038b57806301ffc9a7146103c25780630293d84b146103f257600080fd5b366103865730610371610c2e565b6001600160a01b03161461038457600080fd5b005b600080fd5b34801561039757600080fd5b50600d546001600160a01b03165b6040516001600160a01b0390911681526020015b60405180910390f35b3480156103ce57600080fd5b506103e26103dd366004614854565b610c47565b60405190151581526020016103b9565b3480156103fe57600080fd5b5061038461040d366004614abd565b610c58565b34801561041e57600080fd5b50610427610df6565b6040519081526020016103b9565b34801561044157600080fd5b50610427610450366004614bcc565b610e01565b34801561046157600080fd5b50610384610470366004614c73565b610ef9565b34801561048157600080fd5b5061048a610fb3565b6040516103b99190614cdc565b3480156104a357600080fd5b506104277f24fbea9f50ee2911456d1101fe475319e2098b35337082efe9f0eb2f9c7ceb7281565b3480156104d757600080fd5b5061050f6104e6366004614cef565b7f150b7a0200000000000000000000000000000000000000000000000000000000949350505050565b6040516001600160e01b031990911681526020016103b9565b34801561053457600080fd5b50610427610543366004614d5b565b611045565b34801561055457600080fd5b50610427610563366004614c73565b60009081526020819052604090206001015490565b610427610586366004614d5b565b6112e7565b34801561059757600080fd5b506104276105a6366004614c73565b61142f565b3480156105b757600080fd5b506103846105c6366004614deb565b611468565b3480156105d757600080fd5b506104277fb3b3f3b703cd84ce352197dcff232b1b5d3cfb2025ce47cf04742d0651f1af8881565b34801561060b57600080fd5b50600d546103a5906001600160a01b031681565b34801561062b57600080fd5b5061038461063a366004614deb565b611492565b34801561064b57600080fd5b5061042761151e565b34801561066057600080fd5b5061042761066f366004614e1b565b611529565b34801561068057600080fd5b5061069461068f366004614c73565b61159f565b6040516103b99190614e7f565b3480156106ad57600080fd5b506103e26106bc366004614deb565b60008281526008602090815260408083206001600160a01b038516845260030190915290205460ff1692915050565b3480156106f757600080fd5b50610725610706366004614c73565b6000908152600860205260409020805460018201546002909201549092565b604080519384526020840192909252908201526060016103b9565b34801561074c57600080fd5b5060408051808201909152600181527f3100000000000000000000000000000000000000000000000000000000000000602082015261048a565b34801561079257600080fd5b506104276107a1366004614ea7565b611600565b3480156107b257600080fd5b506104276107c1366004614ed3565b611629565b3480156107d257600080fd5b506104276107e1366004614c73565b611673565b3480156107f257600080fd5b506104277f5169787e785f8d6006d744cab589ebbfdb07214989b67a7ad2c6b219bc285c6b81565b34801561082657600080fd5b50610384610835366004614c73565b61170b565b34801561084657600080fd5b50610427610855366004614f3d565b6117c2565b34801561086657600080fd5b50610427610875366004614f97565b611814565b34801561088657600080fd5b506103e2610895366004614deb565b6000918252602082815260408084206001600160a01b0393909316845291905290205460ff1690565b3480156108ca57600080fd5b506064610427565b3480156108de57600080fd5b506104276108ed366004615038565b6118c7565b3480156108fe57600080fd5b50610427600081565b34801561091357600080fd5b506104276118de565b34801561092857600080fd5b50610384610937366004615091565b611908565b34801561094857600080fd5b50610427610957366004614c73565b6119bf565b34801561096857600080fd5b50610427611a72565b34801561097d57600080fd5b5061038461098c366004615091565b611a7d565b34801561099d57600080fd5b5061050f6109ac3660046150ae565b7fbc197c810000000000000000000000000000000000000000000000000000000095945050505050565b3480156109e257600080fd5b506104276109f1366004614c73565b611c7f565b610384610a04366004615142565b611caf565b348015610a1557600080fd5b50610427610a24366004614d5b565b611dee565b348015610a3557600080fd5b50600b546001600160a01b03166103a5565b348015610a5357600080fd5b50610384610a62366004614deb565b611e28565b348015610a7357600080fd5b506040805180820190915260208082527f737570706f72743d627261766f2671756f72756d3d666f722c6162737461696e9082015261048a565b348015610ab957600080fd5b506104277f150214d74d59b7d1e90c73fc22ef3d991dd0a76b046543d4d80ab92d2a50328f81565b348015610aed57600080fd5b50610384610afc366004614c73565b611e4d565b348015610b0d57600080fd5b50610427610b1c366004615186565b611f04565b348015610b2d57600080fd5b50610384610b3c366004614c73565b611f25565b348015610b4d57600080fd5b5061050f610b5c3660046151b2565b7ff23a6e610000000000000000000000000000000000000000000000000000000095945050505050565b348015610b9257600080fd5b506104277f71840dc4906352362b0cdaf79870196c8e42acafade72d5d5a6d59291253ceb181565b348015610bc657600080fd5b50610427610bd5366004614c73565b611fdc565b348015610be657600080fd5b506103a57f000000000000000000000000000000000000000000000000000000000000000081565b348015610c1a57600080fd5b50600e546103a5906001600160a01b031681565b6000610c42600b546001600160a01b031690565b905090565b6000610c528261215b565b92915050565b610c827f24fbea9f50ee2911456d1101fe475319e2098b35337082efe9f0eb2f9c7ceb7233610895565b610cf95760405162461bcd60e51b815260206004820152602260248201527f7061726c69616d656e743a6f6e6c792d707265736964656e742d63616e2d766560448201527f746f00000000000000000000000000000000000000000000000000000000000060648201526084015b60405180910390fd5b6000610d0786868686611dee565b90506004610d148261159f565b6007811115610d2557610d25614e69565b14610d985760405162461bcd60e51b815260206004820152602260248201527f4f6e6c792d7375636365737366756c2d70726f706f73616c732d7665746f616260448201527f6c650000000000000000000000000000000000000000000000000000000000006064820152608401610cf0565b610da486868686612199565b50600d5460405182917f49c5ec23df10fc43775860f18c6f2411ccbb0b72923d2d59e8ae2b3e689c5f5191610de69186916001600160a01b039091169061521b565b60405180910390a2505050505050565b6000610c4260065490565b600080610ea5610e9d7fb3b3f3b703cd84ce352197dcff232b1b5d3cfb2025ce47cf04742d0651f1af888c8c8c8c604051610e3d929190615246565b60405180910390208b80519060200120604051602001610e82959493929190948552602085019390935260ff9190911660408401526060830152608082015260a00190565b604051602081830303815290604052805190602001206121a7565b868686612210565b9050610eeb8a828b8b8b8080601f0160208091040260200160405190810160405280939291908181526020018383808284376000920191909152508d925061222e915050565b9a9950505050505050505050565b610f01610c2e565b6001600160a01b0316336001600160a01b031614610f615760405162461bcd60e51b815260206004820152601860248201527f476f7665726e6f723a206f6e6c79476f7665726e616e636500000000000000006044820152606401610cf0565b30610f6a610c2e565b6001600160a01b031614610fa75760008036604051610f8a929190615246565b604051809103902090505b80610fa060036123ff565b03610f9557505b610fb0816124bc565b50565b606060018054610fc290615256565b80601f0160208091040260200160405190810160405280929190818152602001828054610fee90615256565b801561103b5780601f106110105761010080835404028352916020019161103b565b820191906000526020600020905b81548152906001019060200180831161101e57829003601f168201915b5050505050905090565b60008061105486868686611dee565b905060046110618261159f565b600781111561107257611072614e69565b146110e55760405162461bcd60e51b815260206004820152602160248201527f476f7665726e6f723a2070726f706f73616c206e6f742073756363657373667560448201527f6c000000000000000000000000000000000000000000000000000000000000006064820152608401610cf0565b600b54604080517ff27a0c9200000000000000000000000000000000000000000000000000000000815290516000926001600160a01b03169163f27a0c929160048083019260209291908290030181865afa158015611148573d6000803e3d6000fd5b505050506040513d601f19601f8201168201806040525081019061116c9190615290565b600b546040517fb1c5f4270000000000000000000000000000000000000000000000000000000081529192506001600160a01b03169063b1c5f427906111bf908a908a908a906000908b90600401615372565b602060405180830381865afa1580156111dc573d6000803e3d6000fd5b505050506040513d601f19601f820116820180604052508101906112009190615290565b6000838152600c602052604080822092909255600b5491517f8f2a0bb00000000000000000000000000000000000000000000000000000000081526001600160a01b0390921691638f2a0bb091611264918b918b918b91908b9089906004016153c0565b600060405180830381600087803b15801561127e57600080fd5b505af1158015611292573d6000803e3d6000fd5b505050507f9a2e42fd6722813d69113e7d0079d3d940171428df7373df9c7f7617cfda28928282426112c4919061542e565b604080519283526020830191909152015b60405180910390a15095945050505050565b6000806112f686868686611dee565b905060006113038261159f565b9050600481600781111561131957611319614e69565b14806113365750600581600781111561133457611334614e69565b145b6113a85760405162461bcd60e51b815260206004820152602160248201527f476f7665726e6f723a2070726f706f73616c206e6f742073756363657373667560448201527f6c000000000000000000000000000000000000000000000000000000000000006064820152608401610cf0565b60008281526002602081905260409182902001805460ff19166001179055517f712ae1383f79ac853f8d882153778e0260ef8f03b504e2866e0593e04d2b291f906113f69084815260200190565b60405180910390a161140b8288888888612623565b61141882888888886126c5565b61142582888888886126d2565b5095945050505050565b600081815260026020908152604080832081519283019091525467ffffffffffffffff16908190525b67ffffffffffffffff1692915050565b60008281526020819052604090206001015461148381612718565b61148d8383612722565b505050565b6001600160a01b03811633146115105760405162461bcd60e51b815260206004820152602f60248201527f416363657373436f6e74726f6c3a2063616e206f6e6c792072656e6f756e636560448201527f20726f6c657320666f722073656c6600000000000000000000000000000000006064820152608401610cf0565b61151a82826127c0565b5050565b6000610c4260055490565b604080517f150214d74d59b7d1e90c73fc22ef3d991dd0a76b046543d4d80ab92d2a50328f602082015290810186905260ff85166060820152600090819061157790610e9d90608001610e82565b90506115948782886040518060200160405280600081525061283f565b979650505050505050565b6000806115ab83612862565b9050610c526040518060400160405280600f81526020017f737461747573203d2061637469766500000000000000000000000000000000008152508260078111156115f8576115f8614e69565b60015b612bbc565b6000803390506116218482856040518060200160405280600081525061283f565b949350505050565b60008033905061159487828888888080601f0160208091040260200160405190810160405280939291908181526020018383808284376000920191909152508a925061222e915050565b600a5460009080820361168a575050600954919050565b6000600a611699600184615441565b815481106116a9576116a9615454565b60009182526020918290206040805180820190915291015463ffffffff81168083526401000000009091046001600160e01b0316928201929092529150841061170057602001516001600160e01b03169392505050565b611621600a85612c1c565b611713610c2e565b6001600160a01b0316336001600160a01b0316146117735760405162461bcd60e51b815260206004820152601860248201527f476f7665726e6f723a206f6e6c79476f7665726e616e636500000000000000006044820152606401610cf0565b3061177c610c2e565b6001600160a01b0316146117b9576000803660405161179c929190615246565b604051809103902090505b806117b260036123ff565b036117a757505b610fb081612ccf565b60008033905061180a86828787878080601f01602080910402602001604051908101604052809392919081815260200183838082843760009201919091525061283f92505050565b9695505050505050565b60006118407f5169787e785f8d6006d744cab589ebbfdb07214989b67a7ad2c6b219bc285c6b33610895565b6118b25760405162461bcd60e51b815260206004820152602b60248201527f7061726c69616d656e743a6f6e6c792d686f7573652d63616e2d70726f706f7360448201527f652d746f2d73656e6174650000000000000000000000000000000000000000006064820152608401610cf0565b6118be85858585612d10565b95945050505050565b60006118d48484846130ab565b90505b9392505050565b600a5460009015611901576118f3600a6120a0565b6001600160e01b0316905090565b5060095490565b611910610c2e565b6001600160a01b0316336001600160a01b0316146119705760405162461bcd60e51b815260206004820152601860248201527f476f7665726e6f723a206f6e6c79476f7665726e616e636500000000000000006044820152606401610cf0565b30611979610c2e565b6001600160a01b0316146119b65760008036604051611999929190615246565b604051809103902090505b806119af60036123ff565b036119a457505b610fb08161315a565b600b546000828152600c60205260408082205490517fd45c44350000000000000000000000000000000000000000000000000000000081526004810191909152909182916001600160a01b039091169063d45c443590602401602060405180830381865afa158015611a35573d6000803e3d6000fd5b505050506040513d601f19601f82011682018060405250810190611a599190615290565b905080600114611a6957806118d7565b60009392505050565b6000610c4260075490565b611a85610c2e565b6001600160a01b0316336001600160a01b031614611ae55760405162461bcd60e51b815260206004820152601860248201527f476f7665726e6f723a206f6e6c79476f7665726e616e636500000000000000006044820152606401610cf0565b30611aee610c2e565b6001600160a01b031614611b2b5760008036604051611b0e929190615246565b604051809103902090505b80611b2460036123ff565b03611b1957505b7f24fbea9f50ee2911456d1101fe475319e2098b35337082efe9f0eb2f9c7ceb7260009081526020527fc279907455e8b781878cc2c96e97d3a6dae61e5594505719a1c6aef8f8fe1b42547f71840dc4906352362b0cdaf79870196c8e42acafade72d5d5a6d59291253ceb114611be45760405162461bcd60e51b815260206004820152601f60248201527f547972616e6e793a507265736964656e742d6e6f742d6465706f7361626c65006044820152606401610cf0565b600d54611c1b907f24fbea9f50ee2911456d1101fe475319e2098b35337082efe9f0eb2f9c7ceb72906001600160a01b0316611e28565b611c457f24fbea9f50ee2911456d1101fe475319e2098b35337082efe9f0eb2f9c7ceb7282611468565b600d80547fffffffffffffffffffffffff0000000000000000000000000000000000000000166001600160a01b0392909216919091179055565b600081815260026020908152604080832081519283019091526001015467ffffffffffffffff1690819052611458565b611cb7610c2e565b6001600160a01b0316336001600160a01b031614611d175760405162461bcd60e51b815260206004820152601860248201527f476f7665726e6f723a206f6e6c79476f7665726e616e636500000000000000006044820152606401610cf0565b30611d20610c2e565b6001600160a01b031614611d5d5760008036604051611d40929190615246565b604051809103902090505b80611d5660036123ff565b03611d4b57505b600080856001600160a01b0316858585604051611d7b929190615246565b60006040518083038185875af1925050503d8060008114611db8576040519150601f19603f3d011682016040523d82523d6000602084013e611dbd565b606091505b5091509150611de582826040518060600160405280602881526020016157d4602891396131db565b50505050505050565b600084848484604051602001611e07949392919061546a565b60408051601f19818403018152919052805160209091012095945050505050565b600082815260208190526040902060010154611e4381612718565b61148d83836127c0565b611e55610c2e565b6001600160a01b0316336001600160a01b031614611eb55760405162461bcd60e51b815260206004820152601860248201527f476f7665726e6f723a206f6e6c79476f7665726e616e636500000000000000006044820152606401610cf0565b30611ebe610c2e565b6001600160a01b031614611efb5760008036604051611ede929190615246565b604051809103902090505b80611ef460036123ff565b03611ee957505b610fb0816131f4565b60006118d78383611f2060408051602081019091526000815290565b6130ab565b611f2d610c2e565b6001600160a01b0316336001600160a01b031614611f8d5760405162461bcd60e51b815260206004820152601860248201527f476f7665726e6f723a206f6e6c79476f7665726e616e636500000000000000006044820152606401610cf0565b30611f96610c2e565b6001600160a01b031614611fd35760008036604051611fb6929190615246565b604051809103902090505b80611fcc60036123ff565b03611fc157505b610fb0816132ab565b6000610c52826132ec565b60006001600160e01b038211156120665760405162461bcd60e51b815260206004820152602760248201527f53616665436173743a2076616c756520646f65736e27742066697420696e203260448201527f32342062697473000000000000000000000000000000000000000000000000006064820152608401610cf0565b5090565b6000806120888461207a436120df565b61208386611fe7565b6133af565b6001600160e01b0391821693501690505b9250929050565b80546000908015611a69576120c8836120ba600184615441565b600091825260209091200190565b5464010000000090046001600160e01b03166118d7565b600063ffffffff8211156120665760405162461bcd60e51b815260206004820152602660248201527f53616665436173743a2076616c756520646f65736e27742066697420696e203360448201527f32206269747300000000000000000000000000000000000000000000000000006064820152608401610cf0565b60006001600160e01b031982167f6e665ced000000000000000000000000000000000000000000000000000000001480610c525750610c5282613556565b60006118be858585856135fc565b6000610c526121b46136c7565b836040517f19010000000000000000000000000000000000000000000000000000000000006020820152602281018390526042810182905260009060620160405160208183030381529060405280519060200120905092915050565b6000806000612221878787876137ee565b91509150611425816138b2565b6000858152600260205260408120816122468861159f565b90506122946040518060400160405280600d81526020017f676f7665726e6f72206361737400000000000000000000000000000000000000815250898360078111156115fb576115fb614e69565b60018160078111156122a8576122a8614e69565b1461231b5760405162461bcd60e51b815260206004820152602360248201527f476f7665726e6f723a20766f7465206e6f742063757272656e746c792061637460448201527f69766500000000000000000000000000000000000000000000000000000000006064820152608401610cf0565b6040805160208101909152825467ffffffffffffffff1690819052600090612345908990876130ab565b90506123548989898489613a17565b84516000036123a957876001600160a01b03167fb8e138887d0aa13bab447e82de9d5c1777041ecd21ca36ba824ff1e6c07ddda48a89848a60405161239c94939291906154b5565b60405180910390a26123f3565b876001600160a01b03167fe2babfbac5889a709b63bb7f598b324e08bc5a4fb9ec647fb3cbc9ec07eb87128a89848a8a6040516123ea9594939291906154dd565b60405180910390a25b98975050505050505050565b60006124278254600f81810b700100000000000000000000000000000000909204900b131590565b1561245e576040517f3db2a12a00000000000000000000000000000000000000000000000000000000815260040160405180910390fd5b508054600f0b6000818152600180840160205260408220805492905583547fffffffffffffffffffffffffffffffff000000000000000000000000000000001692016fffffffffffffffffffffffffffffffff169190911790915590565b60648111156125595760405162461bcd60e51b815260206004820152604360248201527f476f7665726e6f72566f74657351756f72756d4672616374696f6e3a2071756f60448201527f72756d4e756d657261746f72206f7665722071756f72756d44656e6f6d696e6160648201527f746f720000000000000000000000000000000000000000000000000000000000608482015260a401610cf0565b60006125636118de565b905080158015906125745750600a54155b156125d9576040805180820190915260008152600a906020810161259784611fe7565b6001600160e01b0390811690915282546001810184556000938452602093849020835194909301519091166401000000000263ffffffff909316929092179101555b6125e4600a8361206a565b505060408051828152602081018490527f0553476bf02ef2726e8ce5ced78d63e26e602e4a2257b1f559418e24b4633997910160405180910390a15050565b3061262c610c2e565b6001600160a01b0316146126be5760005b84518110156126bc57306001600160a01b031685828151811061266257612662615454565b60200260200101516001600160a01b0316036126ac576126ac83828151811061268d5761268d615454565b6020026020010151805190602001206003613bcd90919063ffffffff16565b6126b581615517565b905061263d565b505b5050505050565b6126be8585858585613c1f565b306126db610c2e565b6001600160a01b0316146126be57600354600f81810b700100000000000000000000000000000000909204900b13156126be5760006003556126be565b610fb08133613cac565b6000828152602081815260408083206001600160a01b038516845290915290205460ff1661151a576000828152602081815260408083206001600160a01b03851684529091529020805460ff1916600117905561277c3390565b6001600160a01b0316816001600160a01b0316837f2f8788117e7eff1d82e926ec794901d17c78024a50270940304540a733656f0d60405160405180910390a45050565b6000828152602081815260408083206001600160a01b038516845290915290205460ff161561151a576000828152602081815260408083206001600160a01b0385168085529252808320805460ff1916905551339285917ff6391f5c32d9c69d2a47ea670b442974b53935d1edc7fd64eb21e047a839171b9190a45050565b60006118be8585858561285d60408051602081019091526000815290565b61222e565b60006128a26040518060400160405280600e81526020017f74696d656c6f636b207374617465000000000000000000000000000000000000815250613d1f565b60006128ad83613d7b565b90506128ff6040518060400160405280601281526020017f74696d656c6f636b20676f2073746174757300000000000000000000000000008152508260078111156128fa576128fa614e69565b614186565b600481600781111561291357612913614e69565b1461296357610c526040518060400160405280601681526020017f6861736e74207375636365656465642072657475726e000000000000000000008152508260078111156128fa576128fa614e69565b6129ae6040518060400160405280601281526020017f686173207375636365656465642c202e2e2e00000000000000000000000000008152508260078111156128fa576128fa614e69565b6000838152600c6020908152604091829020548251808401909352600b83527f71756575652069642069730000000000000000000000000000000000000000009183019190915290612a009082614186565b80612a4a57612a436040518060400160405280600981526020017f7265742061732069730000000000000000000000000000000000000000000000815250613d1f565b5092915050565b600b546040517f2ab0f529000000000000000000000000000000000000000000000000000000008152600481018390526001600160a01b0390911690632ab0f52990602401602060405180830381865afa158015612aac573d6000803e3d6000fd5b505050506040513d601f19601f82011682018060405250810190612ad09190615531565b15612adf575060079392505050565b600b546040517f584b153e000000000000000000000000000000000000000000000000000000008152600481018390526001600160a01b039091169063584b153e90602401602060405180830381865afa158015612b41573d6000803e3d6000fd5b505050506040513d601f19601f82011682018060405250810190612b659190615531565b15612b74575060059392505050565b612bb26040518060400160405280600d81526020017f5245742063616e63656c31213100000000000000000000000000000000000000815250613d1f565b5060029392505050565b61148d838383604051602401612bd493929190615553565b60408051601f198184030181529190526020810180516001600160e01b03167fca47c4eb000000000000000000000000000000000000000000000000000000001790526141e0565b6000438210612c6d5760405162461bcd60e51b815260206004820181905260248201527f436865636b706f696e74733a20626c6f636b206e6f7420796574206d696e65646044820152606401610cf0565b6000612c78836120df565b84549091506000612c8b86848385614201565b90508015612cb957612ca2866120ba600184615441565b5464010000000090046001600160e01b0316612cbc565b60005b6001600160e01b03169695505050505050565b60055460408051918252602082018390527fc565b045403dc03c2eea82b81a0465edad9e2e7fc4d97e11421c209da93d7a93910160405180910390a1600555565b6000612d1a611a72565b612d2933610b1c600143615441565b1015612d9d5760405162461bcd60e51b815260206004820152603160248201527f476f7665726e6f723a2070726f706f73657220766f7465732062656c6f77207060448201527f726f706f73616c207468726573686f6c640000000000000000000000000000006064820152608401610cf0565b6000612db28686868680519060200120611dee565b90508451865114612e2b5760405162461bcd60e51b815260206004820152602160248201527f476f7665726e6f723a20696e76616c69642070726f706f73616c206c656e677460448201527f68000000000000000000000000000000000000000000000000000000000000006064820152608401610cf0565b8351865114612ea25760405162461bcd60e51b815260206004820152602160248201527f476f7665726e6f723a20696e76616c69642070726f706f73616c206c656e677460448201527f68000000000000000000000000000000000000000000000000000000000000006064820152608401610cf0565b6000865111612ef35760405162461bcd60e51b815260206004820152601860248201527f476f7665726e6f723a20656d7074792070726f706f73616c00000000000000006044820152606401610cf0565b6000818152600260209081526040918290208251918201909252815467ffffffffffffffff169081905215612f905760405162461bcd60e51b815260206004820152602160248201527f476f7665726e6f723a2070726f706f73616c20616c726561647920657869737460448201527f73000000000000000000000000000000000000000000000000000000000000006064820152608401610cf0565b6000612fa2612f9d61151e565b61425f565b612fab4361425f565b612fb59190615578565b90506000612fc4612f9d610df6565b612fce9083615578565b835467ffffffffffffffff191667ffffffffffffffff8416178455905060018301805467ffffffffffffffff191667ffffffffffffffff83161790557f7d84a6263ae0d98d3329bd7b46bb4e8d6f98cd35a7adb45c274c8b7fd5ebd5e084338b8b8d5167ffffffffffffffff8111156130495761304961487e565b60405190808252806020026020018201604052801561307c57816020015b60608152602001906001900390816130675790505b508c88888e60405161309699989796959493929190615599565b60405180910390a15091979650505050505050565b6040517f3a46b1a80000000000000000000000000000000000000000000000000000000081526001600160a01b038481166004830152602482018490526000917f000000000000000000000000000000000000000000000000000000000000000090911690633a46b1a890604401602060405180830381865afa158015613136573d6000803e3d6000fd5b505050506040513d601f19601f820116820180604052508101906118d49190615290565b600b54604080516001600160a01b03928316815291831660208301527f08f74ea46ef7894f65eabfb5e6e695de773a000b47c529ab559178069b226401910160405180910390a1600b80547fffffffffffffffffffffffff0000000000000000000000000000000000000000166001600160a01b0392909216919091179055565b606083156131ea5750816118d7565b6118d783836142df565b6000811161326a5760405162461bcd60e51b815260206004820152602760248201527f476f7665726e6f7253657474696e67733a20766f74696e6720706572696f642060448201527f746f6f206c6f77000000000000000000000000000000000000000000000000006064820152608401610cf0565b60065460408051918252602082018390527f7e3f7f0708a84de9203036abaa450dccc85ad5ff52f78c170f3edb55cf5e8828910160405180910390a1600655565b60075460408051918252602082018390527fccb45da8d5717e6c4544694297c4ba5cf151d455c9bb0ed4fc7a38411bc05461910160405180910390a1600755565b600060646132f983611673565b6040517f8e539e8c000000000000000000000000000000000000000000000000000000008152600481018590527f00000000000000000000000000000000000000000000000000000000000000006001600160a01b031690638e539e8c90602401602060405180830381865afa158015613377573d6000803e3d6000fd5b505050506040513d601f19601f8201168201806040525081019061339b9190615290565b6133a5919061568b565b610c5291906156a2565b8254600090819080156134f85760006133cd876120ba600185615441565b60408051808201909152905463ffffffff8082168084526401000000009092046001600160e01b03166020840152919250908716101561344f5760405162461bcd60e51b815260206004820152601760248201527f436865636b706f696e743a20696e76616c6964206b65790000000000000000006044820152606401610cf0565b805163ffffffff8088169116036134985784613470886120ba600186615441565b80546001600160e01b03929092166401000000000263ffffffff9092169190911790556134e8565b6040805180820190915263ffffffff80881682526001600160e01b0380881660208085019182528b54600181018d5560008d81529190912094519151909216640100000000029216919091179101555b60200151925083915061354e9050565b50506040805180820190915263ffffffff80851682526001600160e01b0380851660208085019182528854600181018a5560008a8152918220955192519093166401000000000291909316179201919091559050815b935093915050565b60006001600160e01b031982167fbf26d8970000000000000000000000000000000000000000000000000000000014806135b957506001600160e01b031982167f79dd796f00000000000000000000000000000000000000000000000000000000145b806135ed57506001600160e01b031982167f4e2312e000000000000000000000000000000000000000000000000000000000145b80610c525750610c5282614309565b60008061360b86868686614370565b6000818152600c6020526040902054909150156118be57600b546000828152600c6020526040908190205490517fc4d252f50000000000000000000000000000000000000000000000000000000081526001600160a01b039092169163c4d252f59161367d9160040190815260200190565b600060405180830381600087803b15801561369757600080fd5b505af11580156136ab573d6000803e3d6000fd5b5050506000828152600c60205260408120555095945050505050565b6000306001600160a01b037f00000000000000000000000000000000000000000000000000000000000000001614801561372057507f000000000000000000000000000000000000000000000000000000000000000046145b1561374a57507f000000000000000000000000000000000000000000000000000000000000000090565b50604080517f00000000000000000000000000000000000000000000000000000000000000006020808301919091527f0000000000000000000000000000000000000000000000000000000000000000828401527f000000000000000000000000000000000000000000000000000000000000000060608301524660808301523060a0808401919091528351808403909101815260c0909201909252805191012090565b6000807f7fffffffffffffffffffffffffffffff5d576e7357a4501ddfe92f46681b20a083111561382557506000905060036138a9565b6040805160008082526020820180845289905260ff881692820192909252606081018690526080810185905260019060a0016020604051602081039080840390855afa158015613879573d6000803e3d6000fd5b5050604051601f1901519150506001600160a01b0381166138a2576000600192509250506138a9565b9150600090505b94509492505050565b60008160048111156138c6576138c6614e69565b036138ce5750565b60018160048111156138e2576138e2614e69565b0361392f5760405162461bcd60e51b815260206004820152601860248201527f45434453413a20696e76616c6964207369676e617475726500000000000000006044820152606401610cf0565b600281600481111561394357613943614e69565b036139905760405162461bcd60e51b815260206004820152601f60248201527f45434453413a20696e76616c6964207369676e6174757265206c656e677468006044820152606401610cf0565b60038160048111156139a4576139a4614e69565b03610fb05760405162461bcd60e51b815260206004820152602260248201527f45434453413a20696e76616c6964207369676e6174757265202773272076616c60448201527f75650000000000000000000000000000000000000000000000000000000000006064820152608401610cf0565b60008581526008602090815260408083206001600160a01b0388168452600381019092529091205460ff1615613ab55760405162461bcd60e51b815260206004820152602760248201527f476f7665726e6f72566f74696e6753696d706c653a20766f746520616c72656160448201527f64792063617374000000000000000000000000000000000000000000000000006064820152608401610cf0565b6001600160a01b03851660009081526003820160205260409020805460ff1916600117905560ff8416613b015782816000016000828254613af6919061542e565b909155506126bc9050565b60001960ff851601613b215782816001016000828254613af6919061542e565b7ffffffffffffffffffffffffffffffffffffffffffffffffffffffffffffffffe60ff851601613b5f5782816002016000828254613af6919061542e565b60405162461bcd60e51b815260206004820152603560248201527f476f7665726e6f72566f74696e6753696d706c653a20696e76616c696420766160448201527f6c756520666f7220656e756d20566f74655479706500000000000000000000006064820152608401610cf0565b815470010000000000000000000000000000000090819004600f0b6000818152600180860160205260409091209390935583546fffffffffffffffffffffffffffffffff908116939091011602179055565b600b546040517fe38335e50000000000000000000000000000000000000000000000000000000081526001600160a01b039091169063e38335e5903490613c73908890889088906000908990600401615372565b6000604051808303818588803b158015613c8c57600080fd5b505af1158015613ca0573d6000803e3d6000fd5b50505050505050505050565b6000828152602081815260408083206001600160a01b038516845290915290205460ff1661151a57613cdd81614499565b613ce88360206144ab565b604051602001613cf99291906156c4565b60408051601f198184030181529082905262461bcd60e51b8252610cf091600401614cdc565b610fb081604051602401613d339190614cdc565b60408051601f198184030181529190526020810180516001600160e01b03167f41304fac000000000000000000000000000000000000000000000000000000001790526141e0565b6000613dbb6040518060400160405280600981526020017f676f762073746174650000000000000000000000000000000000000000000000815250613d1f565b6000828152600260208181526040928390208351808501909452600a84527f657865632c2063616e630000000000000000000000000000000000000000000091840191909152908101549091613e1c9160ff808216916101009004166146d4565b600281015460ff1615613e7057613e676040518060400160405280600881526020017f7265742065786563000000000000000000000000000000000000000000000000815250613d1f565b50600792915050565b6002810154610100900460ff1615613ec957613ec06040518060400160405280600c81526020017f7265742063616e63656c65640000000000000000000000000000000000000000815250613d1f565b50600292915050565b6000613ed48461142f565b905080600003613f6457613f1c6040518060400160405280600a81526020017f7265742072657665727400000000000000000000000000000000000000000000815250613d1f565b60405162461bcd60e51b815260206004820152601d60248201527f476f7665726e6f723a20756e6b6e6f776e2070726f706f73616c2069640000006044820152606401610cf0565b438110613fb357613fa96040518060400160405280600b81526020017f7265742070656e64696e67000000000000000000000000000000000000000000815250613d1f565b5060009392505050565b6000613fbe85611c7f565b90506140366040518060400160405280600881526020017f646561646c696e65000000000000000000000000000000000000000000000000815250826040518060400160405280600581526020017f626c6f636b00000000000000000000000000000000000000000000000000000081525043614734565b4381106140865761407b6040518060400160405280600a81526020017f7265742061637469766500000000000000000000000000000000000000000000815250613d1f565b506001949350505050565b6140d66040518060400160405280601081526020017f71756f72756d2c20766f652073756363000000000000000000000000000000008152506140c88761479c565b6140d1886147d3565b6146d4565b6140df8561479c565b80156140ef57506140ef856147d3565b1561413d576141326040518060400160405280600881526020017f7265742073756363000000000000000000000000000000000000000000000000815250613d1f565b506004949350505050565b61417b6040518060400160405280600a81526020017f7265742064656665617400000000000000000000000000000000000000000000815250613d1f565b506003949350505050565b61151a828260405160240161419c929190615745565b60408051601f198184030181529190526020810180516001600160e01b03167fb60e72cc000000000000000000000000000000000000000000000000000000001790525b80516a636f6e736f6c652e6c6f67602083016000808483855afa5050505050565b60005b818310156142575760006142188484614839565b60008781526020902090915063ffffffff86169082015463ffffffff16111561424357809250614251565b61424e81600161542e565b93505b50614204565b509392505050565b600067ffffffffffffffff8211156120665760405162461bcd60e51b815260206004820152602660248201527f53616665436173743a2076616c756520646f65736e27742066697420696e203660448201527f34206269747300000000000000000000000000000000000000000000000000006064820152608401610cf0565b8151156142ef5781518083602001fd5b8060405162461bcd60e51b8152600401610cf09190614cdc565b60006001600160e01b031982167f7965db0b000000000000000000000000000000000000000000000000000000001480610c5257507f01ffc9a7000000000000000000000000000000000000000000000000000000006001600160e01b0319831614610c52565b60008061437f86868686611dee565b9050600061438c8261159f565b905060028160078111156143a2576143a2614e69565b141580156143c2575060068160078111156143bf576143bf614e69565b14155b80156143e0575060078160078111156143dd576143dd614e69565b14155b61442c5760405162461bcd60e51b815260206004820152601d60248201527f476f7665726e6f723a2070726f706f73616c206e6f74206163746976650000006044820152606401610cf0565b6000828152600260208190526040918290200180547fffffffffffffffffffffffffffffffffffffffffffffffffffffffffffff00ff16610100179055517f789cf55be980739dad1d0699b93b58e806b51c9d96619bfa8fe0a28abaa7b30c906112d59084815260200190565b6060610c526001600160a01b03831660145b606060006144ba83600261568b565b6144c590600261542e565b67ffffffffffffffff8111156144dd576144dd61487e565b6040519080825280601f01601f191660200182016040528015614507576020820181803683370190505b5090507f30000000000000000000000000000000000000000000000000000000000000008160008151811061453e5761453e615454565b60200101907effffffffffffffffffffffffffffffffffffffffffffffffffffffffffffff1916908160001a9053507f7800000000000000000000000000000000000000000000000000000000000000816001815181106145a1576145a1615454565b60200101907effffffffffffffffffffffffffffffffffffffffffffffffffffffffffffff1916908160001a90535060006145dd84600261568b565b6145e890600161542e565b90505b6001811115614685577f303132333435363738396162636465660000000000000000000000000000000085600f166010811061462957614629615454565b1a60f81b82828151811061463f5761463f615454565b60200101907effffffffffffffffffffffffffffffffffffffffffffffffffffffffffffff1916908160001a90535060049490941c9361467e81615767565b90506145eb565b5083156118d75760405162461bcd60e51b815260206004820181905260248201527f537472696e67733a20686578206c656e67746820696e73756666696369656e746044820152606401610cf0565b61148d8383836040516024016146ec9392919061577e565b60408051601f198184030181529190526020810180516001600160e01b03167f850b7ad6000000000000000000000000000000000000000000000000000000001790526141e0565b6147968484848460405160240161474e94939291906157a8565b60408051601f198184030181529190526020810180516001600160e01b03167fc67ea9d1000000000000000000000000000000000000000000000000000000001790526141e0565b50505050565b6000818152600860205260408120600281015460018201546147be919061542e565b6147ca610bd58561142f565b11159392505050565b60008181526008602090815260408083208151808301909252600982527f766f656520737563630000000000000000000000000000000000000000000000928201929092526001820154825461482a929190612bbc565b80546001909101541192915050565b600061484860028484186156a2565b6118d79084841661542e565b60006020828403121561486657600080fd5b81356001600160e01b0319811681146118d757600080fd5b634e487b7160e01b600052604160045260246000fd5b604051601f8201601f1916810167ffffffffffffffff811182821017156148bd576148bd61487e565b604052919050565b600067ffffffffffffffff8211156148df576148df61487e565b5060051b60200190565b6001600160a01b0381168114610fb057600080fd5b600082601f83011261490f57600080fd5b8135602061492461491f836148c5565b614894565b82815260059290921b8401810191818101908684111561494357600080fd5b8286015b8481101561496757803561495a816148e9565b8352918301918301614947565b509695505050505050565b600082601f83011261498357600080fd5b8135602061499361491f836148c5565b82815260059290921b840181019181810190868411156149b257600080fd5b8286015b8481101561496757803583529183019183016149b6565b600082601f8301126149de57600080fd5b813567ffffffffffffffff8111156149f8576149f861487e565b614a0b6020601f19601f84011601614894565b818152846020838601011115614a2057600080fd5b816020850160208301376000918101602001919091529392505050565b600082601f830112614a4e57600080fd5b81356020614a5e61491f836148c5565b82815260059290921b84018101918181019086841115614a7d57600080fd5b8286015b8481101561496757803567ffffffffffffffff811115614aa15760008081fd5b614aaf8986838b01016149cd565b845250918301918301614a81565b600080600080600060a08688031215614ad557600080fd5b853567ffffffffffffffff80821115614aed57600080fd5b614af989838a016148fe565b96506020880135915080821115614b0f57600080fd5b614b1b89838a01614972565b95506040880135915080821115614b3157600080fd5b614b3d89838a01614a3d565b9450606088013593506080880135915080821115614b5a57600080fd5b50614b67888289016149cd565b9150509295509295909350565b803560ff81168114614b8557600080fd5b919050565b60008083601f840112614b9c57600080fd5b50813567ffffffffffffffff811115614bb457600080fd5b60208301915083602082850101111561209957600080fd5b60008060008060008060008060e0898b031215614be857600080fd5b88359750614bf860208a01614b74565b9650604089013567ffffffffffffffff80821115614c1557600080fd5b614c218c838d01614b8a565b909850965060608b0135915080821115614c3a57600080fd5b50614c478b828c016149cd565b945050614c5660808a01614b74565b925060a0890135915060c089013590509295985092959890939650565b600060208284031215614c8557600080fd5b5035919050565b60005b83811015614ca7578181015183820152602001614c8f565b50506000910152565b60008151808452614cc8816020860160208601614c8c565b601f01601f19169290920160200192915050565b6020815260006118d76020830184614cb0565b60008060008060808587031215614d0557600080fd5b8435614d10816148e9565b93506020850135614d20816148e9565b925060408501359150606085013567ffffffffffffffff811115614d4357600080fd5b614d4f878288016149cd565b91505092959194509250565b60008060008060808587031215614d7157600080fd5b843567ffffffffffffffff80821115614d8957600080fd5b614d95888389016148fe565b95506020870135915080821115614dab57600080fd5b614db788838901614972565b94506040870135915080821115614dcd57600080fd5b50614dda87828801614a3d565b949793965093946060013593505050565b60008060408385031215614dfe57600080fd5b823591506020830135614e10816148e9565b809150509250929050565b600080600080600060a08688031215614e3357600080fd5b85359450614e4360208701614b74565b9350614e5160408701614b74565b94979396509394606081013594506080013592915050565b634e487b7160e01b600052602160045260246000fd5b6020810160088310614ea157634e487b7160e01b600052602160045260246000fd5b91905290565b60008060408385031215614eba57600080fd5b82359150614eca60208401614b74565b90509250929050565b600080600080600060808688031215614eeb57600080fd5b85359450614efb60208701614b74565b9350604086013567ffffffffffffffff80821115614f1857600080fd5b614f2489838a01614b8a565b90955093506060880135915080821115614b5a57600080fd5b60008060008060608587031215614f5357600080fd5b84359350614f6360208601614b74565b9250604085013567ffffffffffffffff811115614f7f57600080fd5b614f8b87828801614b8a565b95989497509550505050565b60008060008060808587031215614fad57600080fd5b843567ffffffffffffffff80821115614fc557600080fd5b614fd1888389016148fe565b95506020870135915080821115614fe757600080fd5b614ff388838901614972565b9450604087013591508082111561500957600080fd5b61501588838901614a3d565b9350606087013591508082111561502b57600080fd5b50614d4f878288016149cd565b60008060006060848603121561504d57600080fd5b8335615058816148e9565b925060208401359150604084013567ffffffffffffffff81111561507b57600080fd5b615087868287016149cd565b9150509250925092565b6000602082840312156150a357600080fd5b81356118d7816148e9565b600080600080600060a086880312156150c657600080fd5b85356150d1816148e9565b945060208601356150e1816148e9565b9350604086013567ffffffffffffffff808211156150fe57600080fd5b61510a89838a01614972565b9450606088013591508082111561512057600080fd5b61512c89838a01614972565b93506080880135915080821115614b5a57600080fd5b6000806000806060858703121561515857600080fd5b8435615163816148e9565b935060208501359250604085013567ffffffffffffffff811115614f7f57600080fd5b6000806040838503121561519957600080fd5b82356151a4816148e9565b946020939093013593505050565b600080600080600060a086880312156151ca57600080fd5b85356151d5816148e9565b945060208601356151e5816148e9565b93506040860135925060608601359150608086013567ffffffffffffffff81111561520f57600080fd5b614b67888289016149cd565b60408152600061522e6040830185614cb0565b90506001600160a01b03831660208301529392505050565b8183823760009101908152919050565b600181811c9082168061526a57607f821691505b60208210810361528a57634e487b7160e01b600052602260045260246000fd5b50919050565b6000602082840312156152a257600080fd5b5051919050565b600081518084526020808501945080840160005b838110156152e25781516001600160a01b0316875295820195908201906001016152bd565b509495945050505050565b600081518084526020808501945080840160005b838110156152e257815187529582019590820190600101615301565b600081518084526020808501808196508360051b8101915082860160005b85811015615365578284038952615353848351614cb0565b9885019893509084019060010161533b565b5091979650505050505050565b60a08152600061538560a08301886152a9565b828103602084015261539781886152ed565b905082810360408401526153ab818761531d565b60608401959095525050608001529392505050565b60c0815260006153d360c08301896152a9565b82810360208401526153e581896152ed565b905082810360408401526153f9818861531d565b60608401969096525050608081019290925260a0909101529392505050565b634e487b7160e01b600052601160045260246000fd5b80820180821115610c5257610c52615418565b81810381811115610c5257610c52615418565b634e487b7160e01b600052603260045260246000fd5b60808152600061547d60808301876152a9565b828103602084015261548f81876152ed565b905082810360408401526154a3818661531d565b91505082606083015295945050505050565b84815260ff8416602082015282604082015260806060820152600061180a6080830184614cb0565b85815260ff8516602082015283604082015260a06060820152600061550560a0830185614cb0565b82810360808401526123f38185614cb0565b6000600019820361552a5761552a615418565b5060010190565b60006020828403121561554357600080fd5b815180151581146118d757600080fd5b6060815260006155666060830186614cb0565b60208301949094525060400152919050565b67ffffffffffffffff818116838216019080821115612a4357612a43615418565b60006101208b835260206001600160a01b038c16818501528160408501526155c38285018c6152a9565b915083820360608501526155d7828b6152ed565b915083820360808501528189518084528284019150828160051b850101838c0160005b8381101561562857601f19878403018552615616838351614cb0565b948601949250908501906001016155fa565b505086810360a088015261563c818c61531d565b94505050505061565860c084018767ffffffffffffffff169052565b67ffffffffffffffff851660e084015282810361010084015261567b8185614cb0565b9c9b505050505050505050505050565b8082028115828204841417610c5257610c52615418565b6000826156bf57634e487b7160e01b600052601260045260246000fd5b500490565b7f416363657373436f6e74726f6c3a206163636f756e74200000000000000000008152600083516156fc816017850160208801614c8c565b7f206973206d697373696e6720726f6c65200000000000000000000000000000006017918401918201528351615739816028840160208801614c8c565b01602801949350505050565b6040815260006157586040830185614cb0565b90508260208301529392505050565b60008161577657615776615418565b506000190190565b6060815260006157916060830186614cb0565b931515602083015250901515604090910152919050565b6080815260006157bb6080830187614cb0565b85602084015282810360408401526154a38186614cb056fe476f7665726e6f723a2072656c617920726576657274656420776974686f7574206d657373616765a26469706673582212206be5d6ad423a3fdf73b31552dd92aa3078d4cc1b731df64a7ad1211c1461b85664736f6c6343000811003324fbea9f50ee2911456d1101fe475319e2098b35337082efe9f0eb2f9c7ceb72",
  "devdoc": {
    "errors": {
      "Empty()": [
        {
          "details": "An operation (e.g. {front}) couldn't be completed due to the queue being empty."
        }
      ]
    },
    "kind": "dev",
    "methods": {
      "COUNTING_MODE()": {
        "details": "See {IGovernor-COUNTING_MODE}."
      },
      "castVote(uint256,uint8)": {
        "details": "See {IGovernor-castVote}."
      },
      "castVoteBySig(uint256,uint8,uint8,bytes32,bytes32)": {
        "details": "See {IGovernor-castVoteBySig}."
      },
      "castVoteWithReason(uint256,uint8,string)": {
        "details": "See {IGovernor-castVoteWithReason}."
      },
      "castVoteWithReasonAndParams(uint256,uint8,string,bytes)": {
        "details": "See {IGovernor-castVoteWithReasonAndParams}."
      },
      "castVoteWithReasonAndParamsBySig(uint256,uint8,string,bytes,uint8,bytes32,bytes32)": {
        "details": "See {IGovernor-castVoteWithReasonAndParamsBySig}."
      },
      "execute(address[],uint256[],bytes[],bytes32)": {
        "details": "See {IGovernor-execute}."
      },
      "getRoleAdmin(bytes32)": {
        "details": "Returns the admin role that controls `role`. See {grantRole} and {revokeRole}. To change a role's admin, use {_setRoleAdmin}."
      },
      "getVotes(address,uint256)": {
        "details": "See {IGovernor-getVotes}."
      },
      "getVotesWithParams(address,uint256,bytes)": {
        "details": "See {IGovernor-getVotesWithParams}."
      },
      "grantRole(bytes32,address)": {
        "details": "Grants `role` to `account`. If `account` had not been already granted `role`, emits a {RoleGranted} event. Requirements: - the caller must have ``role``'s admin role. May emit a {RoleGranted} event."
      },
      "hasRole(bytes32,address)": {
        "details": "Returns `true` if `account` has been granted `role`."
      },
      "hasVoted(uint256,address)": {
        "details": "See {IGovernor-hasVoted}."
      },
      "hashProposal(address[],uint256[],bytes[],bytes32)": {
        "details": "See {IGovernor-hashProposal}. The proposal id is produced by hashing the ABI encoded `targets` array, the `values` array, the `calldatas` array and the descriptionHash (bytes32 which itself is the keccak256 hash of the description string). This proposal id can be produced from the proposal data which is part of the {ProposalCreated} event. It can even be computed in advance, before the proposal is submitted. Note that the chainId and the governor address are not part of the proposal id computation. Consequently, the same proposal (with same operation and same description) will have the same id if submitted on multiple governors across multiple networks. This also means that in order to execute the same operation twice (on the same governor) the proposer will have to change the description in order to avoid proposal id conflicts."
      },
      "name()": {
        "details": "See {IGovernor-name}."
      },
      "onERC1155BatchReceived(address,address,uint256[],uint256[],bytes)": {
        "details": "See {IERC1155Receiver-onERC1155BatchReceived}."
      },
      "onERC1155Received(address,address,uint256,uint256,bytes)": {
        "details": "See {IERC1155Receiver-onERC1155Received}."
      },
      "onERC721Received(address,address,uint256,bytes)": {
        "details": "See {IERC721Receiver-onERC721Received}."
      },
      "proposalDeadline(uint256)": {
        "details": "See {IGovernor-proposalDeadline}."
      },
      "proposalEta(uint256)": {
        "details": "Public accessor to check the eta of a queued proposal"
      },
      "proposalSnapshot(uint256)": {
        "details": "See {IGovernor-proposalSnapshot}."
      },
      "proposalVotes(uint256)": {
        "details": "Accessor to the internal vote counts."
      },
      "queue(address[],uint256[],bytes[],bytes32)": {
        "details": "Function to queue a proposal to the timelock."
      },
      "quorumDenominator()": {
        "details": "Returns the quorum denominator. Defaults to 100, but may be overridden."
      },
      "quorumNumerator()": {
        "details": "Returns the current quorum numerator. See {quorumDenominator}."
      },
      "quorumNumerator(uint256)": {
        "details": "Returns the quorum numerator at a specific block number. See {quorumDenominator}."
      },
      "relay(address,uint256,bytes)": {
        "details": "Relays a transaction or function call to an arbitrary target. In cases where the governance executor is some contract other than the governor itself, like when using a timelock, this function can be invoked in a governance proposal to recover tokens or Ether that was sent to the governor contract by mistake. Note that if the executor is simply the governor itself, use of `relay` is redundant."
      },
      "renounceRole(bytes32,address)": {
        "details": "Revokes `role` from the calling account. Roles are often managed via {grantRole} and {revokeRole}: this function's purpose is to provide a mechanism for accounts to lose their privileges if they are compromised (such as when a trusted device is misplaced). If the calling account had been revoked `role`, emits a {RoleRevoked} event. Requirements: - the caller must be `account`. May emit a {RoleRevoked} event."
      },
      "revokeRole(bytes32,address)": {
        "details": "Revokes `role` from `account`. If `account` had been granted `role`, emits a {RoleRevoked} event. Requirements: - the caller must have ``role``'s admin role. May emit a {RoleRevoked} event."
      },
      "setProposalThreshold(uint256)": {
        "details": "Update the proposal threshold. This operation can only be performed through a governance proposal. Emits a {ProposalThresholdSet} event."
      },
      "setVotingDelay(uint256)": {
        "details": "Update the voting delay. This operation can only be performed through a governance proposal. Emits a {VotingDelaySet} event."
      },
      "setVotingPeriod(uint256)": {
        "details": "Update the voting period. This operation can only be performed through a governance proposal. Emits a {VotingPeriodSet} event."
      },
      "timelock()": {
        "details": "Public accessor to check the address of the timelock"
      },
      "updateQuorumNumerator(uint256)": {
        "details": "Changes the quorum numerator. Emits a {QuorumNumeratorUpdated} event. Requirements: - Must be called through a governance proposal. - New numerator must be smaller or equal to the denominator."
      },
      "updateTimelock(address)": {
        "details": "Public endpoint to update the underlying timelock instance. Restricted to the timelock itself, so updates must be proposed, scheduled, and executed through governance proposals. CAUTION: It is not recommended to change the timelock while there are other queued governance proposals."
      },
      "version()": {
        "details": "See {IGovernor-version}."
      }
    },
    "version": 1
  },
  "userdoc": {
    "kind": "user",
    "methods": {},
    "version": 1
  },
  "storageLayout": {
    "storage": [
      {
        "astId": 24,
        "contract": "contracts/parliament/SenateGovernor.sol:SenateGovernor",
        "label": "_roles",
        "offset": 0,
        "slot": "0",
        "type": "t_mapping(t_bytes32,t_struct(RoleData)19_storage)"
      },
      {
        "astId": 449,
        "contract": "contracts/parliament/SenateGovernor.sol:SenateGovernor",
        "label": "_name",
        "offset": 0,
        "slot": "1",
        "type": "t_string_storage"
      },
      {
        "astId": 454,
        "contract": "contracts/parliament/SenateGovernor.sol:SenateGovernor",
        "label": "_proposals",
        "offset": 0,
        "slot": "2",
        "type": "t_mapping(t_uint256,t_struct(ProposalCore)447_storage)"
      },
      {
        "astId": 457,
        "contract": "contracts/parliament/SenateGovernor.sol:SenateGovernor",
        "label": "_governanceCall",
        "offset": 0,
        "slot": "3",
        "type": "t_struct(Bytes32Deque)9363_storage"
      },
      {
        "astId": 3249,
        "contract": "contracts/parliament/SenateGovernor.sol:SenateGovernor",
        "label": "_votingDelay",
        "offset": 0,
        "slot": "5",
        "type": "t_uint256"
      },
      {
        "astId": 3251,
        "contract": "contracts/parliament/SenateGovernor.sol:SenateGovernor",
        "label": "_votingPeriod",
        "offset": 0,
        "slot": "6",
        "type": "t_uint256"
      },
      {
        "astId": 3253,
        "contract": "contracts/parliament/SenateGovernor.sol:SenateGovernor",
        "label": "_proposalThreshold",
        "offset": 0,
        "slot": "7",
        "type": "t_uint256"
      },
      {
        "astId": 3031,
        "contract": "contracts/parliament/SenateGovernor.sol:SenateGovernor",
        "label": "_proposalVotes",
        "offset": 0,
        "slot": "8",
        "type": "t_mapping(t_uint256,t_struct(ProposalVote)3026_storage)"
      },
      {
        "astId": 3911,
        "contract": "contracts/parliament/SenateGovernor.sol:SenateGovernor",
        "label": "_quorumNumerator",
        "offset": 0,
        "slot": "9",
        "type": "t_uint256"
      },
      {
        "astId": 3914,
        "contract": "contracts/parliament/SenateGovernor.sol:SenateGovernor",
        "label": "_quorumNumeratorHistory",
        "offset": 0,
        "slot": "10",
        "type": "t_struct(History)4618_storage"
      },
      {
        "astId": 3433,
        "contract": "contracts/parliament/SenateGovernor.sol:SenateGovernor",
        "label": "_timelock",
        "offset": 0,
        "slot": "11",
        "type": "t_contract(TimelockController)3004"
      },
      {
        "astId": 3437,
        "contract": "contracts/parliament/SenateGovernor.sol:SenateGovernor",
        "label": "_timelockIds",
        "offset": 0,
        "slot": "12",
        "type": "t_mapping(t_uint256,t_bytes32)"
      },
      {
        "astId": 10143,
        "contract": "contracts/parliament/SenateGovernor.sol:SenateGovernor",
        "label": "president",
        "offset": 0,
        "slot": "13",
        "type": "t_address"
      },
      {
        "astId": 10146,
        "contract": "contracts/parliament/SenateGovernor.sol:SenateGovernor",
        "label": "house",
        "offset": 0,
        "slot": "14",
        "type": "t_contract(HouseGovernor)10101"
      }
    ],
    "types": {
      "t_address": {
        "encoding": "inplace",
        "label": "address",
        "numberOfBytes": "20"
      },
      "t_array(t_struct(Checkpoint)4623_storage)dyn_storage": {
        "base": "t_struct(Checkpoint)4623_storage",
        "encoding": "dynamic_array",
        "label": "struct Checkpoints.Checkpoint[]",
        "numberOfBytes": "32"
      },
      "t_bool": {
        "encoding": "inplace",
        "label": "bool",
        "numberOfBytes": "1"
      },
      "t_bytes32": {
        "encoding": "inplace",
        "label": "bytes32",
        "numberOfBytes": "32"
      },
      "t_contract(HouseGovernor)10101": {
        "encoding": "inplace",
        "label": "contract HouseGovernor",
        "numberOfBytes": "20"
      },
      "t_contract(TimelockController)3004": {
        "encoding": "inplace",
        "label": "contract TimelockController",
        "numberOfBytes": "20"
      },
      "t_int128": {
        "encoding": "inplace",
        "label": "int128",
        "numberOfBytes": "16"
      },
      "t_mapping(t_address,t_bool)": {
        "encoding": "mapping",
        "key": "t_address",
        "label": "mapping(address => bool)",
        "numberOfBytes": "32",
        "value": "t_bool"
      },
      "t_mapping(t_bytes32,t_struct(RoleData)19_storage)": {
        "encoding": "mapping",
        "key": "t_bytes32",
        "label": "mapping(bytes32 => struct AccessControl.RoleData)",
        "numberOfBytes": "32",
        "value": "t_struct(RoleData)19_storage"
      },
      "t_mapping(t_int128,t_bytes32)": {
        "encoding": "mapping",
        "key": "t_int128",
        "label": "mapping(int128 => bytes32)",
        "numberOfBytes": "32",
        "value": "t_bytes32"
      },
      "t_mapping(t_uint256,t_bytes32)": {
        "encoding": "mapping",
        "key": "t_uint256",
        "label": "mapping(uint256 => bytes32)",
        "numberOfBytes": "32",
        "value": "t_bytes32"
      },
      "t_mapping(t_uint256,t_struct(ProposalCore)447_storage)": {
        "encoding": "mapping",
        "key": "t_uint256",
        "label": "mapping(uint256 => struct Governor.ProposalCore)",
        "numberOfBytes": "32",
        "value": "t_struct(ProposalCore)447_storage"
      },
      "t_mapping(t_uint256,t_struct(ProposalVote)3026_storage)": {
        "encoding": "mapping",
        "key": "t_uint256",
        "label": "mapping(uint256 => struct GovernorCountingSimple.ProposalVote)",
        "numberOfBytes": "32",
        "value": "t_struct(ProposalVote)3026_storage"
      },
      "t_string_storage": {
        "encoding": "bytes",
        "label": "string",
        "numberOfBytes": "32"
      },
      "t_struct(BlockNumber)6284_storage": {
        "encoding": "inplace",
        "label": "struct Timers.BlockNumber",
        "members": [
          {
            "astId": 6283,
            "contract": "contracts/parliament/SenateGovernor.sol:SenateGovernor",
            "label": "_deadline",
            "offset": 0,
            "slot": "0",
            "type": "t_uint64"
          }
        ],
        "numberOfBytes": "32"
      },
      "t_struct(Bytes32Deque)9363_storage": {
        "encoding": "inplace",
        "label": "struct DoubleEndedQueue.Bytes32Deque",
        "members": [
          {
            "astId": 9356,
            "contract": "contracts/parliament/SenateGovernor.sol:SenateGovernor",
            "label": "_begin",
            "offset": 0,
            "slot": "0",
            "type": "t_int128"
          },
          {
            "astId": 9358,
            "contract": "contracts/parliament/SenateGovernor.sol:SenateGovernor",
            "label": "_end",
            "offset": 16,
            "slot": "0",
            "type": "t_int128"
          },
          {
            "astId": 9362,
            "contract": "contracts/parliament/SenateGovernor.sol:SenateGovernor",
            "label": "_data",
            "offset": 0,
            "slot": "1",
            "type": "t_mapping(t_int128,t_bytes32)"
          }
        ],
        "numberOfBytes": "64"
      },
      "t_struct(Checkpoint)4623_storage": {
        "encoding": "inplace",
        "label": "struct Checkpoints.Checkpoint",
        "members": [
          {
            "astId": 4620,
            "contract": "contracts/parliament/SenateGovernor.sol:SenateGovernor",
            "label": "_blockNumber",
            "offset": 0,
            "slot": "0",
            "type": "t_uint32"
          },
          {
            "astId": 4622,
            "contract": "contracts/parliament/SenateGovernor.sol:SenateGovernor",
            "label": "_value",
            "offset": 4,
            "slot": "0",
            "type": "t_uint224"
          }
        ],
        "numberOfBytes": "32"
      },
      "t_struct(History)4618_storage": {
        "encoding": "inplace",
        "label": "struct Checkpoints.History",
        "members": [
          {
            "astId": 4617,
            "contract": "contracts/parliament/SenateGovernor.sol:SenateGovernor",
            "label": "_checkpoints",
            "offset": 0,
            "slot": "0",
            "type": "t_array(t_struct(Checkpoint)4623_storage)dyn_storage"
          }
        ],
        "numberOfBytes": "32"
      },
      "t_struct(ProposalCore)447_storage": {
        "encoding": "inplace",
        "label": "struct Governor.ProposalCore",
        "members": [
          {
            "astId": 439,
            "contract": "contracts/parliament/SenateGovernor.sol:SenateGovernor",
            "label": "voteStart",
            "offset": 0,
            "slot": "0",
            "type": "t_struct(BlockNumber)6284_storage"
          },
          {
            "astId": 442,
            "contract": "contracts/parliament/SenateGovernor.sol:SenateGovernor",
            "label": "voteEnd",
            "offset": 0,
            "slot": "1",
            "type": "t_struct(BlockNumber)6284_storage"
          },
          {
            "astId": 444,
            "contract": "contracts/parliament/SenateGovernor.sol:SenateGovernor",
            "label": "executed",
            "offset": 0,
            "slot": "2",
            "type": "t_bool"
          },
          {
            "astId": 446,
            "contract": "contracts/parliament/SenateGovernor.sol:SenateGovernor",
            "label": "canceled",
            "offset": 1,
            "slot": "2",
            "type": "t_bool"
          }
        ],
        "numberOfBytes": "96"
      },
      "t_struct(ProposalVote)3026_storage": {
        "encoding": "inplace",
        "label": "struct GovernorCountingSimple.ProposalVote",
        "members": [
          {
            "astId": 3017,
            "contract": "contracts/parliament/SenateGovernor.sol:SenateGovernor",
            "label": "againstVotes",
            "offset": 0,
            "slot": "0",
            "type": "t_uint256"
          },
          {
            "astId": 3019,
            "contract": "contracts/parliament/SenateGovernor.sol:SenateGovernor",
            "label": "forVotes",
            "offset": 0,
            "slot": "1",
            "type": "t_uint256"
          },
          {
            "astId": 3021,
            "contract": "contracts/parliament/SenateGovernor.sol:SenateGovernor",
            "label": "abstainVotes",
            "offset": 0,
            "slot": "2",
            "type": "t_uint256"
          },
          {
            "astId": 3025,
            "contract": "contracts/parliament/SenateGovernor.sol:SenateGovernor",
            "label": "hasVoted",
            "offset": 0,
            "slot": "3",
            "type": "t_mapping(t_address,t_bool)"
          }
        ],
        "numberOfBytes": "128"
      },
      "t_struct(RoleData)19_storage": {
        "encoding": "inplace",
        "label": "struct AccessControl.RoleData",
        "members": [
          {
            "astId": 16,
            "contract": "contracts/parliament/SenateGovernor.sol:SenateGovernor",
            "label": "members",
            "offset": 0,
            "slot": "0",
            "type": "t_mapping(t_address,t_bool)"
          },
          {
            "astId": 18,
            "contract": "contracts/parliament/SenateGovernor.sol:SenateGovernor",
            "label": "adminRole",
            "offset": 0,
            "slot": "1",
            "type": "t_bytes32"
          }
        ],
        "numberOfBytes": "64"
      },
      "t_uint224": {
        "encoding": "inplace",
        "label": "uint224",
        "numberOfBytes": "28"
      },
      "t_uint256": {
        "encoding": "inplace",
        "label": "uint256",
        "numberOfBytes": "32"
      },
      "t_uint32": {
        "encoding": "inplace",
        "label": "uint32",
        "numberOfBytes": "4"
      },
      "t_uint64": {
        "encoding": "inplace",
        "label": "uint64",
        "numberOfBytes": "8"
      }
    }
  }
}